:020000040800F2
:10000000005000200D8B0008D1120008D512000806
:10001000D9120008DD120008E112000800000000FB
:10002000000000000000000000000000E5120008D1
:10003000E912000800000000ED120008F1120008AB
:10004000558B0008558B0008558B0008558B000810
:10005000558B0008558B0008558B0008558B000800
:10006000558B0008558B0008558B0008558B0008F0
:10007000558B0008558B0008558B0008558B0008E0
:10008000558B0008558B0008558B0008B5160008E5
:10009000C1160008558B0008558B0008558B0008C9
:1000A000558B0008558B0008558B0008558B0008B0
:1000B000558B0008558B0008558B0008558B0008A0
:1000C000558B0008558B0008558B0008558B000890
:1000D000558B000805160008558B0008558B000845
:1000E000558B0008558B0008558B00080000000058
:1000F0000000000000000000000000000000000000
:0C01000000000000000000005FF808F1A3
:1001100010B5054C237833B9044B13B10448AFF341
:1001200000800123237010BDE801002000000000C2
:100130008CD0000808B5034B1BB103490348AFF34B
:10014000008008BD00000000EC0100208CD00008F9
:1001500053B94AB9002908BF00281CBF4FF0FF312E
:100160004FF0FF3000F07AB9ADF1080C6DE904CE24
:1001700000F006F8DDF804E0DDE9022304B0704782
:100180002DE9F0478C460E460446089D002B50D1C1
:100190008A4217466CD9B2FA82FEBEF1000F0BD02C
:1001A000CEF1200C01FA0EF620FA0CFC02FA0EF742
:1001B0004CEA060C00FA0EF43A0CBCFBF2F9BBB2A6
:1001C00002FB19CC09FB03FA4FEA144848EA0C4633
:1001D000B2450AD9F61909F1FF3180F02581B245FF
:1001E00040F22281A9F102093E44A6EB0A06B6FBC1
:1001F000F2F002FB106600FB03F3A4B244EA0644EB
:10020000A34209D9E41900F1FF3280F00B81A34227
:1002100040F2088102383C440021E41A40EA0940D7
:10022000002D62D0002324FA0EF42C606B60BDE830
:10023000F0878B4207D9002D55D0002185E8410079
:100240000846BDE8F087B3FA83F1002940F08F80BB
:10025000B34202D3824200F2FC80841A66EB0306AA
:100260000120B446002D40D085E81010BDE8F0878D
:1002700012B90127B7FBF2F7B7FA87FEBEF1000FFC
:1002800035D10121F61B4FEA174C1FFA87F8B6FB50
:10029000FCF20CFB126608FB02F0230C43EA064654
:1002A000B04207D9F61902F1FF3302D2B04200F290
:1002B000D2801A46361AB6FBFCF00CFB106608FB1F
:1002C00000F8A3B243EA0644A04507D9E41900F1B7
:1002D000FF3302D2A04500F2B9801846A4EB08040F
:1002E00040EA02409CE729462846BDE8F08707FA25
:1002F0000EF7CEF1200326FA03F24FEA174CB2FBB9
:10030000FCF11FFA87F80CFB112206FA0EF620FA10
:1003100003F301FB08F933431E0C46EA0246B145DC
:1003200000FA0EF409D9F61901F1FF3280F08C8041
:10033000B14540F2898002393E44A6EB0906B6FB7E
:10034000FCF00CFB106200FB08F99EB246EA024684
:10035000B14507D9F61900F1FF3371D2B1456FD914
:1003600002383E44A6EB090640EA01418FE7C1F19D
:10037000200722FA07F88B4048EA030326FA07F41D
:100380004FEA134EB4FBFEF91FFA83FC0EFB19442F
:100390008E4020FA07F809FB0CFA48EA06084FEAF3
:1003A000184646EA0444A24502FA01F200FA01F6B0
:1003B00008D9E41809F1FF3044D2A24542D9A9F185
:1003C00002091C44A4EB0A04B4FBFEF00EFB10442B
:1003D00000FB0CFC1FFA88F848EA0444A44507D93E
:1003E000E41800F1FF3E29D2A44527D902381C4465
:1003F00040EA0940A0FB0289A4EB0C0CCC45C246A4
:10040000CE4615D312D055B1B6EB0A036CEB0E06EF
:1004100006FA07F7CB401F43CE402F606E600021E5
:10042000BDE8F0871046F7E68946DEE64645EAD2A3
:10043000B8EB020A69EB030E0138E4E77046D7E730
:1004400018468FE78146BDE7114676E702383C44FF
:1004500044E7084606E7023A3E442BE7704700BFF0
:100460000346F0B5002283B0060E4FF40041050CA0
:10047000040A27488DF807308DF804608DF8055080
:100480008DF8064009F082F8322000F059FE002273
:100490004FF400511E4809F079F802AF01AE08256B
:1004A00016F8014B322000F04BFEE2094FF4804178
:1004B000174809F06BF8322000F042FE01224FF499
:1004C0000041134809F062F8322000F039FE0022A2
:1004D0004FF400410E4809F059F86400013DE4B2C0
:1004E000E0D1BE42DBD1322000F02AFE2A464FF492
:1004F0008041074809F04AF8322000F021FE01222D
:100500004FF40051024809F041F8284603B0F0BD0D
:10051000000C014000000000002800F00981F8B53F
:10052000894B04689C4240F0FD8085A7D7E90067AD
:1005300047F6F873B0F84C40B0F84EE003EAC40454
:10054000B0F8505044EACE3403EAC5038465D0E9DC
:100550000E45AF4208BFA64238BF43F0006343F4E4
:100560000043C365002900F0838040240025467FB6
:10057000837F002E08BF2C460BB144F0800490F816
:100580002030B0F84460714D5B0205EA863503F413
:10059000F0532B43C57E43F4005323430DB143F086
:1005A0008073847E0CB143F0007390F8214090F882
:1005B0002250A40604F0E0541C430DB144F0C044A2
:1005C00047F6F87390F82A50078DED0390F82360F2
:1005D00005F4C03503EAC70304662B430EB143F4A8
:1005E000802390F824400CB143F4001390F8254088
:1005F0000CB143F4800390F826400CB143F400039F
:100600004366002956D090F82B60002E69D0D0E9BF
:100610000C4554EA05036ED1002690F82E30002BCD
:1006200040F089804FF4B00490F8523090F85310A5
:100630001B03090543F4000301F4E0010B433343BA
:100640008366C466F2B1052500F16C0700F18404ED
:1006500057F8046945EA0600FFF702FF002805F194
:10066000FF355CDB6B1C44F80469F1D10020F8BD58
:10067000D0E90C4554EA050315BF40246024002549
:10068000202574E7052400F16C0555F80469042C55
:1006900044EA060004D0012C02DDEB69B34204D029
:1006A000FFF7DEFE00283ADBEE6114F1FF34ECD2F6
:1006B0000020F8BD90F82E1090F82B30002914BFC0
:1006C0004FF480660026002BACD190F82C30002B24
:1006D000A8D1D0E90C4554EA050308BF46F40066EA
:1006E000A0E790F82C10002996D0D0E90C4554EAE8
:1006F000050392D009E0731EDB0090F82C1003F084
:10070000180343F02006002987D04B1E9B0190F868
:100710002D10DBB2334341B943F480767DE76FF0AF
:100720000200F8BD6FF00100F8BD43F4407674E7B5
:100730004FF0FF30704746F4806673E7AFF30080F8
:1007400000A493D6000000005143DF0A00C0FF0060
:100750002DE9F04F8BB099469DF85030059328B1A4
:100760009046AF4B026804469A4204D000200146EE
:100770000BB0BDE8F08F0023A1A1D1E900010FF279
:10078000882BDBE900AB0022002510EB080041EBD1
:100790000901E668C4E90C23C4E90E238B45238BC9
:1007A00008BF82450096A564A4F84C50A4F84E50AA
:1007B000A4F8505084F8525084F853502664A4F89A
:1007C0004430C0F0A380A268964997481144814202
:1007D00000F29C8040F2FE315D1EADB28D4200F20F
:1007E0009580002E00F0928089A1D1E90001A77EBA
:1007F000E67E002F0CBF4FF0010A4FF0020A002ED8
:100800000CBF01260226494508BF40450396C0F0AB
:10081000878081A7D7E900674F4508BF4645C4E9EF
:100820000E89C0F0CC814FF0010E18EB080049EBA7
:1008300009018F4208BF8642C4E90E0184F853E0E3
:10084000C0F0AB814FF0020E09FA0EF141EA987147
:1008500008FA0EF08F4208BF8642C4E90E0184F800
:1008600053E0C0F09A814FF0030E09FA0EF141EA0D
:10087000587108FA0EF08F4208BF8642C4E90E0193
:1008800084F853E0C0F089814FF0040E09FA0EF1AC
:1008900041EA187108FA0EF08F4208BF8642C4E997
:1008A0000E0184F853E0C0F078814FF0050E09FA8C
:1008B0000EF141EAD86108FA0EF08F4208BF864275
:1008C000C4E90E0184F853E0C0F067814FEA891152
:1008D00041EA986189464FEA8810804606214F45D3
:1008E00008BF8642C4E90E8984F85310C0F06781BE
:1008F00000210E460D4684F85310A663E56320469A
:100900000122FFF709FE3046294631E72046012241
:100910000021FFF701FE002001460BB0BDE8F08F7B
:100920004B21C4E90E89089194F82F60002E40F005
:10093000CA800AFB02FA039A02FB03F2BAFBF2FA3C
:100940003A4BC4F848A09A4500F22F81009BBAFBAD
:10095000F3FB1FFA8BFBBBF5805FA4F850B080F06F
:100960002B815246334640464946FFF7F1FB0023B0
:100970001FFA8BF2CDE90023A2FB0812009B85B27F
:1009800003FB0922084633461146A4F84E5052464E
:10099000FFF7DEFB05FB1B0083B20993A4F84C3084
:1009A000237F002B00F0EF80099B002B00F0EB80F1
:1009B000BBF1000F4DD05B4528BF5B46012B0FD02C
:1009C0000998BBFBF3F203FB12B131B9B0FBF3F1B1
:1009D00003FB1105002D00F0D080013B012BF0D16D
:1009E00094F82230ABB3BBF1310F32D8B4F84C20BD
:1009F0005300B3F5805F1EDB2BE000BFAFF3008038
:100A0000A87AF3FDFFFFFFFFA826360401000000CF
:100A100000A493D600000000FF55218300000000D1
:100A20005143DF0A806967FF001C4E0E0048E80151
:100A3000B3F5805F09DA4FEA4B0B1FFA8BFB9AB2D2
:100A4000BBF1310F4FEA4203F2D9A4F84C20A4F8CD
:100A500050B094F826105B4A00295B4B18BF134630
:100A6000BAFBF3F259484FF2244118BF014603FB89
:100A700012A3D2B28B42B4F8503088BF013284F84E
:100A80005220002B00F08E80B4F84C10B4F84E00C9
:100A900094F8532003FB0010C717A0FB0A0103FAC8
:100AA00002F20AFB07110023FFF752FBC4E90C0115
:100AB000059A01212046FFF72FFD0028FFF626AFFB
:100AC000206B616B54E60AFB02F30493039B013530
:100AD000ADB203FB05F6049BB3FBF6F63C4B9E421E
:100AE00003D940F2FE339D42F0D9B5F5806F009BEB
:100AF00003D1013300930025E8E7B6FBF3F7BFB25B
:100B0000B7F5805FE2D21FFA87FAAAFB08010AFB59
:100B10000911013041F100014FF0000B3246002372
:100B2000FFF716FB52465B46CDE90601FFF710FBC7
:100B3000DDE9060193B20993A4F84C3052465B46B6
:100B4000FFF706FB089A80B2009B9042A4F84E0083
:100B5000A664A4F85070A4F844502364B6D3BB46EE
:100B6000B246BBF1000F7FF41BAF0026A4F84C7017
:100B7000354684F853705946BFE61FFA82FBA4F845
:100B800050B0A4F84C1094F82230002B3FF461AF21
:100B9000BBF1000F7FF427AF5BE789461721804642
:100BA0000891C1E60020002180E7A6643146204676
:100BB0000122FFF7B1FCD9E5A4F85060F6E7172150
:100BC0000891B1E620A1070048E8010090D0030099
:100BD0000048E80100000000002800F041822DE9F3
:100BE000F04F97A7D7E90067044689B001224FF478
:100BF00080518F4808F0CAFC01224FF400518C4804
:100C000008F0C4FC00224FF48041894808F0BEFC83
:100C100000224FF40041864808F0B8FCD4E904896A
:100C20007DA1D1E9000100220023002510EB08007E
:100C300041EB0901C4E90C23C4E90E23DFF808E203
:100C4000E368228B8F4208BF86420093A564A4F814
:100C50004C50A4F84E50A4F8505084F8525084F8E8
:100C60005350C4F800E02364A4F84420C0F0A680E8
:100C7000A368704970481944814200F29F8040F295
:100C8000FE31551EADB28D4200F2988000990029C8
:100C900000F0948062A1D1E90001A77EE67E002FDA
:100CA0000CBF4FF0010E4FF0020E002E0CBF0126BC
:100CB0000226494508BF40450296C0F089805AA7E0
:100CC000D7E900674F4508BF4645C4E90E89C0F023
:100CD000DC814FF0010C18EB080049EB09018F4251
:100CE00008BF8642C4E90E0184F853C0C0F0A68153
:100CF0004FF0020C09FA0CF141EA987108FA0CF075
:100D00008F4208BF8642C4E90E0184F853C0C0F088
:100D100095814FF0030C09FA0CF141EA587108FA79
:100D20000CF08F4208BF8642C4E90E0184F853C01C
:100D3000C0F084814FF0040C09FA0CF141EA1871FB
:100D400008FA0CF08F4208BF8642C4E90E0184F80D
:100D500053C0C0F073814FF0050C09FA0CF141EA61
:100D6000D86108FA0CF08F4208BF8642C4E90E0130
:100D700084F853C0C0F062814FEA891141EA98615A
:100D800089464FEA8810804606214F4508BF8642B3
:100D9000C4E90E8984F85310C0F077810021002344
:100DA000002284F85310C4E90E2320460122FFF7E5
:100DB000B3FB6FF0010009B0BDE8F08F20460122BF
:100DC0000021FFF7A9FB6FF0010009B0BDE8F08F2B
:100DD0004B21C4E90E89069194F82F600EFB03F3B2
:100DE000002E00F0F7800393029B0135ADB203FBA8
:100DF00005F6039BB3FBF6F6104B9E4203D940F277
:100E0000FE339D42F0D9B5F5806F009B1ED10133B2
:100E100000930025E8E700BFA87AF3FDFFFFFFFF7E
:100E200000A493D600000000FF55218300000000BD
:100E3000000C0140806967FF001C4E0E0048E8016D
:100E4000A8263604010000005143DF0AB6FBF3F781
:100E5000BFB2B7F5805FC7D21FFA87FAAAFB0801B5
:100E60000AFB0911013041F100014FF0000B32463D
:100E70000023FFF76DF952465B46CDE90401FFF709
:100E800067F9DDE9040193B20793A4F84C305246A8
:100E90005B46FFF75DF9069A80B2009B904223649F
:100EA000A4F84E00A664A4F85070A4F844503B4641
:100EB0009AD3BB46B246BBF1000F00F0D680237F29
:100EC000002B64D0079B002B61D0BBF1000F17D023
:100ED0005B4528BF5B46012B0ED00798BBFBF3F2A6
:100EE00003FB12B129B9B0FBF3F103FB1105002D8F
:100EF00047D0013B012BF1D194F82230002B4DD18A
:100F000094F82610624A0029624B18BF1346BAFBB8
:100F1000F3F261484FF2244118BF014603FB12A3CC
:100F2000D2B28B42B4F8503088BF013284F85220DC
:100F3000002B00F09280B4F84C10B4F84E0094F8F6
:100F4000532003FB0010C717A0FB0A0103FA02F2AB
:100F50000AFB07110023FFF7FBF80122C4E90C018B
:100F600011462046FFF7D8FA0028FFF627AFD4E94C
:100F70000C23134314BF00206FF0010009B0BDE83B
:100F8000F08F1FFA82FBA4F850B0A4F84C1094F82C
:100F90002230002BB4D0BBF1000FB1D0BBF1310F28
:100FA000AED8B4F84C205300B3F5805F03DBA7E75D
:100FB000B3F5805F09DA4FEA4B0B1FFA8BFB9AB24D
:100FC000BBF1310F4FEA4203F2D9A4F84C20A4F848
:100FD00050B095E7029901FB02F1B3FBF1FA2F4BF8
:100FE000C4F848A09A453ED8009BBAFBF3FB1FFA11
:100FF0008BFBBBF5805FA4F850B024D25246334639
:1010000040464946FFF7A4F800231FFA8BF2CDE9CA
:101010000023A2FB0812009B85B203FB09220846AD
:1010200033461146A4F84E505246FFF791F805FB9F
:101030001B0083B20793A4F84C3040E78946172180
:1010400080460691C8E6A4F8506031462046012249
:10105000FFF762FA6FF00100B7E6002000217CE79D
:101060004FF0FF307047A664EFE700260027A4F892
:101070004C3084F853305946C4E90E6720460122AB
:10108000FFF74AFA6FF001009FE617210691A3E6E9
:1010900020A1070048E8010090D003000048E801C3
:1010A000C0B300232DE9F0411BA5D5E9004501227D
:1010B000002600274FF007084FF0060C4FF0960E61
:1010C0000421C0E90467C0E9024502830277427740
:1010D00080F82D208376C3768377C37780F822301B
:1010E00080F8233080F8243080F8253080F82630CE
:1010F00080F82A3080F82E3080F82C3080F82F309D
:1011000080F8208080F821C0A0F828E080F82B101B
:10111000BDE8F081704700BF40787D01A861000004
:1011200000B9704738B5044607F0CAFE054600E02E
:1011300030BF07F0C5FE401B8442F9D838BD00BF60
:101140004FF06043002130B5134C144AC3F8B04F40
:10115000D368134C43F08073D360236883B043F0AB
:10116000010323606160054609F040F908A3D3E953
:101170000023A0FB0501FEF7EBFF214601904A6822
:10118000019B9A42FBD303B030BD00BFAFF3008098
:1011900000CA9A3B0000000055CEACC5F0ED00E05F
:1011A000001000E0002048F2084310B4204C420830
:1011B00010F0010F82EA030118BF0A46510812F02D
:1011C000010F81EA030218BF11464A0811F0010F0E
:1011D00082EA030118BF0A46510812F0010F81EAA2
:1011E000030218BF11464A0811F0010F82EA0301F9
:1011F00018BF0A46510812F0010F81EA030218BF16
:1012000011464A0811F0010F82EA030118BF0A468D
:10121000510812F0010F81EA030218BF1146013094
:10122000B0F5807F24F8021FC1D110BC704700BF09
:101230003209002008B5044808F0D0F918B94FF475
:101240007A62024B1A8008BD0C02002000000020C8
:10125000194B1A7A32B100221A705A801A719A7197
:10126000DA711A72154B1A7A32B100221A705A804A
:101270001A719A71DA711A72114B1A7A32B100220C
:101280001A705A801A719A71DA711A720D4B1A7AA1
:1012900032B100221A705A801A719A71DA711A7278
:1012A000094B1A7A32B100221A705A801A719A7157
:1012B000DA711A72704700BF1C090020040900206F
:1012C00028090020F808002010090020704700BFFE
:1012D000704700BFFEE700BFFEE700BFFEE700BFAC
:1012E000FEE700BF704700BF704700BF704700BFF8
:1012F00038B507F0D9FD4FF6FE72924BD3F80412C1
:10130000914204D8D3F804220132C3F804224FF6E4
:10131000FE728D4BD3F80412914204D8D3F8042204
:101320000132C3F804224FF6FF71884A13889BB23A
:101330008B4203D0138801339BB21380022184486F
:1013400008F01EF9834B1A78002840F043811D2ACB
:101350000AD81A780132D2B21D2A1A7004D91A7921
:1013600012B901221A719A715A8892B2B2F5FA7FB3
:101370000BD25A88013292B2B2F5FA7F5A8004D366
:101380005A7912B901225A71DA710121724808F0B2
:10139000F7F8724B1A78002840F005811D2A0AD808
:1013A0001A780132D2B21D2A1A7004D91A7912B9E8
:1013B00001221A719A715A8892B2B2F5FA7F0BD251
:1013C0005A88013292B2B2F5FA7F5A8004D35A7920
:1013D00012B901225A71DA7102215F4808F0D0F87F
:1013E0005F4B1A78002840F0C7801D2A0AD81A7867
:1013F0000132D2B21D2A1A7004D91A7912B9012207
:101400001A719A715A8892B2B2F5FA7F0BD25A8841
:10141000013292B2B2F5FA7F5A8004D35A7912B9E6
:1014200001225A71DA710821494808F0A9F84D4B98
:101430001A78002870D11D2A0AD81A780132D2B23F
:101440001D2A1A7004D91A7912B901221A719A71D7
:101450005A8892B2B2F5FA7F0BD25A88013292B210
:10146000B2F5FA7F5A8004D35A7912B901225A711F
:10147000DA710421364808F083F83B4B1A780028CB
:1014800034D11D2A0AD81A780132D2B21D2A1A7014
:1014900004D91A7912B901221A719A715A8892B232
:1014A000B2F5FA7F0BD25A88013292B2B2F5FA7FC6
:1014B0005A8004D35A7912B901225A71DA7101247F
:1014C0002A4A92F82F30013BA3420ED828490B78C4
:1014D00003F0FF054BB92748928D038823449BB244
:1014E0009A4203809CBF05800C7038BD5AB11A78AF
:1014F000013AD2B21A7032B9197921B101211A71A7
:101500005A7119725A805A8892B2002AD7D05A88D2
:10151000013A92B25A80D2E75AB11A78013AD2B25D
:101520001A7032B9197921B101211A715A711972DF
:101530005A805A8892B2002A9BD05A88013A92B2B5
:101540005A8096E7840400207402002000000020E6
:10155000000801401C090020000C01400409002083
:1015600028090020F808002010090020C4080020E5
:1015700070020020600200205AB11A78013AD2B2FB
:101580001A7032B9197921B101211A715A7119727F
:101590005A805A8892B2002A3FF445AF5A88013ADD
:1015A00092B25A803FE75AB11A78013AD2B21A7011
:1015B00032B9197921B101211A715A7119725A80FF
:1015C0005A8892B2002A3FF407AF5A88013A92B281
:1015D0005A8001E75AB11A78013AD2B21A7032B978
:1015E000197921B101211A715A7119725A805A88D8
:1015F00092B2002A3FF4C9AE5A88013A92B25A8098
:10160000C3E600BF284970B40B681A68D86816078B
:101610001CBF6FF00F041C60950602D584065E683F
:1016200026D4160614D5050612D50D6A35B1CC8C14
:10163000A4B21CB191F83940212C2AD000252026D3
:10164000DC6824F08004DC60CD840D6281F83960B0
:1016500054060BD5420609D500202024DA6822F072
:101660004002DA60C884086281F8394070BC704773
:101670000E4CA342D5D10E4DD5F80042B4F5007FF3
:1016800001D22E5501340026C5F80042C5F8046287
:10169000C7E76C1C0C622C785C60CC8C013CA4B25B
:1016A000CC84002CCAD0D3E71802002000380140B7
:1016B00074020020014808F02FB800BFAC1A0020C7
:1016C000014808F029B800BFAC1A002070B50A4DD7
:1016D000D5F80042C4F500768E4228BF0E4601467A
:1016E000324628190AF0ADFD00233444C5F8004203
:1016F000C5F8043270BD00BF840400200E4B82B0D8
:101700009A690E4942F001029A619A6902F0010257
:101710000092009ADA6942F08052DA61DB6903F0E4
:1017200080530193019B4B6823F0E06343F0007307
:101730004B6002B0704700BF001002400000014043
:1017400070B594B00AA8282200210AF085FD002473
:101750004FF48032012302254FF4E01109260AA834
:101760000B9212920E931093139105940194069488
:101770000794089409940294039404940A9611958A
:1017800008F062FB0F224FF48063294605A80592FA
:10179000089306950794099408F05AFD102301A8B0
:1017A0000494019308F048FE14B070BD062140F285
:1017B0000D3310B5074C084A204661602260A360D3
:1017C00007F0E8FE10B9054B188010BD0023236018
:1017D00010BD00BF0C0200200030004000000020BF
:1017E00010B50B4C4022002120460AF035FD4FF485
:1017F000E1320C230749204684E80600636108F0C3
:101800009FFE10B923685B6810BD0023236010BDE4
:101810001802002000380140F0B500240268244B73
:1018200087B09A42029403940494059401D007B0BF
:10183000F0BD02264FF4007703F558439A69054638
:1018400042F480429A619A6902A902F480420092AD
:10185000009A9A69174842F004029A619B690396BC
:1018600003F004030193019B0596029707F07EFDA8
:101870004FF4806302A90F4803940494029307F085
:1018800075FD2B682246D868314640F48070D860D8
:101890005C69252044F001045C61DC6844F02004AC
:1018A000DC6007F025FB252007F058FB07B0F0BDF2
:1018B000003801400008014038B50025044C054BB4
:1018C000204684E8280007F06FFB00B1256038BD92
:1018D00004020020003002400268094B9A4200D006
:1018E0007047A3F500535A6982B042F040025A6132
:1018F0005B6903F040030193019B02B0704700BF96
:10190000003002402DE9F04300244FF0200989B057
:10191000674B04940594069407949A69012742F052
:1019200004029A619A694FF0020802F004020092E0
:10193000009A9A695F4E42F008029A619A695E4D78
:1019400002F008020192019A9A69304642F01002B0
:101950009A619969224601F01001029102999969F0
:1019600041EA0901996149469B690B400393039B36
:1019700007F00CFE22462846102107F007FE2246FB
:101980002846494607F002FE22462846402107F035
:10199000FDFD22462846802107F0F8FD30463A46F4
:1019A0004FF4805107F0F2FD30463A464FF40051B3
:1019B00007F0ECFD224630464FF4804107F0E6FD8B
:1019C000224630464FF4004107F0E0FD04A93046BE
:1019D00006940597CDF81C80CDF8109007F0C6FC52
:1019E000102328460DEB0301049305970694CDF8C8
:1019F0001C8007F0BBFC04A92846CDF8109007F026
:101A0000B5FC402304A92846049307F0AFFC8023CB
:101A100004A92846049307F0A9FC04A928460594C4
:101A20000697CDF8108007F0A1FC042304A92846EE
:101A3000049307F09BFC082304A92846049307F0AD
:101A400095FC04A93046049707F090FC04A93046A1
:101A5000CDF8108007F08AFC4FF4805304A930467B
:101A6000049305970694079707F080FC4FF4005302
:101A700004A93046049307F079FC4FF4804304A98D
:101A80003046049307F072FC4FF40043304604A93B
:101A9000049307F06BFC4FF4807304A92846059467
:101AA0000697049307F062FC09B0BDE8F08300BF1D
:101AB00000100240000C0140000801402DE9F047F1
:101AC00007460E46154607F0FBF9002F3FD0002EC3
:101AD0003DD03B4B04461B6873B107F0F1F9001B86
:101AE000132808D809F01CFD002834D007F0E8F9C5
:101AF000001B1328F6D955B3324D2B68002B58D054
:101B000007F0DEF9001B132823D895F83930202B75
:101B1000F6D12B6A002BF3D12B4C2C4D206820B131
:101B20002B689E423AD90AF075FB06F1800323F038
:101B30007F0318462B600AF065FB206070BBB2B2D1
:101B40003946BDE8F04714231E4808F063BDBDE8E0
:101B5000F087BDE8F087DFF87880DFF87890D8F874
:101B6000000028B1D9F800309E420DD90AF052FB8E
:101B700006F1800323F07F031846C9F800300AF00D
:101B800041FBC8F80000B0B1394632460AF059FBB3
:101B9000D8F80000B1B209F0D1FCACE739463246C2
:101BA0000AF04FFBB2B221680648BDE8F04708F0E2
:101BB000C3BDBDE8F087B1B2384609F0BFFC9AE773
:101BC000AC1A0020180200207C04002080040020B1
:101BD0008C060020900600200138012810B514461C
:101BE00001D9204610BD0029FBD0002AF9DD0846A6
:101BF00001222146FFF762FF204610BDF0B5002507
:101C00004FF0FF378FB0304E0EAC1A2201A9284694
:101C100006F0CAFF01AB01E0A3423DD013F8012B4F
:101C2000FF2AF9D0019BB34246D03435B5F5777F12
:101C3000EBD1264C236843B1254D20462B8807F075
:101C4000CDFC10B94FF47A632B8006F085FF002598
:101C5000FF224FF0780E5627342612201D4B2168A4
:101C600083F800E05F709E70D87083F8312083F8AD
:101C7000322083F8332041B1154C1448238807F0F3
:101C8000ADFC10B94FF47A63238028461A2211491B
:101C900006F0CEFF0FB0F0BD7B1C0BD038461A22E9
:101CA00001A906F081FF01A834220A490AF0BAFA14
:101CB0000028EFD0054CCBE74FF6FF73BDF8362078
:101CC0009A4208BF2F46B0E7785634120C02002023
:101CD00000000020C4080020F0B500248FB04FF0B1
:101CE000FF364FF6FF77104D03E03434B4F5777FBD
:101CF00010D01A2201A9204606F056FF019BAB42E4
:101D0000F3D1BDF83630BB4208BF26463434B4F5B3
:101D1000777FEED1731C04D030461A22034906F0B7
:101D200043FF0FB0F0BD00BF78563412C408002046
:101D300070B40478002C38D030340C7044783034CF
:101D40004C70847804F13003DBB22E262025002469
:101D50008B70C3780E713033CB700379032A03F193
:101D600030034B71437903F130038B7183790D722A
:101D700003F13003CB71C37903F130034B72037A63
:101D800003F130038B72437A0C7303F13003CB728F
:101D900006D9131F022B11D9D31F022B03D80232ED
:101DA0008B5C803B8B5470BC70470B704478002C6C
:101DB000C5D14B708478002CC7D0C3E701328B5C4F
:101DC00070BC803B8B547047F0B57BA3D3E90023F4
:101DD0007D4989B0CD690E6A28463146FEF7B8F9CB
:101DE00075A3D3E90023044631462846FEF7B0F92F
:101DF00016461F4672A3D3E9002330463946FEF744
:101E0000A7F96FA3D3E900238DF8050039463046C2
:101E1000FEF79EF916461F466C4A002330463946A7
:101E2000FEF796F939468DF80600684A30460023D9
:101E3000FEF78EF916461F46654A0023304639469E
:101E4000FEF786F939468DF80700614A30460023CF
:101E5000FEF77EF916461F465E4A00233046394695
:101E6000FEF776F939468DF808005A4A30460023C5
:101E7000FEF76EF916461F4642F2107200233046F6
:101E80003946FEF765F939468DF8090042F21072BD
:101E900030460023FEF75CF916461F464FF47A726F
:101EA000002330463946FEF753F939468DF80A00CB
:101EB0004FF47A7230460023FEF74AF916461F4661
:101EC0006422002330463946FEF742F964228DF839
:101ED0000B00002330463946FEF73AF91046194602
:101EE0000A220023FEF734F90022E4B28DF80C0038
:101EF0008DF80D20002C4FD004F130038DF81030F8
:101F00009DF8053030338DF811309DF8063003F11F
:101F10003001C9B200252E2720269DF807409DF8E4
:101F200009009DF80A309DF80B208DF8121030340E
:101F30009DF80C109DF808E08DF813409DF80D40B9
:101F400030303033303230310EF1300E8DF8160033
:101F50008DF81730284601238DF819208DF81A10B6
:101F600030341D4A06218DF815E08DF81B408DF8A0
:101F70001C508DF814708DF8186006F06BFC04AAE4
:101F80000621082006F08AF90123144A0621682058
:101F900006F060FC09B0F0BD20219DF805308DF8F9
:101FA0001010002BAED19DF806308DF81110002BCB
:101FB000B0D0ACE7AFF3008000CA9A3B000000004D
:101FC00000E1F50500000000C4080020809698009C
:101FD00040420F00A0860100F4D100080CD4000894
:101FE0002DE9F04704460D4612283FD8DFE810F0EF
:101FF000130067006F008A00A500C000DB00F70037
:1020000003013E00130067006F008A00A500C000B6
:10201000DB00F700030100210226631B084618BFFE
:102020000123794A06F016FC4FF0030931460627D2
:102030004FF0040801232C1BE31A18BF0123734A35
:10204000002006F007FCA31B18BF01234146704A7D
:10205000002006F0FFFB062F08D0B4EB090318BFE1
:10206000012339466B4A002006F0F4FB6A4B93F8D3
:102070002F30012B1CD011D3022B07D1BDE8F04724
:102080000123664A0621002006F0E4BB0123BDE8D7
:10209000F047634A0621002006F0DCBB614B1B7849
:1020A000092B00F0AC80132B00F0A980BDE8F0876D
:1020B0005D4A0621BDE8F047002006F0CBBB4FF09B
:1020C00002090023C846194604270126B3E7002168
:1020D000431B18BF012308462C1B4D4A06F0BAFBD0
:1020E00014F1FF3318BF01234A4A0221002006F0F1
:1020F000B1FBA31E18BF01234C4A0421002006F0A7
:10210000A9FBB3E70021431B18BF012308462C1B82
:10211000404A06F09FFB14F1FF3318BF0123434AE6
:102120000221002006F096FBA31E18BF0123404A9F
:102130000421002006F08EFB98E70021431B18BF06
:10214000012308462C1B394A06F084FB14F1FF33A7
:1021500018BF0123364A0221002006F07BFBA31E94
:1021600018BF0123334A0421002006F073FB7DE7EA
:102170000021431B18BF012308462C1B2C4A06F0E4
:1021800069FB14F1FF3318BF01232A4A0221002002
:1021900006F060FBA31E18BF0123274A042100207C
:1021A00006F058FB62E70021431B18BF01230846D5
:1021B000204A2C1B06F04EFB14F1FF3318BF0123FD
:1021C00002211D4A002006F045FB02230421E31AE8
:1021D00018BF0123194A002006F03CFB46E7002106
:1021E000431B18BF01230846134A06F033FB2C1B80
:1021F00001230221EBE700230C1A1946E7E7BDE8AB
:10220000F047FFF7E1BD00BFE0D00008F0D00008C4
:1022100000D1000810D10008C408002084D10008B3
:1022200098D100080200002070D1000830D10008C9
:1022300040D1000850D1000860D1000820D100082A
:102240002DE9F043A04C83B02378092B30D09F4A6E
:10225000137A03F0FF018BB1D379002B39D09C4B5B
:102260001B78082B38D8DFE813F0EE00C900AB006C
:10227000360036003600360036003600954B1B7AA5
:1022800003F0FF026BB3944C94F82F00002860D049
:1022900084F82F100021E269236A90480091FEF72C
:1022A00057FAFEF7D5FF03B0BDE8F043FFF78CBD4A
:1022B000132387492370FEF7CBFF0978881EC0B22D
:1022C00010F0800F18BF002003B0BDE8F043FFF707
:1022D00087BE7F4B1B78237003B0BDE8F043FEF749
:1022E000B7BF7F4B1B7A33B37B4C94F82F10002978
:1022F00063D10127E269D4F80480236AD4F80890F6
:1023000012EB0802774E43EB09039F4208BF964247
:1023100030D26FF05305422006220123217784F842
:10232000211084F8221084F823106577A077E277D3
:1023300084F8203020E06C4B1B7A03F0FF0283B35B
:1023400063490B78002B00F0A080013BDBB20B70DF
:10235000B1E7E269D4F80480236AD4F80890B2EBBC
:10236000080263EB090356A7D7E900679F4208BF3D
:10237000964204D2E2612362FFF740FC8AE75825C7
:102380006FF07A010C22022384F8200084F82100E7
:1023900084F8220084F8230025776177A277E37719
:1023A000EAE7524B1B7A002B6CD049490B78072B7C
:1023B0009CBF5A1CD2B20A707DE784F82F2069E7CF
:1023C000454D95F82F30022B86D00127022200269A
:1023D000474B484985F82F200E801F70FFF70EFCF1
:1023E00095F82F30BB4228D052D3022B59D13B460F
:1023F0003046414A062106F02DFA6DE7364D95F834
:102400002F30012B3FF468AF00260127EA682B69C3
:102410003A4938480680C1E90023354B00961E70C2
:10242000D1E900232D4885F82F70FEF791F9FFF7C9
:10243000E5FB95F82F30BB42D6D13046304A062115
:1024400006F008FA48E7244D95F82F30002B3FF4AA
:1024500043AF00262B6AEA692048009685F82F6072
:10246000FEF776F9FFF7CAFB95F82F30012BE4D081
:102470000ED3022B1CD1304601231F4A062106F041
:10248000E9F929E703B0BDE8F08308230B7012E7F0
:102490002378092B02D0132B7FF41EAFFFF794FC97
:1024A0001AE73B463046174A062106F0D3F913E7F0
:1024B00030460123134A062106F0CCF90CE700BF91
:1024C00057850C02000000000200002010090020C7
:1024D000710200201C090020C4080020380B0020D5
:1024E0000409002000AC420628090020F80800205A
:1024F000700200206002002084D1000868020020E1
:1025000070D1000898D100082DE9F04FD2A3D3E98B
:102510000023D54C99B0E569266A28463146FDF777
:1025200017FECDA3D3E900238DF844003146284699
:10253000FDF70EFE16461F46C9A3D3E90023304619
:102540003946FDF705FEC6A3D3E900238DF8450003
:1025500039463046FDF7FCFD16461F46C34A0023A8
:1025600030463946FDF7F4FD39468DF84600BF4A3E
:1025700030460023FDF7ECFD16461F46BC4A0023FB
:1025800030463946FDF7E4FD39468DF84700B84A34
:1025900030460023FDF7DCFD16461F46B54A0023F2
:1025A00030463946FDF7D4FD39468DF84800B14A2A
:1025B00030460023FDF7CCFD16461F4642F210724E
:1025C000002330463946FDF7C3FD39468DF84900F2
:1025D00042F2107230460023FDF7BAFD16461F4640
:1025E0004FF47A72002330463946FDF7B1FD394683
:1025F0008DF84A004FF47A7230460023FDF7A8FDAB
:1026000016461F466422002330463946FDF7A0FDDA
:1026100039468DF84B00642230460023FDF798FDC3
:1026200016461F460A22002330463946FDF790FD24
:102630000A228DF84C00002330463946FDF788FD0C
:1026400000238D4D8DF84D202E788DF84E30002EC4
:1026500000F0DB80894A137A03F0FF067BB1D3795F
:1026600023B194F82F30002B40F04682FFF7C6FAD2
:10267000FEF7EEFD09232B7019B0BDE8F08F804BFB
:102680001B7A002B40F008817E4B1B7A002B40F018
:1026900053827D4B1B7A002B00F01F827B4B1D78F1
:1026A000002D00F02682013DEDB21D7011AB0693A6
:1026B000E669246A304668A3D3E900232146FDF782
:1026C00047FD65A3D3E900238DF844002146304639
:1026D000FDF73EFD16461F4661A3D3E900233046B1
:1026E0003946FDF735FD5EA3D3E900238DF845009B
:1026F00039463046FDF72CFD16461F465B4A00233F
:1027000030463946FDF724FD39468DF84600574AD4
:1027100030460023FDF71CFD16461F46544A002391
:1027200030463946FDF714FD39468DF84700504ACA
:1027300030460023FDF70CFD16461F464D4A002388
:1027400030463946FDF704FD39468DF84800494AC0
:1027500030460023FDF7FCFC16461F4642F210727D
:10276000002330463946FDF7F3FC39468DF8490021
:1027700042F2107230460023FDF7EAFC16461F466F
:102780004FF47A72002330463946FDF7E1FC3946B2
:102790008DF84A004FF47A7230460023FDF7D8FCDA
:1027A00016461F466422002330463946FDF7D0FC0A
:1027B00039468DF84B00642230460023FDF7C8FCF3
:1027C00016461F460A22002330463946FDF7C0FC54
:1027D00039468DF84C000A2230460023FDF7B8FC3C
:1027E00000245F238DF84D2006982A4614A98DF801
:1027F0004E40FFF79DFA14AA0321102005F04EFD6C
:10280000FEF726FD19B0BDE8F08F0A232B7004F007
:102810006FFD1F4A3146304605F0F8FE1B4B14A9E8
:102820001A7811A85F23FFF783FA14AA0321102056
:1028300005F034FD94F82F30012B00F0A481C0F096
:102840007281022B40F0C08130460123114A0621DB
:1028500006F000F8FEE600BF00CA9A3B0000000048
:1028600000E1F50500000000C408002080969800F3
:1028700040420F00A0860100020000201009002045
:1028800028090020F80800201C0900205802002018
:10289000C4D0000884D10008C14B197807930929D6
:1028A00011AB00F3C8811A4606935B5C50180133E4
:1028B000DBB2092B53541AD9002900F0B281134618
:1028C00001390A44DDF81C90984603E0002900F025
:1028D000A48101390670137810460133DBB2092B4D
:1028E00002F80139F2D8CDF81C90CDF818800023F9
:1028F00099464FF0000B00239DF849201F46904653
:102900004FEA820A9DF847205B46164618EB0A00FC
:102910004FEA421249EB0B018246901B8B4663EB58
:1029200007010B4602464FEACA014FEACB0040EAD4
:102930005A708A46590241EAD2510B460021834619
:102940009DF84A00CDE90867560232460F46064612
:102950000021CDE90A67BAEB08066BEB0907B2461E
:10296000BB46DDE908674001B6185F41DDE90A238F
:10297000821A61EB0303CDE9022300239DF8452071
:10298000CDE90467CDE90E234FEA0B114FEA0A1394
:10299000059A9DF8440041EA1A719A46814B9701C5
:1029A000A0FB0323CDE90C23049A8B46964671467F
:1029B00047EA92677C4B0E9A8E01A2FB0323DDE966
:1029C0000C0180185941DDE90423B21A67EB0303B7
:1029D0001F46039B1646029A9B0043EA927392009D
:1029E000CDE90C0102929DF84600704A18EB0A08E6
:1029F000A0FB020149EB0B09C246CB46DDE90C897D
:102A000018EB0008404649EB010949460393DDE90C
:102A1000082392197B41CDE90423DDE90289DDE930
:102A20000A234FEA0B1C12EB080243EB09034CEAA2
:102A30001A7C4FEA0A17DDE904AB1AEB000A50468C
:102A40004BEB010BBA464FEAC30E59464EEA527E93
:102A50009DF84860564F7346A6FB07674FF0640E1B
:102A600080194FEAC2064FF00A02794110EB0A00C2
:102A700041EB0C0136189DF84D009DF84BC043EB1F
:102A80000107ECFB0E679DF84C300021E3FB026769
:102A9000012336184F41474ABB4208BFB2423CBFF0
:102AA0001F4616463CA3D3E900239F4208BF964227
:102AB00038BF1F4694F82F3038BF1646002B40F021
:102AC000918000233C48009332463B46E6612762F2
:102AD000FDF73EFE079B1D78EAE5384B1B7A002B7D
:102AE0003FF4CAAD2E4B1D78082D02D80135EDB24A
:102AF0001D7011AB0693DBE50026236AE2692E48C0
:102B0000009684F82F60FDF723FE94F82F30012BF8
:102B10007DD073D3022B5ED130460123284A062193
:102B200005F098FEA2E52B78092B02D0132B7FF439
:102B300091ADFFF749F98DE5194B197807930929EC
:102B400011AB78DC1A4606935B5C5018013BDBB294
:102B5000092B53547FF6CBAE002969D013460139B7
:102B600009260A44DDF81C90984602E000295BD053
:102B70000139067013781046013BDBB2092B02F8CD
:102B80000139F3D8AFE630460E4A062105F062FE61
:102B900060E500BFAFF3008058850C020000000024
:102BA0005802002000CA9A3B00E1F5058096980083
:102BB000A086010000AC4206380B0020040900206A
:102BC00084D1000870D10008304601231B4A062139
:102BD00005F040FE3EE530460123184A062105F087
:102BE00039FE43E500222B7884F82F20092B02D0F0
:102BF000132B7FF466AFFFF7E7F862E72B78092B1A
:102C000002D0132B7FF432ADFFF7DEF82EE530460D
:102C10000B4A062105F01EFE28E5CDF81C90CDF8E4
:102C200018800923037062E6CDF81C90CDF8188057
:102C3000002303705BE6069359E600BF98D10008B5
:102C400070D10008000000002DE9F04FCCA3D3E9BB
:102C50000023CF4CB1B0E568266928463146FDF720
:102C600077FAC7A3D3E900238DF8AC003146284694
:102C7000FDF76EFA16461F46C3A3D3E9002330467C
:102C80003946FDF765FAC0A3D3E900238DF8AD00FE
:102C900039463046FDF75CFA16461F46BD4A00230A
:102CA00030463946FDF754FA39468DF8AE00B94A38
:102CB00030460023FDF74CFA16461F46B64A00235D
:102CC00030463946FDF744FA39468DF8AF00B24A2E
:102CD00030460023FDF73CFA16461F46AF4A002354
:102CE00030463946FDF734FA39468DF8B000AB4A24
:102CF00030460023FDF72CFA16461F4642F21072AA
:102D0000002330463946FDF723FA39468DF8B100E5
:102D100042F2107230460023FDF71AFA16461F469B
:102D20004FF47A72002330463946FDF711FA3946DE
:102D30008DF8B2004FF47A7230460023FDF708FA9E
:102D400016461F466422002330463946FDF700FA36
:102D500039468DF8B300642230460023FDF7F8F9B8
:102D600016461F460A22002330463946FDF7F0F981
:102D700039468DF8B4000A2230460023FDF7E8F901
:102D80006569A66928468DF8B52031467CA3D3E94C
:102D90000023FDF7DDF97AA3D3E900238DF8B6000F
:102DA00031462846FDF7D4F916461F4676A3D3E9E7
:102DB000002330463946FDF7CBF973A3D3E900234E
:102DC0008DF8B70039463046FDF7C2F916461F4662
:102DD000704A002330463946FDF7BAF939468DF876
:102DE000B8006C4A30460023FDF7B2F916461F467C
:102DF000694A002330463946FDF7AAF939468DF86D
:102E0000B900654A30460023FDF7A2F916461F4671
:102E1000624A002330463946FDF79AF939468DF863
:102E2000BA005E4A30460023FDF792F916461F4667
:102E300042F21072002330463946FDF789F93946CF
:102E40008DF8BB0042F2107230460023FDF780F986
:102E500016461F464FF47A72002330463946FDF776
:102E600077F939468DF8BC004FF47A72304600236A
:102E7000FDF76EF916461F46642200233046394698
:102E8000FDF766F939468DF8BD006422304600230F
:102E9000FDF75EF916461F460A22002330463946E2
:102EA000FDF756F939468DF8BE000A223046002358
:102EB000FDF74EF900253A4E8DF8BF2037788DF892
:102EC000C050012F00F09C84364F3B7A03F0FF0581
:102ED0007BB3A36921696269E068994208BF9042A7
:102EE00080F0D882D4F80480D4F8089058EA090514
:102EF00000F0AD82121A63EB01035B084FEA320265
:102F00004B4508BF4245C0F0A2820922FB793270CE
:102F100003F0FF05002B40F0068594F82F30002BBE
:102F200040F02485FEF76AFEFEF792F931B0BDE865
:102F3000F08F1D4B1B7A002B00F05A821B4B197827
:102F40001893092940F2B082A1F10A02092A00F27D
:102F500055850DF1B60318461E4619939B5C164421
:102F60000133DBB28354092B2BA80D9039D9002AE9
:102F700000F013850346481E1844721C27E000BF6A
:102F800000CA9A3B0000000000E1F50500000000C7
:102F9000C40800208096980040420F00A0860100DF
:102FA00002000020100900202809002059020020FA
:102FB00090F800E007460EF1010E5FFA8EFEBEF1BA
:102FC000090F00F801E90CD9002B00F0E784A2F109
:102FD0000C030B449B1B092B02F8015C02F1FF322E
:102FE000E6DD00239DF8BB2099469046002700238C
:102FF000960018EB060049EB07019B463B460F463F
:1030000000219DF8B920CDE90689924606468946F9
:103010004FF0000C19469DF8B1005201CDE914ABF8
:10302000B2EB0A0A804663EB0B0B5B469DF8AFB030
:103030004FEAC70ECDE90ABCF5008B464EEA567E34
:103040002E4680000A9DCDE9108918EB00085246F3
:1030500049EB01094FEA451A40464946DDE90A892C
:10306000BAEB080877466BEB0909C246CB46DDE9A7
:103070000689B6EB08084FF000064FEA432545EAFB
:10308000D2552B469DF8BC5067EB09094FEA422CFC
:10309000CDE902896246A846B1460027CDE91689E6
:1030A000DDE9148918EB020849EB0309CDE904892D
:1030B000DDE916234FF000086E014FEAC10EB21A87
:1030C0004EEA507E4FF00006714667EB03039DF811
:1030D000B6704FEA4B25CDE91C78002745EADA5552
:1030E000AB469DF8B7504FEAC00CCDE91E56DDE95E
:1030F0001056BCEB050561EB0606B146CDE9082389
:10310000DDE90223160102969DF8B260A8461D0172
:1031100045EA12753B463246CDE91223059B4FEA3C
:103120004A2E9901049B0395980141EA9361DDE9D8
:103130000423821A61EB030310461946CDE92001EE
:10314000DDE908018200F2460892002200278B0088
:103150009DF8AC107601CDE91A12DDE90A1211EBE7
:103160000A0142EB0B02CDE90E12DDE902AB1C9A1B
:1031700043EA9073DDE91201301A67EB010117464B
:10318000CDE90401DDE9060110EB0A0041EB0B017A
:103190004FF0000BB64DB74A09931E9BCDE90601CF
:1031A000A7FB0201DDE91467A3FB05239DF8B8A086
:1031B0004FEA091ECDE91CAB10EB020A9DF8AD00E9
:1031C00041EB030B4FEA0811CDE902ABDDE920BC6E
:1031D0004EEA187E16EB0B068846DDE90EABA0FB27
:1031E00005015D4647EB0C07CDE91E671A9EAB0152
:1031F000374655469F4EAA01A7FB066716EB000B04
:1032000047EB010CDDE90E5643EA9A63551B63EB6D
:103210000606CDE90E56DDE90467B30004930023EA
:103220009DF8BA20BD00CDE914BC45EA96759DF81D
:10323000AE009149CDE91A23DDE90223DDE908ABAF
:103240001C9E0595A6FB016792197B4116461F46F9
:10325000DDE9162312EB0A02A0FB010143EB0B038D
:1032600092469B46DDE91E2392197B41DDE91067FA
:1032700016EB080647EB0E07CDE90267DDE9146798
:103280003618CDE908234F41B046DDE9065629013D
:10329000330143EA15730691DDE90E56DDE90A12A2
:1032A0006D18564129463246CDE90E12594607930C
:1032B000B9461A9B714FCE00A3FB0723DDE9080135
:1032C000801859415346CDE90A0100219DF8B0000C
:1032D000DB000893039B46EA5A76CDE91001DDE94D
:1032E00012ABDDE904011AEB000A4BEB010B1D01E7
:1032F000DDE90E2318EB020849EB0309DDE90212B0
:103300000B0145EA11750293DDE90601DDE90A23A7
:103310008018594102460B4610990996A1FB0701F6
:1033200018EB00084046DDE9087849EB0109BF18B1
:1033300048EB03083A4643464FF0640E4FEACB068B
:1033400003954FEACA0546EA5A76AA46DDE90278AD
:103350000A253F1848EB090838464146B3469DF810
:10336000BD704FF00009E7FB0E2301279DF8BE60FA
:103370009DF8BF80E6FB052310EB0A0041EB0B0133
:1033800012EB080243EB09033D4E9F4208BF9642F1
:1033900038BF3B464FF000079DF8B3809DF8B4C09E
:1033A000E8FB0E010FF2C009D9E90089ECFB050129
:1033B00038BF32469DF8B56094F82F508019794196
:1033C000494508BF40453CBF40464946E060681E4D
:1033D000012821616261A36140F251820021236AC8
:1033E000E26928480091FDF7B3F9189B1D788DE03C
:1033F000254B1B7A002B78D0244B19781893092978
:1034000000F255822BAB18461A460D935B5C0844BC
:10341000013BDBB2092B535415D9002900F0CE82B1
:103420000D9B4A1E09251A4402E0002900F0C682BD
:10343000057013781046013BDBB2092B01F1FF3117
:1034400002F80139F1D80DF1B6031993C9E5104A14
:103450000621002004F022FFFDF7FAFE31B0BDE89E
:10346000F08F00BFAFF3008058850C020000000011
:1034700000E1F50500CA9A3B80969800A0860100FD
:1034800000AC4206380B0020F8080020590200204A
:103490003CD40008D24A0621002004F0FFFEFDF7CC
:1034A000D7FE31B0BDE8F08F2BAB18461A460D930E
:1034B0005B5C08440133DBB2092B5354C3D90029A8
:1034C00000F070820D9B4A1E1A4402E0002900F0B1
:1034D00069820570137810460133DBB2092B01F1C4
:1034E000FF3102F80139F1D8ADE7BE4B1B7A002B52
:1034F00000F0D081BC4B1D78189315B1013DEDB2A1
:103500001D702BAB0D930DF1B6031993E668276977
:103510003046AFA3D3E900233946FCF719FEACA32C
:10352000D3E900238DF8AC0039463046FCF710FE95
:1035300016461F46A8A3D3E9002330463946FCF7B8
:1035400007FEA5A3D3E900238DF8AD003946304628
:10355000FCF7FEFD16461F46A44A002330463946B6
:10356000FCF7F6FD39468DF8AE00A04A3046002340
:10357000FCF7EEFD16461F469D4A002330463946AD
:10358000FCF7E6FD39468DF8AF00994A3046002336
:10359000FCF7DEFD16461F46964A002330463946A4
:1035A000FCF7D6FD39468DF8B000924A304600232C
:1035B000FCF7CEFD16461F4642F21072002330463D
:1035C0003946FCF7C5FD39468DF8B10042F210725C
:1035D00030460023FCF7BCFD16461F464FF47A72B6
:1035E000002330463946FCF7B3FD39468DF8B2006A
:1035F0004FF47A7230460023FCF7AAFD16461F46A8
:103600006422002330463946FCF7A2FD39468DF886
:10361000B300642230460023FCF79AFD16461F468D
:103620000A22002330463946FCF792FD39468DF8D0
:10363000B4000A2230460023FCF78AFD6669A469BB
:1036400030468DF8B520214661A3D3E90023FCF76D
:103650007FFD5FA3D3E900238DF8B60021463046F5
:10366000FCF776FD16461F465BA3D3E900233046E0
:103670003946FCF76DFD58A3D3E900238DF8B70058
:1036800039463046FCF764FD16461F46574A00236C
:1036900030463946FCF75CFD39468DF8B800534A90
:1036A00030460023FCF754FD16461F46504A0023BF
:1036B00030463946FCF74CFD39468DF8B9004C4A86
:1036C00030460023FCF744FD16461F46494A0023B6
:1036D00030463946FCF73CFD39468DF8BA00454A7C
:1036E00030460023FCF734FD16461F4642F21072A6
:1036F000002330463946FCF72BFD39468DF8BB00D8
:1037000042F2107230460023FCF722FD16461F4697
:103710004FF47A72002330463946FCF719FD3946DA
:103720008DF8BC004FF47A7230460023FCF710FD90
:1037300016461F466422002330463946FCF708FD32
:1037400039468DF8BD00642230460023FCF700FDA9
:1037500016461F460A22002330463946FCF7F8FC7D
:1037600039468DF8BE000A2230460023FCF7F0FCF3
:10377000002630AC8DF8BF2004F834695F232A4658
:103780000D982146FEF7D4FA30461B4A022104F078
:1037900085FD22460221182004F080FD189B19980F
:1037A0001A7827A90A3A5F23D2B2FEF7C1FA304647
:1037B000124A042104F072FD27AA0421182004F003
:1037C0006DFDFDF745FD31B0BDE8F08FAFF3008032
:1037D00000CA9A3B0000000000E1F505000000006F
:1037E00028D400081C090020590200208096980067
:1037F00040420F00A086010020D4000824D4000815
:103800000B23DFF81C82337003F072FD7D4A2946DA
:10381000284604F0FBFE5F2398F8002023A92BA87C
:10382000FEF786FA784A0221284604F037FD23AADB
:103830000221182004F032FD98F800205F230A3A94
:10384000D2B227A90DF1B600FEF772FA6F4A042131
:10385000284604F023FD27AA0421182004F01EFDA9
:1038600094F82F30012B7AD06FD3022B53D13B46E3
:103870002846674A062104F0EDFFFFF725BB00222A
:10388000644B0092D3E900236348FCF761FF189B67
:103890001D783BE6614B1B7A002B3FF4DFAD604B9C
:1038A0001D781893122D3FF62CAE013527E6A1F1B5
:1038B0000A02092A00F2A2800DF1B60318461D463D
:1038C00019939B5C1544013BDBB28354092B2BA855
:1038D0000D907FF686AB002A6BD00346481E092662
:1038E00018446A1C0BE002780746013AD2B2092A52
:1038F00000F801297FF675AB7246002B5AD0A2F171
:103900000C030B445B1B092B02F8016C02F1FF3E18
:10391000E9DDFFF766BB3B462846424A062104F034
:1039200099FFFFF7D1BA002301253F4E394A338072
:10393000C2E900013D4E3848337000930CCA84F848
:103940002F50FCF705FFFFF7EDBA3378092B02D0B3
:10395000132B7FF4B9AAFEF737FAFFF7B5BA28465A
:10396000334A062104F076FFFFF7AEBA236AE26914
:103970002948009584F82F50FCF7EAFE94F82F3080
:10398000012B34D029D3022B1FD128460123204AF2
:10399000062104F05FFFFFF7C5BA374609233B70E5
:1039A000FFF71FBB09230DF1B60219920370FFF751
:1039B00018BB2F4600233B70FFF713BB00230DF10C
:1039C000B60219920370FFF70CBB28460123154A73
:1039D000062104F03FFFFFF7A5BA3378092B02D088
:1039E000132B7FF49FAAFEF7EFF9FFF79BBA284647
:1039F0000F4A062104F02EFFFFF794BA2BAB0D936C
:103A000021E500BF10D4000820D4000824D4000809
:103A100084D1000868020020380B0020040900202F
:103A20005902002098D10008600200207002002096
:103A300070D10008000000002DE9F04FCCA3D3E9BD
:103A40000023CF4CB1B0E568266928463146FCF723
:103A50007FFBC7A3D3E900238DF8AC00314628468D
:103A6000FCF776FB16461F46C3A3D3E90023304676
:103A70003946FCF76DFBC0A3D3E900238DF8AD00F8
:103A800039463046FCF764FB16461F46BD4A002304
:103A900030463946FCF75CFB39468DF8AE00B94A32
:103AA00030460023FCF754FB16461F46B64A002357
:103AB00030463946FCF74CFB39468DF8AF00B24A28
:103AC00030460023FCF744FB16461F46AF4A00234E
:103AD00030463946FCF73CFB39468DF8B000AB4A1E
:103AE00030460023FCF734FB16461F4642F21072A4
:103AF000002330463946FCF72BFB39468DF8B100E0
:103B000042F2107230460023FCF722FB16461F4695
:103B10004FF47A72002330463946FCF719FB3946D8
:103B20008DF8B2004FF47A7230460023FCF710FB98
:103B300016461F466422002330463946FCF708FB30
:103B400039468DF8B300642230460023FCF700FBB1
:103B500016461F460A22002330463946FCF7F8FA7B
:103B600039468DF8B4000A2230460023FCF7F0FAFB
:103B70006569A66928468DF8B52031467CA3D3E94E
:103B80000023FCF7E5FA7AA3D3E900238DF8B60009
:103B900031462846FCF7DCFA16461F4676A3D3E9E1
:103BA000002330463946FCF7D3FA73A3D3E9002348
:103BB0008DF8B70039463046FCF7CAFA16461F465C
:103BC000704A002330463946FCF7C2FA39468DF870
:103BD000B8006C4A30460023FCF7BAFA16461F4676
:103BE000694A002330463946FCF7B2FA39468DF867
:103BF000B900654A30460023FCF7AAFA16461F466C
:103C0000624A002330463946FCF7A2FA39468DF85D
:103C1000BA005E4A30460023FCF79AFA16461F4661
:103C200042F21072002330463946FCF791FA3946C9
:103C30008DF8BB0042F2107230460023FCF788FA80
:103C400016461F464FF47A72002330463946FCF779
:103C50007FFA39468DF8BC004FF47A723046002363
:103C6000FCF776FA16461F46642200233046394692
:103C7000FCF76EFA39468DF8BD0064223046002309
:103C8000FCF766FA16461F460A22002330463946DC
:103C9000FCF75EFA39468DF8BE000A223046002352
:103CA000FCF756FA00253A4E8DF8BF2037788DF88C
:103CB000C050022F00F09C84364F3B7A03F0FF0582
:103CC0007BB3A36921696269E068994208BF9042A9
:103CD00080F0D882D4F80480D4F8089058EA090516
:103CE00000F0AD82121A63EB01035B084FEA320267
:103CF0004B4508BF4245C0F0A2820922FB793270D1
:103D000003F0FF05002B40F0068594F82F30002BC0
:103D100040F02485FDF772FFFDF79AFA31B0BDE857
:103D2000F08F1D4B1B7A002B00F05A821B4B197829
:103D30001893092940F2B082A1F10A02092A00F27F
:103D400055850DF1B60318461E4619939B5C164423
:103D50000133DBB28354092B2BA80D9039D9002AEB
:103D600000F013850346481E1844721C27E000BF6C
:103D700000CA9A3B0000000000E1F50500000000C9
:103D8000C40800208096980040420F00A0860100E1
:103D90000200002010090020280900205A020020FB
:103DA00090F800E007460EF1010E5FFA8EFEBEF1BC
:103DB000090F00F801E90CD9002B00F0E784A2F10B
:103DC0000C030B449B1B092B02F8015C02F1FF3230
:103DD000E6DD00239DF8BB2099469046002700238E
:103DE000960018EB060049EB07019B463B460F4641
:103DF00000219DF8B920CDE90689924606468946FC
:103E00004FF0000C19469DF8B1005201CDE914ABFA
:103E1000B2EB0A0A804663EB0B0B5B469DF8AFB032
:103E20004FEAC70ECDE90ABCF5008B464EEA567E36
:103E30002E4680000A9DCDE9108918EB00085246F5
:103E400049EB01094FEA451A40464946DDE90A892E
:103E5000BAEB080877466BEB0909C246CB46DDE9A9
:103E60000689B6EB08084FF000064FEA432545EAFD
:103E7000D2552B469DF8BC5067EB09094FEA422CFE
:103E8000CDE902896246A846B1460027CDE91689E8
:103E9000DDE9148918EB020849EB0309CDE904892F
:103EA000DDE916234FF000086E014FEAC10EB21A89
:103EB0004EEA507E4FF00006714667EB03039DF813
:103EC000B6704FEA4B25CDE91C78002745EADA5554
:103ED000AB469DF8B7504FEAC00CCDE91E56DDE960
:103EE0001056BCEB050561EB0606B146CDE908238B
:103EF000DDE90223160102969DF8B260A8461D0175
:103F000045EA12753B463246CDE91223059B4FEA3E
:103F10004A2E9901049B0395980141EA9361DDE9DA
:103F20000423821A61EB030310461946CDE92001F0
:103F3000DDE908018200F2460892002200278B008A
:103F40009DF8AC107601CDE91A12DDE90A1211EBE9
:103F50000A0142EB0B02CDE90E12DDE902AB1C9A1D
:103F600043EA9073DDE91201301A67EB010117464D
:103F7000CDE90401DDE9060110EB0A0041EB0B017C
:103F80004FF0000BB64DB74A09931E9BCDE90601D1
:103F9000A7FB0201DDE91467A3FB05239DF8B8A088
:103FA0004FEA091ECDE91CAB10EB020A9DF8AD00EB
:103FB00041EB030B4FEA0811CDE902ABDDE920BC70
:103FC0004EEA187E16EB0B068846DDE90EABA0FB29
:103FD00005015D4647EB0C07CDE91E671A9EAB0154
:103FE000374655469F4EAA01A7FB066716EB000B06
:103FF00047EB010CDDE90E5643EA9A63551B63EB70
:104000000606CDE90E56DDE90467B30004930023EC
:104010009DF8BA20BD00CDE914BC45EA96759DF81F
:10402000AE009149CDE91A23DDE90223DDE908ABB1
:104030001C9E0595A6FB016792197B4116461F46FB
:10404000DDE9162312EB0A02A0FB010143EB0B038F
:1040500092469B46DDE91E2392197B41DDE91067FC
:1040600016EB080647EB0E07CDE90267DDE914679A
:104070003618CDE908234F41B046DDE9065629013F
:10408000330143EA15730691DDE90E56DDE90A12A4
:104090006D18564129463246CDE90E12594607930E
:1040A000B9461A9B714FCE00A3FB0723DDE9080137
:1040B000801859415346CDE90A0100219DF8B0000E
:1040C000DB000893039B46EA5A76CDE91001DDE94F
:1040D00012ABDDE904011AEB000A4BEB010B1D01E9
:1040E000DDE90E2318EB020849EB0309DDE90212B2
:1040F0000B0145EA11750293DDE90601DDE90A23AA
:104100008018594102460B4610990996A1FB0701F8
:1041100018EB00084046DDE9087849EB0109BF18B3
:1041200048EB03083A4643464FF0640E4FEACB068D
:1041300003954FEACA0546EA5A76AA46DDE90278AF
:104140000A253F1848EB090838464146B3469DF812
:10415000BD704FF00009E7FB0E2301279DF8BE60FC
:104160009DF8BF80E6FB052310EB0A0041EB0B0135
:1041700012EB080243EB09033D4E9F4208BF9642F3
:1041800038BF3B464FF000079DF8B3809DF8B4C0A0
:10419000E8FB0E010FF2C009D9E90089ECFB05012B
:1041A00038BF32469DF8B56094F82F508019794198
:1041B000494508BF40453CBF40464946E060681E4F
:1041C000012821616261A36140F251820021236ACA
:1041D000E26928480091FCF7BBFA189B1D788DE036
:1041E000254B1B7A002B78D0244B1978189309297A
:1041F00000F255822BAB18461A460D935B5C0844BF
:10420000013BDBB2092B535415D9002900F0CE82B3
:104210000D9B4A1E09251A4402E0002900F0C682BF
:10422000057013781046013BDBB2092B01F1FF3119
:1042300002F80139F1D80DF1B6031993C9E5104A16
:104240000621002004F02AF8FDF702F831B0BDE89D
:10425000F08F00BFAFF3008058850C020000000013
:1042600000E1F50500CA9A3B80969800A0860100FF
:1042700000AC4206380B0020F80800205A0200204B
:104280003CD40008D24A0621002004F007F8FCF7CD
:10429000DFFF31B0BDE8F08F2BAB18461A460D9307
:1042A0005B5C08440133DBB2092B5354C3D90029AA
:1042B00000F070820D9B4A1E1A4402E0002900F0B3
:1042C00069820570137810460133DBB2092B01F1C6
:1042D000FF3102F80139F1D8ADE7BE4B1B7A002B54
:1042E00000F0D081BC4B1D78189315B1013DEDB2A3
:1042F0001D702BAB0D930DF1B6031993E66827697A
:104300003046AFA3D3E900233946FBF721FFACA326
:10431000D3E900238DF8AC0039463046FBF718FF8F
:1043200016461F46A8A3D3E9002330463946FBF7BB
:104330000FFFA5A3D3E900238DF8AD003946304621
:10434000FBF706FF16461F46A44A002330463946AF
:10435000FBF7FEFE39468DF8AE00A04A304600233A
:10436000FBF7F6FE16461F469D4A002330463946A7
:10437000FBF7EEFE39468DF8AF00994A3046002330
:10438000FBF7E6FE16461F46964A0023304639469E
:10439000FBF7DEFE39468DF8B000924A3046002326
:1043A000FBF7D6FE16461F4642F210720023304637
:1043B0003946FBF7CDFE39468DF8B10042F2107256
:1043C00030460023FBF7C4FE16461F464FF47A72B0
:1043D000002330463946FBF7BBFE39468DF8B20064
:1043E0004FF47A7230460023FBF7B2FE16461F46A2
:1043F0006422002330463946FBF7AAFE39468DF881
:10440000B300642230460023FBF7A2FE16461F4687
:104410000A22002330463946FBF79AFE39468DF8CA
:10442000B4000A2230460023FBF792FE6669A469B5
:1044300030468DF8B520214661A3D3E90023FBF770
:1044400087FE5FA3D3E900238DF8B60021463046EE
:10445000FBF77EFE16461F465BA3D3E900233046DA
:104460003946FBF775FE58A3D3E900238DF8B70052
:1044700039463046FBF76CFE16461F46574A002366
:1044800030463946FBF764FE39468DF8B800534A8A
:1044900030460023FBF75CFE16461F46504A0023B9
:1044A00030463946FBF754FE39468DF8B9004C4A80
:1044B00030460023FBF74CFE16461F46494A0023B0
:1044C00030463946FBF744FE39468DF8BA00454A76
:1044D00030460023FBF73CFE16461F4642F21072A0
:1044E000002330463946FBF733FE39468DF8BB00D2
:1044F00042F2107230460023FBF72AFE16461F4692
:104500004FF47A72002330463946FBF721FE3946D4
:104510008DF8BC004FF47A7230460023FBF718FE8A
:1045200016461F466422002330463946FBF710FE2C
:1045300039468DF8BD00642230460023FBF708FEA3
:1045400016461F460A22002330463946FBF700FE76
:1045500039468DF8BE000A2230460023FBF7F8FDED
:10456000002630AC8DF8BF2004F834695F232A465A
:104570000D982146FDF7DCFB30461B4A022103F073
:104580008DFE22460221182003F088FE189B199800
:104590001A7827A90A3A5F23D2B2FDF7C9FB304641
:1045A000124A042103F07AFE27AA0421182003F0FE
:1045B00075FEFCF74DFE31B0BDE8F08FAFF3008023
:1045C00000CA9A3B0000000000E1F5050000000071
:1045D00028D400081C0900205A0200208096980068
:1045E00040420F00A086010020D4000824D4000817
:1045F0000C23DFF81C82337002F07AFE7D4A2946D4
:10460000284604F003F85F2398F8002023A92BA87C
:10461000FDF78EFB784A3946284603F03FFE23AA71
:104620003946182003F03AFE98F800205F230A3A32
:10463000D2B227A90DF1B600FDF77AFB6F4A04212B
:10464000284603F02BFE27AA0421182003F026FE9B
:1046500094F82F30012B7AD06FD3022B53D12846F8
:104660000123674A062104F0F5F8FFF725BB002275
:10467000644B0092D3E900236348FCF769F8189B68
:104680001D783BE6614B1B7A002B3FF4DFAD604B9E
:104690001D781893122D3FF62CAE013527E6A1F1B7
:1046A0000A02092A00F2A2800DF1B60318461D463F
:1046B00019939B5C1544013BDBB28354092B2BA857
:1046C0000D907FF686AB002A6BD00346481E092664
:1046D00018446A1C0BE002780746013AD2B2092A54
:1046E00000F801297FF675AB7246002B5AD0A2F173
:1046F0000C030B445B1B092B02F8016C02F1FF3E1B
:10470000E9DDFFF766BB28460123424A062104F093
:10471000A1F8FFF7D1BA002302253F4E394A338072
:10472000C2E900013D4E3848337000930CCA84F84A
:104730002F50FCF70DF8FFF7EDBA3378092B02D0B4
:10474000132B7FF4B9AAFDF73FFBFFF7B5BA284654
:10475000334A062104F07EF8FFF7AEBA236AE26915
:104760002948009584F82F50FBF7F2FF94F82F307A
:10477000012B34D029D3022B1FD128460123204AF4
:10478000062104F067F8FFF7C5BA374609233B70E6
:10479000FFF71FBB09230DF1B60219920370FFF753
:1047A00018BB2F4600233B70FFF713BB00230DF10E
:1047B000B60219920370FFF70CBB28460123154A75
:1047C000062104F047F8FFF7A5BA3378092B02D089
:1047D000132B7FF49FAAFDF7F7FAFFF79BBA284641
:1047E0000F4A062104F036F8FFF794BA2BAB0D936D
:1047F00021E500BFD4D0000820D4000824D400084C
:1048000084D1000868020020380B00200409002031
:104810005A02002098D10008600200207002002097
:1048200070D10008000000002DE9F04F6CA3D3E91F
:1048300000236F4C9BB0A668656831462846FBF79D
:1048400087FC67A3D3E900238DF84C003146284646
:10485000FBF77EFC16461F4663A3D3E900233046D0
:104860003946FBF775FC60A3D3E900238DF84D00B2
:1048700039463046FBF76CFC16461F465D4A00235E
:1048800030463946FBF764FC39468DF84E00594AEC
:1048900030460023FBF75CFC16461F46564A0023B1
:1048A00030463946FBF754FC39468DF84F00524AE2
:1048B00030460023FBF74CFC16461F464F4A0023A8
:1048C00030463946FBF744FC39468DF850004B4AD8
:1048D00030460023FBF73CFC16461F4642F210729E
:1048E000002330463946FBF733FC39468DF851003A
:1048F00042F2107230460023FBF72AFC16461F4690
:104900004FF47A72002330463946FBF721FC3946D2
:104910008DF852004FF47A7230460023FBF718FCF2
:1049200016461F466422002330463946FBF710FC2A
:1049300039468DF85300642230460023FBF708FC0B
:1049400016461F460A22002330463946FBF700FC74
:104950000A228DF85400002330463946FBF7F8FB55
:104960000025DFF8B0908DF8552099F800608DF89B
:104970005650032E00F06282214B1B7A03F0FF0693
:10498000002B40F0F7811F4B1B7A83B91E4B1B7A1B
:10499000002B40F009821D4B1B7A002B00F0F481A4
:1049A0001B4B1D78002D00F02C82013DF5E1184BCA
:1049B0000DF14C081D781193092D29463ADC18F8A1
:1049C000053008EB05000133DBB2092B08F8053090
:1049D00030D9002D00F07E826A1E42441FE000BFE5
:1049E00000CA9A3B0000000000E1F505000000004D
:1049F000C40800208096980040420F00A086010065
:104A00001009002028090020F80800201C090020B7
:104A10005B02002002000020002900F05B8206708B
:104A2000137810460133DBB2092B01F1FF3102F894
:104A30000139F1D800239DF851204FF0000BCDE94A
:104A40000623DDE9060100234FEA820A9DF84F2084
:104A50001F4616465B4610EB0A004FEA421282469A
:104A600041EB0B01901B8B4663EB070102460B46A3
:104A7000CDE9086700274FEACB004FEACA0140EAB8
:104A80005A7056028A46590241EAD25132469DF87E
:104A9000526083460B46304639460027CDE90A016D
:104AA000DDE90601BAEB00006BEB010182468B46A3
:104AB000DDE908018018594100237601CDE90401A0
:104AC000DDE90A12711A67EB0202CDE902129DF8C4
:104AD0004C204FEA0B1E10469DF84D204EEA1A7EE0
:104AE000CDE90C234FEA0A139A46F346059ACC4BBC
:104AF0009701A0FB03010C9ACA4BCDE90E01A2FB62
:104B00000323049947EA91678E01DDE90E018018BD
:104B10005941CDE90C01DDE90401301A67EB0101CF
:104B2000DDE90267B200CDE90E0102929DF84E0068
:104B3000BD4ABB00A0FB020143EA9673DDE90667AC
:104B400016EB0A0647EB0B070393DDE90C2312185B
:104B50004B41CDE90423DDE90823DDE90E0180188E
:104B60005941B246BB46DDE90A6702460B46DDE91C
:104B70000201CDE9062336184FEA0A134FEA0B1C4F
:104B80004F414CEA1A7CDDE90401DDE906AB9DF8F2
:104B9000502010EB0A009A46A44B41EB0B01A2FBFC
:104BA000032312184B414FEAC70EF1004EEA567E1E
:104BB0000E46642112EB0A0243EB0C0392194FF0EC
:104BC0000A064FF0000B9DF8537043EB0E03E7FB12
:104BD00001239DF854009DF855A0E0FB062312EB3D
:104BE0000A0243EB0B03002B08BFFA2AC0F0068130
:104BF0006069E668A1692769861B61EB07077F0882
:104C00004FEA3606BB4208BFB24201D216461F46E3
:104C100094F82F30002B40F035816660A7607CA3AC
:104C2000D3E9002330463946FBF792FA78A3D3E95B
:104C300000238DF84C0039463046FBF789FA1646BA
:104C40001F4675A3D3E9002330463946FBF780FAA7
:104C500071A3D3E900238DF84D0039463046FBF7A8
:104C600077FA16461F46704A002330463946FBF74E
:104C70006FFA39468DF84E006B4A30460023FBF739
:104C800067FA16461F466A4A002330463946FBF744
:104C90005FFA39468DF84F00654A30460023FBF72E
:104CA00057FA16461F46614A002330463946FBF73D
:104CB0004FFA39468DF850005C4A30460023FBF726
:104CC00047FA16461F4642F2107200233046394614
:104CD000FBF73EFA39468DF8510042F21072304629
:104CE0000023FBF735FA16461F464FF47A7200236D
:104CF00030463946FBF72CFA39468DF852004FF40E
:104D00007A7230460023FBF723FA16461F466422C8
:104D1000002330463946FBF71BFA39468DF853001D
:104D2000642230460023FBF713FA16461F460A2278
:104D3000002330463946FBF70BFA39468DF854000C
:104D40000A2230460023FBF703FA00245F238DF884
:104D5000552040462A4616A98DF85640FCF7E8FF34
:104D600016AA0321102003F099FAFCF771FA1BB080
:104D7000BDE8F08FFCF742FFFCF76AFA092389F8D7
:104D800000301BB0BDE8F08F2A4B1B7A002BF8D007
:104D9000294B1D78082D34D80135EDB21D70666899
:104DA000A7680DF14C083AE7234B0DF14C081D782C
:104DB0001193092D29463FF73DAE18F8053008EB51
:104DC0000500013BDBB2092B08F805307FF632AE57
:104DD000002D00F092806A1E0926424402E000295C
:104DE00000F08B80067013781046013BDBB2092B74
:104DF00001F1FF3102F80139F1D81BE6FA2600274C
:104E000006E766680DF14C08A76808E7AFF3008075
:104E100000CA9A3B0000000000E1F5050000000018
:104E200000CA9A3B00E1F50580969800A086010033
:104E300040420F00040900205B0200200D2389F886
:104E4000003002F055FA384A2946284603F0DEFBC6
:104E5000364B16A91A7813A85F23FCF769FF16AA28
:104E60003146102003F01AFA94F82F30012B3ED06F
:104E700033D3022B1FD1284601232D4A062103F0EC
:104E8000E9FC79E50025236AE2692A48009584F85F
:104E90002F50FBF75DFC94F82F30012B12D038D344
:104EA000022B2DD128460123214A062103F0D2FCF2
:104EB000119B1D78B1E6284601231F4A062103F005
:104EC000C9FC59E528461D4A062103F0C3FC119B85
:104ED0001D78A2E609230370ACE599F80030092B90
:104EE00002D0132B7FF448ADFCF76EFF44E5284653
:104EF000124A062103F0AEFC3EE50023037099E55B
:104F0000284601230C4A062103F0A4FC119B1D78BE
:104F100083E699F80030092B01D0132BF6D1FCF76A
:104F200053FF119B1D7878E6FCD300085B0200203C
:104F300084D10008380B002098D1000870D10008F7
:104F40002DE9F0430027BE4D85B0AE8D4FF47A7247
:104F5000B6B2002330463946FBF7FAF83946C4B2F8
:104F60004FF47A72304600238DF80040FBF7F0F8DA
:104F700016461F466422002330463946FBF7E8F800
:104F800039465FFA80F96422304600238DF801909B
:104F9000FBF7DEF81F46164600230A223946304644
:104FA000FBF7D6F839468DF802000A220023304676
:104FB000FBF7CEF84FF00008A24F8DF803203B78A6
:104FC0008DF80480042B00F04B819F4B1B7A03F07B
:104FD000FF06002B40F0BD809C4B1B7AEBB99C4B2D
:104FE0001B7A002B40F0CA809A4B1B7A002B00F0F2
:104FF000B980994BB5F82C801C78002C00F0FB8010
:10500000013C4FF000091FFA88F8E4B21C704046DA
:1050100049464FF47A720023F6E08F4B1C78032C3C
:105020001DDC1DF804300DEB04000133DBB2092B4D
:105030000DF8043013D9002C00F06581611E0DEBD2
:10504000010203E0002900F05E8101390670137847
:1050500010460133DBB2092B02F80139F2D80021E6
:1050600000239DF800009DF801E04201121A63EB55
:1050700001039E00970046EA92763A1846EB010338
:10508000D90041EA5271D000024664260B460A2735
:10509000E6FB0E239DF802609DF80300E6FB072364
:1050A0008618002E40F090804FF001084FF0000964
:1050B0000127AF8564220023404649468DF80060F1
:1050C000FBF746F84946C5B26422404600238DF8F6
:1050D0000150FBF73DF8904699460A2200234046CE
:1050E0004946FBF735F80A228DF8020000234046B6
:1050F0004946FBF72DF88DF80320002E00F0918033
:1051000030368DF8046030359DF802308DF805504A
:1051100003F13002D2B26D25732000219DF80330D7
:105120008DF8062030338DF807308DF8090001AB7B
:105130008DF80A108DF808501D5D1A46803D032138
:1051400018201D5503F0AAF8FCF782F805B0BDE859
:10515000F08309233B70FCF751FDFCF779F805B0AB
:10516000BDE8F0833D4B1B7A002BF8D03A4BB5F8E5
:105170002C801C78022C3ED8013442E7364B1C7838
:10518000032C3FF76CAF1DF804300DEB0400013B1E
:10519000DBB2092B0DF804307FF661AF002C00F074
:1051A000C480611E09260DEB010203E0002900F016
:1051B000BC800139067013781046013BDBB2092B25
:1051C00002F80139F2D84AE74FF000091FFA86F8D1
:1051D0004FF47A72002340464946FAF7B9FFB7B256
:1051E00049464FF47A720023C6B24046FAF7B0FF40
:1051F000904699465DE74FF000091FFA88F84FF492
:105200007A72002340464946FAF7A2FF49464FF416
:105210007A720023C6B24046FAF79AFF9046994642
:1052200048E75F228DF80420002D7FF46CAF9DF8D5
:1052300002308DF80520002B3FF46DAF68E700BF0A
:10524000C4080020020000201009002028090020C6
:10525000F80800201C0900205C020020040900203E
:105260000E233B7002F044F8314A4146404603F0B9
:10527000CDF9304B1E7894B330348DF8044009F1E9
:1052800030099DF802308DF8059003F13002D2B25A
:105290006D20732100249DF803308DF806203033F3
:1052A0008DF807308DF8091001AB8DF808008DF8E6
:1052B0000A40985D1A46803898550321182002F05C
:1052C000EDFF95F82F30012B29D01FD3022B13D1DE
:1052D00020460123184A062103F0BCFA75E65F2236
:1052E0008DF80420B9F1000FC9D19DF802308DF876
:1052F0000520002BCCD0C8E7204601230F4A062109
:1053000003F0A8FA61E609230370A8E63B78092BAD
:1053100002D0132B7FF459AEFCF756FD55E620461C
:10532000074A062103F096FA4FE60023037096E63B
:10533000F0D300085C02002084D1000898D1000856
:1053400070D1000870B5614E614D337882B0052B85
:1053500095F82E4069D05F4B1B7AB3B95E4B1B7A30
:1053600063B1032C01D80134E4B285F82E40042C3B
:105370001CD8DFE804F014524A423A00574B1B7A1B
:105380004BB154B1013CE4B2EFE7FCF737FCFBF75B
:105390005FFF0923337002B070BD85F82E40504A7C
:1053A0000321182003F032F995F82E4095F82F309C
:1053B0004C48013B012B80F82B404FF0000109D9EC
:1053C000EA692B6A0091FBF7C3F902B0BDE87040AF
:1053D000FBF73EBF444BD3E900230091FBF7B8F93C
:1053E00002B0BDE87040FBF733BF404A03211820EC
:1053F00003F00CF995F82E40D8E73D4A0321182018
:1054000003F004F995F82E40D0E73A4A032118201A
:1054100003F0FCF895F82E40C8E7374A032118201E
:1054200003F0F4F895F82E40C0E70F23337001F035
:105430005FFF0021314A084603F0E8F8042C09D840
:10544000DFE804F02F29231D0300284A0321182038
:1054500003F0DCF895F82F30012B31D027D3022B45
:1054600006D10123264A0621002003F0F3F972E752
:105470000123244A0621002003F0ECF96BE71C4AC3
:105480000321182003F0C2F8E4E71A4A0321182088
:1054900003F0BCF8DEE7184A0321182003F0B6F841
:1054A000D8E70F4A0321182003F0B0F8D2E7337889
:1054B000092B02D0132B7FF44EAFFCF785FC4AE793
:1054C000114A0621002003F0C5F944E7020000203C
:1054D000C40800201009002028090020F808002036
:1054E000F0D10008380B00206802002010D200081C
:1054F00008D2000800D20008F8D1000840D1000806
:1055000084D1000898D1000870D100080000000084
:105510002DE9F04FE0A3D3E900230026E24DE34F4D
:1055200095F830408BB04FEA440B0BEB040057F872
:10553000208031464046FAF70BFED7A3D3E900237B
:105540008DF80C0031464046FAF702FE9046994627
:10555000D3A3D3E9002340464946FAF7F9FDD0A387
:10556000D3E900238DF80D0049464046FAF7F0FDD7
:1055700090469946CE4A002340464946FAF7E8FD50
:1055800049468DF80E00CA4A40460023FAF7E0FD6E
:1055900090469946C74A002340464946FAF7D8FD47
:1055A00049468DF80F00C34A40460023FAF7D0FD64
:1055B00090469946C04A002340464946FAF7C8FD3E
:1055C00049468DF81000BC4A40460023FAF7C0FD5A
:1055D0009046994642F21072002340464946FAF737
:1055E000B7FD49468DF8110042F210724046002383
:1055F000FAF7AEFD904699464FF47A720023404682
:105600004946FAF7A5FD49468DF812004FF47A7223
:1056100040460023FAF79CFD9046994664220023F9
:1056200040464946FAF794FD49468DF81300642236
:1056300040460023FAF78CFD904699460A22002343
:1056400040464946FAF784FD0A228DF814000023EB
:1056500040464946FAF77CFDDFF86CA28DF815202C
:105660009AF800308DF81660062B00F06781934B96
:105670001B7A002B40F03581914B1B7A03F0FF021F
:10568000002B00F02381242C40F23581A3444FEA03
:105690008B0B07EB0B0357F80B101E79DF881A7A78
:1056A00095F82F308748013B012B85F8304069621F
:1056B000816007838676C27640F238810021EA69EC
:1056C0002B6A0091FBF744F873A3D3E9002300266B
:1056D0006D6A31462846FAF73BFD6FA3D3E90023F4
:1056E0000446314628468DF80C40FAF731FD9046C5
:1056F00099466BA3D3E9002340464946FAF728FDB3
:1057000067A3D3E900238DF80D0049464046FAF718
:105710001FFD90469946664A002340464946FAF7DF
:1057200017FD49468DF80E00614A40460023FAF7FE
:105730000FFD904699465F4A002340464946FAF7D6
:1057400007FD49468DF80F005A4A40460023FAF7F4
:10575000FFFC90469946584A002340464946FAF7CE
:10576000F7FC49468DF81000534A40460023FAF7EB
:10577000EFFC9046994642F210720023404649469B
:10578000FAF7E6FC49468DF8110042F210724046E5
:105790000023FAF7DDFC904699464FF47A72002315
:1057A00040464946FAF7D4FC49468DF812004FF4BA
:1057B0007A7240460023FAF7CBFC90469946642261
:1057C000002340464946FAF7C3FC49468DF81300CA
:1057D000642240460023FAF7BBFC904699460A2211
:1057E000002340464946FAF7B3FC0A228DF814001C
:1057F000002340464946FAF7ABFCE4B28DF8166048
:105800008DF81520002C00F0818004F130009DF807
:105810000D308DF8180030338DF819309DF80E30AA
:105820003033DCB24FF02E0E202700269DF80F30CB
:105830009DF8112030339DF812109DF813009DF84B
:1058400010508DF81A408DF81B309DF814409DF8CB
:1058500015303032303130303033303530348DF82F
:105860001E208DF81F1006AA03218DF8210010209C
:105870008DF823308DF81CE08DF81D508DF82240F6
:105880008DF820708DF8246002F008FDFBF7E0FC35
:105890000BB0BDE8F08F00BF00CA9A3B00000000CB
:1058A00000E1F50500000000C408002028D200082F
:1058B0008096980040420F00A08601001009002049
:1058C00028090020380B0020020000205D4B1B7AC5
:1058D00003F0FF06002BDBD0002C00F08B80013C96
:1058E0000AE0FCF78BF9FBF7B3FC09238AF80030D8
:1058F0000BB0BDE8F08F0134E4B204EB44039B002D
:10590000FA18F9581679D788127AC9E620249DF832
:105910000D308DF81840002B7FF47DAF9DF80E30D0
:105920008DF81940002B3FF47DAF79E70021464BFD
:10593000D3E900230091FAF70BFFC5E610238AF89C
:10594000003001F0D5FC414A3146304602F05EFE9F
:105950009DF80C30002B50D030338DF818309DF866
:105960000D3030338DF819309DF80E303033DAB207
:105970002E204FF0200E00269DF80F309DF81010BD
:1059800030338DF81A209DF811208DF81B309DF8CA
:1059900012303031303230338DF81D108DF81E202A
:1059A0009DF813109DF814208DF81F309DF81530C8
:1059B0003031303230338DF821108DF822208DF8BF
:1059C0001C0006AA032110208DF823308DF820E05A
:1059D0008DF8246002F062FC95F82F30012B2BD05B
:1059E00020D3022B17D130460123194A062102F099
:1059F00031FF3CE60127174952E620229DF80D3081
:105A00008DF81820002BACD19DF80E308DF81920A0
:105A1000002BADD0AAE7304601230F4A062102F041
:105A200019FF24E69AF80030092B02D0132B7FF4DB
:105A30001EAEFCF7C9F91AE63046084A062102F004
:105A400009FF14E6F80800206802002018D20008B8
:105A500084D10008404B4C0098D1000870D1000858
:105A60002DE9F04FC0A3D3E900230025C24C99B023
:105A7000666A29463046FAF76BFBBBA3D3E90023DD
:105A80008DF8440029463046FAF762FB16461F4659
:105A9000B7A3D3E9002330463946FAF759FBB4A33C
:105AA000D3E900238DF8450039463046FAF750FB1C
:105AB00016461F46B14A002330463946FAF748FBDE
:105AC00039468DF84600AD4A30460023FAF740FBD0
:105AD00016461F46AA4A002330463946FAF738FBD5
