:020000040800F2
:1000000000500020CD860008910E0008950E0008D3
:10001000990E00089D0E0008A10E000800000000C7
:10002000000000000000000000000000A50E000815
:10003000A90E000800000000AD0E0008B10E000877
:100040001587000815870008158700081587000820
:100050001587000815870008158700081587000810
:100060001587000815870008158700081587000800
:1000700015870008158700081587000815870008F0
:1000800015870008158700081587000875120008F5
:1000900081120008158700081587000815870008D9
:1000A00015870008158700081587000815870008C0
:1000B00015870008158700081587000815870008B0
:1000C00015870008158700081587000815870008A0
:1000D00015870008C5110008158700081587000856
:1000E0001587000815870008158700080000000024
:1000F0000000000000000000000000000000000000
:0C01000000000000000000005FF808F1A3
:1001100010B5054C237833B9044B13B10448AFF341
:1001200000800123237010BDE801002000000000C2
:100130004CCC000808B5034B1BB103490348AFF38F
:10014000008008BD00000000EC0100204CCC00083D
:1001500053B94AB9002908BF00281CBF4FF0FF312E
:100160004FF0FF3000F07AB9ADF1080C6DE904CE24
:1001700000F006F8DDF804E0DDE9022304B0704782
:100180002DE9F0478C460E460446089D002B50D1C1
:100190008A4217466CD9B2FA82FEBEF1000F0BD02C
:1001A000CEF1200C01FA0EF620FA0CFC02FA0EF742
:1001B0004CEA060C00FA0EF43A0CBCFBF2F9BBB2A6
:1001C00002FB19CC09FB03FA4FEA144848EA0C4633
:1001D000B2450AD9F61909F1FF3180F02581B245FF
:1001E00040F22281A9F102093E44A6EB0A06B6FBC1
:1001F000F2F002FB106600FB03F3A4B244EA0644EB
:10020000A34209D9E41900F1FF3280F00B81A34227
:1002100040F2088102383C440021E41A40EA0940D7
:10022000002D62D0002324FA0EF42C606B60BDE830
:10023000F0878B4207D9002D55D0002185E8410079
:100240000846BDE8F087B3FA83F1002940F08F80BB
:10025000B34202D3824200F2FC80841A66EB0306AA
:100260000120B446002D40D085E81010BDE8F0878D
:1002700012B90127B7FBF2F7B7FA87FEBEF1000FFC
:1002800035D10121F61B4FEA174C1FFA87F8B6FB50
:10029000FCF20CFB126608FB02F0230C43EA064654
:1002A000B04207D9F61902F1FF3302D2B04200F290
:1002B000D2801A46361AB6FBFCF00CFB106608FB1F
:1002C00000F8A3B243EA0644A04507D9E41900F1B7
:1002D000FF3302D2A04500F2B9801846A4EB08040F
:1002E00040EA02409CE729462846BDE8F08707FA25
:1002F0000EF7CEF1200326FA03F24FEA174CB2FBB9
:10030000FCF11FFA87F80CFB112206FA0EF620FA10
:1003100003F301FB08F933431E0C46EA0246B145DC
:1003200000FA0EF409D9F61901F1FF3280F08C8041
:10033000B14540F2898002393E44A6EB0906B6FB7E
:10034000FCF00CFB106200FB08F99EB246EA024684
:10035000B14507D9F61900F1FF3371D2B1456FD914
:1003600002383E44A6EB090640EA01418FE7C1F19D
:10037000200722FA07F88B4048EA030326FA07F41D
:100380004FEA134EB4FBFEF91FFA83FC0EFB19442F
:100390008E4020FA07F809FB0CFA48EA06084FEAF3
:1003A000184646EA0444A24502FA01F200FA01F6B0
:1003B00008D9E41809F1FF3044D2A24542D9A9F185
:1003C00002091C44A4EB0A04B4FBFEF00EFB10442B
:1003D00000FB0CFC1FFA88F848EA0444A44507D93E
:1003E000E41800F1FF3E29D2A44527D902381C4465
:1003F00040EA0940A0FB0289A4EB0C0CCC45C246A4
:10040000CE4615D312D055B1B6EB0A036CEB0E06EF
:1004100006FA07F7CB401F43CE402F606E600021E5
:10042000BDE8F0871046F7E68946DEE64645EAD2A3
:10043000B8EB020A69EB030E0138E4E77046D7E730
:1004400018468FE78146BDE7114676E702383C44FF
:1004500044E7084606E7023A3E442BE7704700BFF0
:100460000346F0B5002283B0060E4FF40041050CA0
:10047000040A27488DF807308DF804608DF8055080
:100480008DF8064008F062FE322000F039FC0022B0
:100490004FF400511E4808F059FE02AF01AE082586
:1004A00016F8014B322000F02BFCE2094FF480419A
:1004B000174808F04BFE322000F022FC01224FF4D6
:1004C0000041134808F042FE322000F019FC0022DF
:1004D0004FF400410E4808F039FE6400013DE4B2DB
:1004E000E0D1BE42DBD1322000F00AFC2A464FF4B4
:1004F0008041074808F02AFE322000F001FC01226A
:100500004FF40051024808F021FE284603B0F0BD28
:10051000000C014000000000002800F00981F8B53F
:10052000894B04689C4240F0FD8085A7D7E90067AD
:1005300047F6F873B0F84C40B0F84EE003EAC40454
:10054000B0F8505044EACE3403EAC5038465D0E9DC
:100550000E45AF4208BFA64238BF43F0006343F4E4
:100560000043C365002900F0838040240025467FB6
:10057000837F002E08BF2C460BB144F0800490F816
:100580002030B0F84460714D5B0205EA863503F413
:10059000F0532B43C57E43F4005323430DB143F086
:1005A0008073847E0CB143F0007390F8214090F882
:1005B0002250A40604F0E0541C430DB144F0C044A2
:1005C00047F6F87390F82A50078DED0390F82360F2
:1005D00005F4C03503EAC70304662B430EB143F4A8
:1005E000802390F824400CB143F4001390F8254088
:1005F0000CB143F4800390F826400CB143F400039F
:100600004366002956D090F82B60002E69D0D0E9BF
:100610000C4554EA05036ED1002690F82E30002BCD
:1006200040F089804FF4B00490F8523090F85310A5
:100630001B03090543F4000301F4E0010B433343BA
:100640008366C466F2B1052500F16C0700F18404ED
:1006500057F8046945EA0600FFF702FF002805F194
:10066000FF355CDB6B1C44F80469F1D10020F8BD58
:10067000D0E90C4554EA050315BF40246024002549
:10068000202574E7052400F16C0555F80469042C55
:1006900044EA060004D0012C02DDEB69B34204D029
:1006A000FFF7DEFE00283ADBEE6114F1FF34ECD2F6
:1006B0000020F8BD90F82E1090F82B30002914BFC0
:1006C0004FF480660026002BACD190F82C30002B24
:1006D000A8D1D0E90C4554EA050308BF46F40066EA
:1006E000A0E790F82C10002996D0D0E90C4554EAE8
:1006F000050392D009E0731EDB0090F82C1003F084
:10070000180343F02006002987D04B1E9B0190F868
:100710002D10DBB2334341B943F480767DE76FF0AF
:100720000200F8BD6FF00100F8BD43F4407674E7B5
:100730004FF0FF30704746F4806673E7AFF30080F8
:1007400000A493D6000000005143DF0A00C0FF0060
:100750002DE9F04FE0A5D5E9004516461F46E0A378
:10076000D3E900238046B01847EB030102460B464D
:10077000002000218BB0CDE900670027D8F80C904D
:10078000B8F81860C8E90C01C8E90E019D429DF84F
:10079000501008BF9442C8F84090A8F84460C8F8C8
:1007A0004870A8F84C70A8F84E70A8F8507088F8F7
:1007B000527088F853700891C0F0B180D8F808E002
:1007C000BF4BC04A7344934200F2A98040F2FE330B
:1007D000741EA4B29C4200F2A280B9F1000F00F096
:1007E0009E80B3A3D3E9002398F81A5098F81B0011
:1007F000002D0CBF01250225002808BF0127DDE9D7
:10080000000118BF02278B4208BF8242C0F09180CE
:100810000FF2A42BDBE900AB8B4508BF8245C8E98A
:100820000E01C0F0D28102184FF0010041EB01032C
:100830009B4508BF9245C8E90E2388F85300C0F0D5
:1008400092810220019988F8530001FA00F300997F
:1008500043EA917301FA00F29B4508BF9245C8E94B
:100860000E23C0F080810320019988F8530001FA1B
:1008700000F3009943EA517301FA00F29B4508BF67
:100880009245C8E90E23C0F06E810420019988F8D2
:10089000530001FA00F3009943EA117301FA00F2E0
:1008A0009B4508BF9245C8E90E23C0F05C81052036
:1008B000019988F8530001FA00F3009943EAD163E3
:1008C00001FA00F29B4508BF9245C8E90E23C0F02B
:1008D0004A81DDE900018B0143EA906382018DE8E2
:1008E0000C0006239DE80600934508BF8A45C8E929
:1008F0000E1288F85330C0F0688100210D460C4676
:1009000088F85310C8F83850C8F83C4040460122D7
:10091000FFF702FE284621460BB0BDE8F08F00210C
:1009200040460122FFF7F8FD002001460BB0BDE86C
:10093000F08F0B460246C8E90E234B23079398F825
:100940002FA005FB0EFBBAF1000F00F0DE80DFF8F0
:1009500098A10134A4B207FB04F5BBFBF5F555459E
:10096000F7D8B4F5806F03D309F101090024F0E74B
:10097000B5FBF9F6B6B2B6F5805FEAD2002CE8D046
:100980000023B2B2CDE902231346009AA3FB020171
:10099000019B029A013002FB03112A4641F100013A
:1009A0000023FFF7D5FBDDE90223CDE90401FFF7C2
:1009B000CFFBDDE9040193B20993A8F84C30DDE9DF
:1009C0000223FFF7C5FB079A80B29042A8F84E00B9
:1009D000C8F84850A8F85060A8F84440C8F84090BB
:1009E000B7D3002E00F0E68098F81C30002B4FD0D3
:1009F000099B002B4CD0BEB1B34228BF3346012B1C
:100A00000ED00998B6FBF3F203FB126129B9B0FBD3
:100A1000F3F103FB1104002C35D0013B012BF1D184
:100A200098F82230002B39D198F82610264A002950
:100A3000264B18BF1346B5FBF3F225484FF224416D
:100A400018BF014603FB1253D2B28B4288BF01325A
:100A500088F852201F4BD8F800209A4200F0888076
:100A600000200021C8E90C01089A01214046FFF747
:100A700053FD0028FFF653AFD8F83000D8F83410F3
:100A80000BB0BDE8F08F96B2A8F85060A8F84C10F3
:100A900098F82230002BC7D0002EC5D0312EC3D8F5
:100AA000B8F84C205300B3F5805F22DBBCE700BFF1
:100AB00000A493D600000000FF5521830000000031
:100AC000806967FF001C4E0E20A1070048E8010066
:100AD00090D003005143DF0AA8263604010000002D
:100AE000A87AF3FDFFFFFFFF0048E801B3F5805F40
:100AF00006DA7600B6B29AB2312E4FEA4203F5D941
:100B0000A8F84C20A8F850608EE707FB06F6BBFB60
:100B1000F6F52F4BC8F848509D4241D8B5FBF9F384
:100B20009EB2B6F5805FA8F850604BD2DDE90001B7
:100B30002A465346FFF70CFB0099B2B2A2FB01BC58
:100B4000019984B202FB01CC5346A8F84E405846A6
:100B500061462A46FFF7FCFA04FB160083B20993AC
:100B6000A8F84C3040E7CDE9002317230793E6E6C9
:100B7000B8F85030002B3FF473AFB8F84C10B8F809
:100B80004E0098F8532003FB0010C717A0FB050187
:100B900003FA02F205FB07110023FFF7D9FA61E718
:100BA000C8F848A0514640460122FFF7B5FC002096
:100BB0000146BBE60025A8F84C602C4688F8536037
:100BC00031469FE6A8F850A0ECE717230793B6E656
:100BD0000048E80130B49DF8085018B10468054990
:100BE0008C4203D030BC002000217047029530BCFD
:100BF000FFF7AEBD5143DF0A58B310B5012282B0F2
:100C000004464FF48051144808F0A0FA01224FF432
:100C10000051114808F09AFA00224FF480410E4822
:100C200008F094FA00224FF400410B4808F08EFAC5
:100C3000D4E9042301210948206020460091FFF7F0
:100C400087FD50EA01030CBF6FF00100002002B0E5
:100C500010BD4FF0FF307047000C01405143DF0AD8
:100C6000C0B300232DE9F0411BA5D5E900450122C1
:100C7000002600274FF007084FF0060C4FF0960EA5
:100C80000421C0E90467C0E9024502830277427784
:100C900080F82D208376C3768377C37780F822305F
:100CA00080F8233080F8243080F8253080F8263012
:100CB00080F82A3080F82E3080F82C3080F82F30E1
:100CC00080F8208080F821C0A0F828E080F82B1060
:100CD000BDE8F081704700BF40787D01A861000049
:100CE00000B9704738B5044607F0CAFE054600E073
:100CF00030BF07F0C5FE401B8442F9D838BD00BFA5
:100D00004FF06043002130B5134C144AC3F8B04F84
:100D1000D368134C43F08073D360236883B043F0EF
:100D2000010323606160054609F040F908A3D3E997
:100D30000023A0FB0501FFF70BFA214601904A684A
:100D4000019B9A42FBD303B030BD00BFAFF30080DC
:100D500000CA9A3B0000000055CEACC5F0ED00E0A3
:100D6000001000E0002048F2084310B4204C420874
:100D700010F0010F82EA030118BF0A46510812F071
:100D8000010F81EA030218BF11464A0811F0010F52
:100D900082EA030118BF0A46510812F0010F81EAE6
:100DA000030218BF11464A0811F0010F82EA03013D
:100DB00018BF0A46510812F0010F81EA030218BF5A
:100DC00011464A0811F0010F82EA030118BF0A46D2
:100DD000510812F0010F81EA030218BF11460130D9
:100DE000B0F5807F24F8021FC1D110BC704700BF4E
:100DF0003209002008B5044808F0D0F918B94FF4BA
:100E00007A62024B1A8008BD0C020020000000200C
:100E1000194B1A7A32B100221A705A801A719A71DB
:100E2000DA711A72154B1A7A32B100221A705A808E
:100E30001A719A71DA711A72114B1A7A32B1002250
:100E40001A705A801A719A71DA711A720D4B1A7AE5
:100E500032B100221A705A801A719A71DA711A72BC
:100E6000094B1A7A32B100221A705A801A719A719B
:100E7000DA711A72704700BF1C09002004090020B3
:100E800028090020F808002010090020704700BF42
:100E9000704700BFFEE700BFFEE700BFFEE700BFF0
:100EA000FEE700BF704700BF704700BF704700BF3C
:100EB00038B507F0D9FD4FF6FE72924BD3F8041205
:100EC000914204D8D3F804220132C3F804224FF629
:100ED000FE728D4BD3F80412914204D8D3F8042249
:100EE0000132C3F804224FF6FF71884A13889BB27F
:100EF0008B4203D0138801339BB2138002218448B4
:100F000008F01EF9834B1A78002840F043811D2A0F
:100F10000AD81A780132D2B21D2A1A7004D91A7965
:100F200012B901221A719A715A8892B2B2F5FA7FF7
:100F30000BD25A88013292B2B2F5FA7F5A8004D3AA
:100F40005A7912B901225A71DA710121724808F0F6
:100F5000F7F8724B1A78002840F005811D2A0AD84C
:100F60001A780132D2B21D2A1A7004D91A7912B92C
:100F700001221A719A715A8892B2B2F5FA7F0BD295
:100F80005A88013292B2B2F5FA7F5A8004D35A7964
:100F900012B901225A71DA7102215F4808F0D0F8C3
:100FA0005F4B1A78002840F0C7801D2A0AD81A78AB
:100FB0000132D2B21D2A1A7004D91A7912B901224B
:100FC0001A719A715A8892B2B2F5FA7F0BD25A8886
:100FD000013292B2B2F5FA7F5A8004D35A7912B92B
:100FE00001225A71DA710821494808F0A9F84D4BDD
:100FF0001A78002870D11D2A0AD81A780132D2B284
:101000001D2A1A7004D91A7912B901221A719A711B
:101010005A8892B2B2F5FA7F0BD25A88013292B254
:10102000B2F5FA7F5A8004D35A7912B901225A7163
:10103000DA710421364808F083F83B4B1A7800280F
:1010400034D11D2A0AD81A780132D2B21D2A1A7058
:1010500004D91A7912B901221A719A715A8892B276
:10106000B2F5FA7F0BD25A88013292B2B2F5FA7F0A
:101070005A8004D35A7912B901225A71DA710124C3
:101080002A4A92F82F30013BA3420ED828490B7808
:1010900003F0FF054BB92748928D038823449BB288
:1010A0009A4203809CBF05800C7038BD5AB11A78F3
:1010B000013AD2B21A7032B9197921B101211A71EB
:1010C0005A7119725A805A8892B2002AD7D05A8817
:1010D000013A92B25A80D2E75AB11A78013AD2B2A2
:1010E0001A7032B9197921B101211A715A71197224
:1010F0005A805A8892B2002A9BD05A88013A92B2FA
:101100005A8096E78404002074020020000000202A
:10111000000801401C090020000C014004090020C7
:1011200028090020F808002010090020C408002029
:1011300070020020600200205AB11A78013AD2B23F
:101140001A7032B9197921B101211A715A711972C3
:101150005A805A8892B2002A3FF445AF5A88013A21
:1011600092B25A803FE75AB11A78013AD2B21A7055
:1011700032B9197921B101211A715A7119725A8043
:101180005A8892B2002A3FF407AF5A88013A92B2C5
:101190005A8001E75AB11A78013AD2B21A7032B9BC
:1011A000197921B101211A715A7119725A805A881C
:1011B00092B2002A3FF4C9AE5A88013A92B25A80DC
:1011C000C3E600BF284970B40B681A68D8681607D0
:1011D0001CBF6FF00F041C60950602D584065E6884
:1011E00026D4160614D5050612D50D6A35B1CC8C59
:1011F000A4B21CB191F83940212C2AD00025202618
:10120000DC6824F08004DC60CD840D6281F83960F4
:1012100054060BD5420609D500202024DA6822F0B6
:101220004002DA60C884086281F8394070BC7047B7
:101230000E4CA342D5D10E4DD5F80042B4F5007F37
:1012400001D22E5501340026C5F80042C5F80462CB
:10125000C7E76C1C0C622C785C60CC8C013CA4B29F
:10126000CC84002CCAD0D3E71802002000380140FB
:1012700074020020014808F02FB800BFAC1A00200B
:10128000014808F029B800BFAC1A002070B50A4D1B
:10129000D5F80042C4F500768E4228BF0E460146BE
:1012A000324628190AF0ADFD00233444C5F8004247
:1012B000C5F8043270BD00BF840400200E4B82B01C
:1012C0009A690E4942F001029A619A6902F001029C
:1012D0000092009ADA6942F08052DA61DB6903F029
:1012E00080530193019B4B6823F0E06343F000734C
:1012F0004B6002B0704700BF001002400000014088
:1013000070B594B00AA8282200210AF085FD0024B7
:101310004FF48032012302254FF4E01109260AA878
:101320000B9212920E9310931391059401940694CC
:101330000794089409940294039404940A961195CE
:1013400008F062FB0F224FF48063294605A805923E
:10135000089306950794099408F05AFD102301A8F4
:101360000494019308F048FE14B070BD062140F2C9
:101370000D3310B5074C084A204661602260A36017
:1013800007F0E8FE10B9054B188010BD002323605C
:1013900010BD00BF0C020020003000400000002003
:1013A00010B50B4C4022002120460AF035FD4FF4C9
:1013B000E1320C230749204684E80600636108F007
:1013C0009FFE10B923685B6810BD0023236010BD29
:1013D0001802002000380140F0B500240268244BB8
:1013E00087B09A42029403940494059401D007B004
:1013F000F0BD02264FF4007703F558439A6905467D
:1014000042F480429A619A6902A902F480420092F1
:10141000009A9A69174842F004029A619B69039600
:1014200003F004030193019B0596029707F07EFDEC
:101430004FF4806302A90F4803940494029307F0C9
:1014400075FD2B682246D868314640F48070D8601C
:101450005C69252044F001045C61DC6844F02004F0
:10146000DC6007F025FB252007F058FB07B0F0BD36
:10147000003801400008014038B50025044C054BF8
:10148000204684E8280007F06FFB00B1256038BDD6
:1014900004020020003002400268094B9A4200D04A
:1014A0007047A3F500535A6982B042F040025A6176
:1014B0005B6903F040030193019B02B0704700BFDA
:1014C000003002402DE9F04300244FF0200989B09C
:1014D000674B04940594069407949A69012742F097
:1014E00004029A619A694FF0020802F00402009225
:1014F000009A9A695F4E42F008029A619A695E4DBD
:1015000002F008020192019A9A69304642F01002F4
:101510009A619969224601F0100102910299996934
:1015200041EA0901996149469B690B400393039B7A
:1015300007F00CFE22462846102107F007FE22463F
:101540002846494607F002FE22462846402107F079
:10155000FDFD22462846802107F0F8FD30463A4638
:101560004FF4805107F0F2FD30463A464FF40051F7
:1015700007F0ECFD224630464FF4804107F0E6FDCF
:10158000224630464FF4004107F0E0FD04A9304602
:1015900006940597CDF81C80CDF8109007F0C6FC96
:1015A000102328460DEB0301049305970694CDF80C
:1015B0001C8007F0BBFC04A92846CDF8109007F06A
:1015C000B5FC402304A92846049307F0AFFC802310
:1015D00004A92846049307F0A9FC04A92846059409
:1015E0000697CDF8108007F0A1FC042304A9284633
:1015F000049307F09BFC082304A92846049307F0F2
:1016000095FC04A93046049707F090FC04A93046E5
:10161000CDF8108007F08AFC4FF4805304A93046BF
:10162000049305970694079707F080FC4FF4005346
:1016300004A93046049307F079FC4FF4804304A9D1
:101640003046049307F072FC4FF40043304604A97F
:10165000049307F06BFC4FF4807304A928460594AB
:101660000697049307F062FC09B0BDE8F08300BF61
:1016700000100240000C0140000801402DE9F04735
:1016800007460E46154607F0FBF9002F3FD0002E07
:101690003DD03B4B04461B6873B107F0F1F9001BCA
:1016A000132808D809F01CFD002834D007F0E8F909
:1016B000001B1328F6D955B3324D2B68002B58D098
:1016C00007F0DEF9001B132823D895F83930202BBA
:1016D000F6D12B6A002BF3D12B4C2C4D206820B176
:1016E0002B689E423AD90AF075FB06F1800323F07D
:1016F0007F0318462B600AF065FB206070BBB2B216
:101700003946BDE8F04714231E4808F063BDBDE824
:10171000F087BDE8F087DFF87880DFF87890D8F8B8
:10172000000028B1D9F800309E420DD90AF052FBD2
:1017300006F1800323F07F031846C9F800300AF051
:1017400041FBC8F80000B0B1394632460AF059FBF7
:10175000D8F80000B1B209F0D1FCACE73946324606
:101760000AF04FFBB2B221680648BDE8F04708F026
:10177000C3BDBDE8F087B1B2384609F0BFFC9AE7B7
:10178000AC1A0020180200207C04002080040020F5
:101790008C060020900600200138012810B5144660
:1017A00001D9204610BD0029FBD0002AF9DD0846EA
:1017B00001222146FFF762FF204610BDF0B500254B
:1017C0004FF0FF378FB0304E0EAC1A2201A92846D9
:1017D00006F0CAFF01AB01E0A3423DD013F8012B94
:1017E000FF2AF9D0019BB34246D03435B5F5777F57
:1017F000EBD1264C236843B1254D20462B8807F0BA
:10180000CDFC10B94FF47A632B8006F085FF0025DC
:10181000FF224FF0780E5627342612201D4B2168E8
:1018200083F800E05F709E70D87083F8312083F8F1
:10183000322083F8332041B1154C1448238807F037
:10184000ADFC10B94FF47A63238028461A2211495F
:1018500006F0CEFF0FB0F0BD7B1C0BD038461A222D
:1018600001A906F081FF01A834220A490AF0BAFA58
:101870000028EFD0054CCBE74FF6FF73BDF83620BC
:101880009A4208BF2F46B0E7785634120C02002067
:1018900000000020C4080020F0B500248FB04FF0F5
:1018A000FF364FF6FF77104D03E03434B4F5777F01
:1018B00010D01A2201A9204606F056FF019BAB4228
:1018C000F3D1BDF83630BB4208BF26463434B4F5F8
:1018D000777FEED1731C04D030461A22034906F0FC
:1018E00043FF0FB0F0BD00BF78563412C40800208B
:1018F00070B40478002C38D030340C704478303414
:101900004C70847804F13003DBB22E2620250024AD
:101910008B70C3780E713033CB700379032A03F1D7
:1019200030034B71437903F130038B7183790D726E
:1019300003F13003CB71C37903F130034B72037AA7
:1019400003F130038B72437A0C7303F13003CB72D3
:1019500006D9131F022B11D9D31F022B03D8023231
:101960008B5C803B8B5470BC70470B704478002CB0
:10197000C5D14B708478002CC7D0C3E701328B5C93
:1019800070BC803B8B547047F0B57BA3D3E9002338
:101990007D4989B0CD690E6A28463146FEF7D8FBED
:1019A00075A3D3E90023044631462846FEF7D0FB51
:1019B00016461F4672A3D3E9002330463946FEF788
:1019C000C7FB6FA3D3E900238DF8050039463046E5
:1019D000FEF7BEFB16461F466C4A002330463946CA
:1019E000FEF7B6FB39468DF80600684A30460023FC
:1019F000FEF7AEFB16461F46654A002330463946C1
:101A0000FEF7A6FB39468DF80700614A30460023F1
:101A1000FEF79EFB16461F465E4A002330463946B7
:101A2000FEF796FB39468DF808005A4A30460023E7
:101A3000FEF78EFB16461F4642F210720023304618
:101A40003946FEF785FB39468DF8090042F21072DF
:101A500030460023FEF77CFB16461F464FF47A7291
:101A6000002330463946FEF773FB39468DF80A00ED
:101A70004FF47A7230460023FEF76AFB16461F4683
:101A80006422002330463946FEF762FB64228DF85B
:101A90000B00002330463946FEF75AFB1046194624
:101AA0000A220023FEF754FB0022E4B28DF80C005A
:101AB0008DF80D20002C4FD004F130038DF810303C
:101AC0009DF8053030338DF811309DF8063003F164
:101AD0003001C9B200252E2720269DF807409DF829
:101AE00009009DF80A309DF80B208DF81210303453
:101AF0009DF80C109DF808E08DF813409DF80D40FE
:101B000030303033303230310EF1300E8DF8160077
:101B10008DF81730284601238DF819208DF81A10FA
:101B200030341D4A06218DF815E08DF81B408DF8E4
:101B30001C508DF814708DF8186006F06BFC04AA28
:101B40000621082006F08AF90123144A062168209C
:101B500006F060FC09B0F0BD20219DF805308DF83D
:101B60001010002BAED19DF806308DF81110002B0F
:101B7000B0D0ACE7AFF3008000CA9A3B0000000091
:101B800000E1F50500000000C408002080969800E0
:101B900040420F00A0860100B4CD0008CCCF000861
:101BA0002DE9F04704460D4612283FD8DFE810F033
:101BB000130067006F008A00A500C000DB00F7007B
:101BC00003013E00130067006F008A00A500C000FB
:101BD000DB00F700030100210226631B084618BF43
:101BE0000123794A06F016FC4FF003093146062717
:101BF0004FF0040801232C1BE31A18BF0123734A7A
:101C0000002006F007FCA31B18BF01234146704AC1
:101C1000002006F0FFFB062F08D0B4EB090318BF25
:101C2000012339466B4A002006F0F4FB6A4B93F817
:101C30002F30012B1CD011D3022B07D1BDE8F04768
:101C40000123664A0621002006F0E4BB0123BDE81B
:101C5000F047634A0621002006F0DCBB614B1B788D
:101C6000092B00F0AC80132B00F0A980BDE8F087B1
:101C70005D4A0621BDE8F047002006F0CBBB4FF0DF
:101C800002090023C846194604270126B3E70021AC
:101C9000431B18BF012308462C1B4D4A06F0BAFB14
:101CA00014F1FF3318BF01234A4A0221002006F035
:101CB000B1FBA31E18BF01234C4A0421002006F0EB
:101CC000A9FBB3E70021431B18BF012308462C1BC7
:101CD000404A06F09FFB14F1FF3318BF0123434A2B
:101CE0000221002006F096FBA31E18BF0123404AE4
:101CF0000421002006F08EFB98E70021431B18BF4B
:101D0000012308462C1B394A06F084FB14F1FF33EB
:101D100018BF0123364A0221002006F07BFBA31ED8
:101D200018BF0123334A0421002006F073FB7DE72E
:101D30000021431B18BF012308462C1B2C4A06F028
:101D400069FB14F1FF3318BF01232A4A0221002046
:101D500006F060FBA31E18BF0123274A04210020C0
:101D600006F058FB62E70021431B18BF0123084619
:101D7000204A2C1B06F04EFB14F1FF3318BF012341
:101D800002211D4A002006F045FB02230421E31A2C
:101D900018BF0123194A002006F03CFB46E700214A
:101DA000431B18BF01230846134A06F033FB2C1BC4
:101DB00001230221EBE700230C1A1946E7E7BDE8EF
:101DC000F047FFF7E1BD00BFA0CC0008B0CC000891
:101DD000C0CC0008D0CC0008C408002044CD0008C6
:101DE00058CD00080200002030CD0008F0CC0008DB
:101DF00000CD000810CD000820CD0008E0CC000880
:101E00002DE9F043A04C83B02378092B30D09F4AB2
:101E1000137A03F0FF018BB1D379002B39D09C4B9F
:101E20001B78082B38D8DFE813F0EE00C900AB00B0
:101E3000360036003600360036003600954B1B7AE9
:101E400003F0FF026BB3944C94F82F00002860D08D
:101E500084F82F100021E269236A90480091FEF770
:101E6000B9FEFEF7D5FF03B0BDE8F043FFF78CBD28
:101E7000132387492370FEF7CBFF0978881EC0B271
:101E800010F0800F18BF002003B0BDE8F043FFF74B
:101E900087BE7F4B1B78237003B0BDE8F043FEF78D
:101EA000B7BF7F4B1B7A33B37B4C94F82F100029BC
:101EB00063D10127E269D4F80480236AD4F808903A
:101EC00012EB0802774E43EB09039F4208BF96428C
:101ED00030D26FF05305422006220123217784F887
:101EE000211084F8221084F823106577A077E27718
:101EF00084F8203020E06C4B1B7A03F0FF0283B3A0
:101F000063490B78002B00F0A080013BDBB20B7023
:101F1000B1E7E269D4F80480236AD4F80890B2EB00
:101F2000080263EB090356A7D7E900679F4208BF81
:101F3000964204D2E2612362FFF740FC8AE758250B
:101F40006FF07A010C22022384F8200084F821002B
:101F500084F8220084F8230025776177A277E3775D
:101F6000EAE7524B1B7A002B6CD049490B78072BC0
:101F70009CBF5A1CD2B20A707DE784F82F2069E713
:101F8000454D95F82F30022B86D0012702220026DE
:101F9000474B484985F82F200E801F70FFF70EFC35
:101FA00095F82F30BB4228D052D3022B59D13B4653
:101FB0003046414A062106F02DFA6DE7364D95F878
:101FC0002F30012B3FF468AF00260127EA682B6908
:101FD0003A4938480680C1E90023354B00961E7007
:101FE000D1E900232D4885F82F70FEF7F3FDFFF7A8
:101FF000E5FB95F82F30BB42D6D13046304A06215A
:1020000006F008FA48E7244D95F82F30002B3FF4EE
:1020100043AF00262B6AEA692048009685F82F60B6
:10202000FEF7D8FDFFF7CAFB95F82F30012BE4D05F
:102030000ED3022B1CD1304601231F4A062106F085
:10204000E9F929E703B0BDE8F08308230B7012E734
:102050002378092B02D0132B7FF41EAFFFF794FCDB
:102060001AE73B463046174A062106F0D3F913E734
:1020700030460123134A062106F0CCF90CE700BFD5
:1020800057850C020000000002000020100900200B
:10209000710200201C090020C4080020380B002019
:1020A0000409002000AC420628090020F80800209E
:1020B000700200206002002044CD00086802002069
:1020C00030CD000858CD00082DE9F04FD2A3D3E958
:1020D0000023D54C99B0E569266A28463146FEF7BB
:1020E00037F8CDA3D3E900238DF8440031462846C4
:1020F000FEF72EF816461F46C9A3D3E90023304643
:102100003946FEF725F8C6A3D3E900238DF845002C
:1021100039463046FEF71CF816461F46C34A0023D0
:1021200030463946FEF714F839468DF84600BF4A66
:1021300030460023FEF70CF816461F46BC4A002323
:1021400030463946FEF704F839468DF84700B84A5C
:1021500030460023FDF7FCFF16461F46B54A002314
:1021600030463946FDF7F4FF39468DF84800B14A4C
:1021700030460023FDF7ECFF16461F4642F2107270
:10218000002330463946FDF7E3FF39468DF8490014
:1021900042F2107230460023FDF7DAFF16461F4662
:1021A0004FF47A72002330463946FDF7D1FF3946A5
:1021B0008DF84A004FF47A7230460023FDF7C8FFCD
:1021C00016461F466422002330463946FDF7C0FFFD
:1021D00039468DF84B00642230460023FDF7B8FFE6
:1021E00016461F460A22002330463946FDF7B0FF47
:1021F0000A228DF84C00002330463946FDF7A8FF2F
:1022000000238D4D8DF84D202E788DF84E30002E08
:1022100000F0DB80894A137A03F0FF067BB1D379A3
:1022200023B194F82F30002B40F04682FFF7C6FA16
:10223000FEF7EEFD09232B7019B0BDE8F08F804B3F
:102240001B7A002B40F008817E4B1B7A002B40F05C
:1022500053827D4B1B7A002B00F01F827B4B1D7835
:10226000002D00F02682013DEDB21D7011AB0693EA
:10227000E669246A304668A3D3E900232146FDF7C6
:1022800067FF65A3D3E900238DF84400214630465B
:10229000FDF75EFF16461F4661A3D3E900233046D3
:1022A0003946FDF755FF5EA3D3E900238DF84500BD
:1022B00039463046FDF74CFF16461F465B4A002361
:1022C00030463946FDF744FF39468DF84600574AF7
:1022D00030460023FDF73CFF16461F46544A0023B4
:1022E00030463946FDF734FF39468DF84700504AED
:1022F00030460023FDF72CFF16461F464D4A0023AB
:1023000030463946FDF724FF39468DF84800494AE2
:1023100030460023FDF71CFF16461F4642F210729E
:10232000002330463946FDF713FF39468DF8490042
:1023300042F2107230460023FDF70AFF16461F4690
:102340004FF47A72002330463946FDF701FF3946D3
:102350008DF84A004FF47A7230460023FDF7F8FEFC
:1023600016461F466422002330463946FDF7F0FE2C
:1023700039468DF84B00642230460023FDF7E8FE15
:1023800016461F460A22002330463946FDF7E0FE76
:1023900039468DF84C000A2230460023FDF7D8FE5E
:1023A00000245F238DF84D2006982A4614A98DF845
:1023B0004E40FFF79DFA14AA0321102005F04EFDB0
:1023C000FEF726FD19B0BDE8F08F0A232B7004F04C
:1023D0006FFD1F4A3146304605F0F8FE1B4B14A92D
:1023E0001A7811A85F23FFF783FA14AA032110209B
:1023F00005F034FD94F82F30012B00F0A481C0F0DB
:102400007281022B40F0C08130460123114A06211F
:1024100006F000F8FEE600BF00CA9A3B000000008C
:1024200000E1F50500000000C40800208096980037
:1024300040420F00A0860100020000201009002089
:1024400028090020F80800201C090020580200205C
:1024500084CC000844CD0008C14B197807930929A2
:1024600011AB00F3C8811A4606935B5C5018013328
:10247000DBB2092B53541AD9002900F0B28113465C
:1024800001390A44DDF81C90984603E0002900F069
:10249000A48101390670137810460133DBB2092B91
:1024A00002F80139F2D8CDF81C90CDF8188000233D
:1024B00099464FF0000B00239DF849201F46904697
:1024C0004FEA820A9DF847205B46164618EB0A0041
:1024D0004FEA421249EB0B018246901B8B4663EB9D
:1024E00007010B4602464FEACA014FEACB0040EA19
:1024F0005A708A46590241EAD2510B46002183465E
:102500009DF84A00CDE90867560232460F46064656
:102510000021CDE90A67BAEB08066BEB0907B24662
:10252000BB46DDE908674001B6185F41DDE90A23D3
:10253000821A61EB0303CDE9022300239DF84520B5
:10254000CDE90467CDE90E234FEA0B114FEA0A13D8
:10255000059A9DF8440041EA1A719A46814B970109
:10256000A0FB0323CDE90C23049A8B4696467146C3
:1025700047EA92677C4B0E9A8E01A2FB0323DDE9AA
:102580000C0180185941DDE90423B21A67EB0303FB
:102590001F46039B1646029A9B0043EA92739200E1
:1025A000CDE90C0102929DF84600704A18EB0A082A
:1025B000A0FB020149EB0B09C246CB46DDE90C89C1
:1025C00018EB0008404649EB010949460393DDE951
:1025D000082392197B41CDE90423DDE90289DDE975
:1025E0000A234FEA0B1C12EB080243EB09034CEAE7
:1025F0001A7C4FEA0A17DDE904AB1AEB000A5046D1
:102600004BEB010BBA464FEAC30E59464EEA527ED7
:102610009DF84860564F7346A6FB07674FF0640E5F
:1026200080194FEAC2064FF00A02794110EB0A0006
:1026300041EB0C0136189DF84D009DF84BC043EB63
:102640000107ECFB0E679DF84C300021E3FB0267AD
:10265000012336184F41474ABB4208BFB2423CBF34
:102660001F4616463CA3D3E900239F4208BF96426B
:1026700038BF1F4694F82F3038BF1646002B40F065
:10268000918000233C48009332463B46E661276236
:10269000FEF7A0FA079B1D78EAE5384B1B7A002B62
:1026A0003FF4CAAD2E4B1D78082D02D80135EDB28E
:1026B0001D7011AB0693DBE50026236AE2692E4804
:1026C000009684F82F60FEF785FA94F82F30012BDE
:1026D0007DD073D3022B5ED130460123284A0621D8
:1026E00005F098FEA2E52B78092B02D0132B7FF47E
:1026F00091ADFFF749F98DE5194B19780793092931
:1027000011AB78DC1A4606935B5C5018013BDBB2D8
:10271000092B53547FF6CBAE002969D013460139FB
:1027200009260A44DDF81C90984602E000295BD097
:102730000139067013781046013BDBB2092B02F811
:102740000139F3D8AFE630460E4A062105F062FEA5
:1027500060E500BFAFF3008058850C020000000068
:102760005802002000CA9A3B00E1F50580969800C7
:10277000A086010000AC4206380B002004090020AE
:1027800044CD000830CD0008304601231B4A062105
:1027900005F040FE3EE530460123184A062105F0CB
:1027A00039FE43E500222B7884F82F20092B02D034
:1027B000132B7FF466AFFFF7E7F862E72B78092B5E
:1027C00002D0132B7FF432ADFFF7DEF82EE5304652
:1027D0000B4A062105F01EFE28E5CDF81C90CDF829
:1027E00018800923037062E6CDF81C90CDF818809C
:1027F000002303705BE6069359E600BF58CD00083E
:1028000030CD0008000000002DE9F04FCCA3D3E943
:102810000023CF4CB1B0E568266928463146FDF764
:1028200097FCC7A3D3E900238DF8AC0031462846B6
:10283000FDF78EFC16461F46C3A3D3E9002330469E
:102840003946FDF785FCC0A3D3E900238DF8AD0020
:1028500039463046FDF77CFC16461F46BD4A00232C
:1028600030463946FDF774FC39468DF8AE00B94A5A
:1028700030460023FDF76CFC16461F46B64A00237F
:1028800030463946FDF764FC39468DF8AF00B24A50
:1028900030460023FDF75CFC16461F46AF4A002376
:1028A00030463946FDF754FC39468DF8B000AB4A46
:1028B00030460023FDF74CFC16461F4642F21072CC
:1028C000002330463946FDF743FC39468DF8B10008
:1028D00042F2107230460023FDF73AFC16461F46BE
:1028E0004FF47A72002330463946FDF731FC394601
:1028F0008DF8B2004FF47A7230460023FDF728FCC1
:1029000016461F466422002330463946FDF720FC58
:1029100039468DF8B300642230460023FDF718FCD9
:1029200016461F460A22002330463946FDF710FCA2
:1029300039468DF8B4000A2230460023FDF708FC22
:102940006569A66928468DF8B52031467CA3D3E990
:102950000023FDF7FDFB7AA3D3E900238DF8B60031
:1029600031462846FDF7F4FB16461F4676A3D3E909
:10297000002330463946FDF7EBFB73A3D3E9002370
:102980008DF8B70039463046FDF7E2FB16461F4684
:10299000704A002330463946FDF7DAFB39468DF898
:1029A000B8006C4A30460023FDF7D2FB16461F469E
:1029B000694A002330463946FDF7CAFB39468DF88F
:1029C000B900654A30460023FDF7C2FB16461F4694
:1029D000624A002330463946FDF7BAFB39468DF886
:1029E000BA005E4A30460023FDF7B2FB16461F468A
:1029F00042F21072002330463946FDF7A9FB3946F2
:102A00008DF8BB0042F2107230460023FDF7A0FBA8
:102A100016461F464FF47A72002330463946FDF7BA
:102A200097FB39468DF8BC004FF47A72304600238C
:102A3000FDF78EFB16461F466422002330463946BA
:102A4000FDF786FB39468DF8BD0064223046002331
:102A5000FDF77EFB16461F460A2200233046394604
:102A6000FDF776FB39468DF8BE000A22304600237A
:102A7000FDF76EFB00253A4E8DF8BF2037788DF8B4
:102A8000C050012F00F09C84364F3B7A03F0FF05C5
:102A90007BB3A36921696269E068994208BF9042EB
:102AA00080F0D882D4F80480D4F8089058EA090558
:102AB00000F0AD82121A63EB01035B084FEA3202A9
:102AC0004B4508BF4245C0F0A2820922FB79327013
:102AD00003F0FF05002B40F0068594F82F30002B03
:102AE00040F02485FEF76AFEFEF792F931B0BDE8AA
:102AF000F08F1D4B1B7A002B00F05A821B4B19786C
:102B00001893092940F2B082A1F10A02092A00F2C1
:102B100055850DF1B60318461E4619939B5C164465
:102B20000133DBB28354092B2BA80D9039D9002A2D
:102B300000F013850346481E1844721C27E000BFAE
:102B400000CA9A3B0000000000E1F505000000000B
:102B5000C40800208096980040420F00A086010023
:102B6000020000201009002028090020590200203E
:102B700090F800E007460EF1010E5FFA8EFEBEF1FE
:102B8000090F00F801E90CD9002B00F0E784A2F14D
:102B90000C030B449B1B092B02F8015C02F1FF3272
:102BA000E6DD00239DF8BB209946904600270023D0
:102BB000960018EB060049EB07019B463B460F4683
:102BC00000219DF8B920CDE906899246064689463E
:102BD0004FF0000C19469DF8B1005201CDE914AB3D
:102BE000B2EB0A0A804663EB0B0B5B469DF8AFB075
:102BF0004FEAC70ECDE90ABCF5008B464EEA567E79
:102C00002E4680000A9DCDE9108918EB0008524637
:102C100049EB01094FEA451A40464946DDE90A8970
:102C2000BAEB080877466BEB0909C246CB46DDE9EB
:102C30000689B6EB08084FF000064FEA432545EA3F
:102C4000D2552B469DF8BC5067EB09094FEA422C40
:102C5000CDE902896246A846B1460027CDE916892A
:102C6000DDE9148918EB020849EB0309CDE9048971
:102C7000DDE916234FF000086E014FEAC10EB21ACB
:102C80004EEA507E4FF00006714667EB03039DF855
:102C9000B6704FEA4B25CDE91C78002745EADA5596
:102CA000AB469DF8B7504FEAC00CCDE91E56DDE9A2
:102CB0001056BCEB050561EB0606B146CDE90823CD
:102CC000DDE90223160102969DF8B260A8461D01B7
:102CD00045EA12753B463246CDE91223059B4FEA81
:102CE0004A2E9901049B0395980141EA9361DDE91D
:102CF0000423821A61EB030310461946CDE9200133
:102D0000DDE908018200F2460892002200278B00CC
:102D10009DF8AC107601CDE91A12DDE90A1211EB2B
:102D20000A0142EB0B02CDE90E12DDE902AB1C9A5F
:102D300043EA9073DDE91201301A67EB010117468F
:102D4000CDE90401DDE9060110EB0A0041EB0B01BE
:102D50004FF0000BB64DB74A09931E9BCDE9060113
:102D6000A7FB0201DDE91467A3FB05239DF8B8A0CA
:102D70004FEA091ECDE91CAB10EB020A9DF8AD002D
:102D800041EB030B4FEA0811CDE902ABDDE920BCB2
:102D90004EEA187E16EB0B068846DDE90EABA0FB6B
:102DA00005015D4647EB0C07CDE91E671A9EAB0196
:102DB000374655469F4EAA01A7FB066716EB000B48
:102DC00047EB010CDDE90E5643EA9A63551B63EBB2
:102DD0000606CDE90E56DDE90467B300049300232F
:102DE0009DF8BA20BD00CDE914BC45EA96759DF862
:102DF000AE009149CDE91A23DDE90223DDE908ABF4
:102E00001C9E0595A6FB016792197B4116461F463D
:102E1000DDE9162312EB0A02A0FB010143EB0B03D1
:102E200092469B46DDE91E2392197B41DDE910673E
:102E300016EB080647EB0E07CDE90267DDE91467DC
:102E40003618CDE908234F41B046DDE90656290181
:102E5000330143EA15730691DDE90E56DDE90A12E6
:102E60006D18564129463246CDE90E125946079350
:102E7000B9461A9B714FCE00A3FB0723DDE9080179
:102E8000801859415346CDE90A0100219DF8B00050
:102E9000DB000893039B46EA5A76CDE91001DDE991
:102EA00012ABDDE904011AEB000A4BEB010B1D012B
:102EB000DDE90E2318EB020849EB0309DDE90212F4
:102EC0000B0145EA11750293DDE90601DDE90A23EC
:102ED0008018594102460B4610990996A1FB07013B
:102EE00018EB00084046DDE9087849EB0109BF18F6
:102EF00048EB03083A4643464FF0640E4FEACB06D0
:102F000003954FEACA0546EA5A76AA46DDE90278F1
:102F10000A253F1848EB090838464146B3469DF854
:102F2000BD704FF00009E7FB0E2301279DF8BE603E
:102F30009DF8BF80E6FB052310EB0A0041EB0B0177
:102F400012EB080243EB09033D4E9F4208BF964235
:102F500038BF3B464FF000079DF8B3809DF8B4C0E2
:102F6000E8FB0E010FF2C009D9E90089ECFB05016D
:102F700038BF32469DF8B56094F82F5080197941DA
:102F8000494508BF40453CBF40464946E060681E91
:102F9000012821616261A36140F251820021236A0C
:102FA000E26928480091FDF715FE189B1D788DE019
:102FB000254B1B7A002B78D0244B197818930929BC
:102FC00000F255822BAB18461A460D935B5C084401
:102FD000013BDBB2092B535415D9002900F0CE82F6
:102FE0000D9B4A1E09251A4402E0002900F0C68202
:102FF000057013781046013BDBB2092B01F1FF315C
:1030000002F80139F1D80DF1B6031993C9E5104A58
:103010000621002004F022FFFDF7FAFE31B0BDE8E2
:10302000F08F00BFAFF3008058850C020000000055
:1030300000E1F50500CA9A3B80969800A086010041
:1030400000AC4206380B0020F8080020590200208E
:10305000FCCF0008D24A0621002004F0FFFEFDF755
:10306000D7FE31B0BDE8F08F2BAB18461A460D9352
:103070005B5C08440133DBB2092B5354C3D90029EC
:1030800000F070820D9B4A1E1A4402E0002900F0F5
:1030900069820570137810460133DBB2092B01F108
:1030A000FF3102F80139F1D8ADE7BE4B1B7A002B96
:1030B00000F0D081BC4B1D78189315B1013DEDB2E5
:1030C0001D702BAB0D930DF1B6031993E6682769BC
:1030D0003046AFA3D3E900233946FDF739F8ACA356
:1030E000D3E900238DF8AC0039463046FDF730F8BF
:1030F00016461F46A8A3D3E9002330463946FDF7FC
:1031000027F8A5A3D3E900238DF8AD003946304652
:10311000FDF71EF816461F46A44A002330463946DE
:10312000FDF716F839468DF8AE00A04A3046002368
:10313000FDF70EF816461F469D4A002330463946D5
:10314000FDF706F839468DF8AF00994A304600235E
:10315000FCF7FEFF16461F46964A002330463946C6
:10316000FCF7F6FF39468DF8B000924A304600234E
:10317000FCF7EEFF16461F4642F21072002330465F
:103180003946FCF7E5FF39468DF8B10042F210727E
:1031900030460023FCF7DCFF16461F464FF47A72D8
:1031A000002330463946FCF7D3FF39468DF8B2008C
:1031B0004FF47A7230460023FCF7CAFF16461F46CA
:1031C0006422002330463946FCF7C2FF39468DF8A9
:1031D000B300642230460023FCF7BAFF16461F46B0
:1031E0000A22002330463946FCF7B2FF39468DF8F3
:1031F000B4000A2230460023FCF7AAFF6669A469DE
:1032000030468DF8B520214661A3D3E90023FCF7B1
:103210009FFF5FA3D3E900238DF8B6002146304617
:10322000FCF796FF16461F465BA3D3E90023304602
:103230003946FCF78DFF58A3D3E900238DF8B7007A
:1032400039463046FCF784FF16461F46574A00238E
:1032500030463946FCF77CFF39468DF8B800534AB2
:1032600030460023FCF774FF16461F46504A0023E1
:1032700030463946FCF76CFF39468DF8B9004C4AA8
:1032800030460023FCF764FF16461F46494A0023D8
:1032900030463946FCF75CFF39468DF8BA00454A9E
:1032A00030460023FCF754FF16461F4642F21072C8
:1032B000002330463946FCF74BFF39468DF8BB00FA
:1032C00042F2107230460023FCF742FF16461F46BA
:1032D0004FF47A72002330463946FCF739FF3946FD
:1032E0008DF8BC004FF47A7230460023FCF730FFB3
:1032F00016461F466422002330463946FCF728FF55
:1033000039468DF8BD00642230460023FCF720FFCB
:1033100016461F460A22002330463946FCF718FF9E
:1033200039468DF8BE000A2230460023FCF710FF14
:10333000002630AC8DF8BF2004F834695F232A469C
:103340000D982146FEF7D4FA30461B4A022104F0BC
:1033500085FD22460221182004F080FD189B199853
:103360001A7827A90A3A5F23D2B2FEF7C1FA30468B
:10337000124A042104F072FD27AA0421182004F047
:103380006DFDFDF745FD31B0BDE8F08FAFF3008076
:1033900000CA9A3B0000000000E1F50500000000B3
:1033A000E8CF00081C0900205902002080969800F0
:1033B00040420F00A0860100E0CF0008E4CF0008E3
:1033C0000B23DFF81C82337003F072FD7D4A29461F
:1033D000284604F0FBFE5F2398F8002023A92BA8C1
:1033E000FEF786FA784A0221284604F037FD23AA20
:1033F0000221182004F032FD98F800205F230A3AD9
:10340000D2B227A90DF1B600FEF772FA6F4A042175
:10341000284604F023FD27AA0421182004F01EFDED
:1034200094F82F30012B7AD06FD3022B53D13B4627
:103430002846674A062104F0EDFFFFF725BB00226E
:10344000644B0092D3E900236348FDF7C3FB189B4C
:103450001D783BE6614B1B7A002B3FF4DFAD604BE0
:103460001D781893122D3FF62CAE013527E6A1F1F9
:103470000A02092A00F2A2800DF1B60318461D4681
:1034800019939B5C1544013BDBB28354092B2BA899
:103490000D907FF686AB002A6BD00346481E0926A6
:1034A00018446A1C0BE002780746013AD2B2092A96
:1034B00000F801297FF675AB7246002B5AD0A2F1B5
:1034C0000C030B445B1B092B02F8016C02F1FF3E5D
:1034D000E9DDFFF766BB3B462846424A062104F079
:1034E00099FFFFF7D1BA002301253F4E394A3380B7
:1034F000C2E900013D4E3848337000930CCA84F88D
:103500002F50FDF767FBFFF7EDBA3378092B02D098
:10351000132B7FF4B9AAFEF737FAFFF7B5BA28469E
:10352000334A062104F076FFFFF7AEBA236AE26958
:103530002948009584F82F50FDF74CFB94F82F3064
:10354000012B34D029D3022B1FD128460123204A36
:10355000062104F05FFFFFF7C5BA374609233B7029
:10356000FFF71FBB09230DF1B60219920370FFF795
:1035700018BB2F4600233B70FFF713BB00230DF150
:10358000B60219920370FFF70CBB28460123154AB7
:10359000062104F03FFFFFF7A5BA3378092B02D0CC
:1035A000132B7FF49FAAFEF7EFF9FFF79BBA28468B
:1035B0000F4A062104F02EFFFFF794BA2BAB0D93B0
:1035C00021E500BFD0CF0008E0CF0008E4CF00081D
:1035D00044CD000868020020380B002004090020B8
:1035E0005902002058CD000860020020700200201F
:1035F00030CD0008000000002DE9F04FCCA3D3E946
:103600000023CF4CB1B0E568266928463146FCF767
:103610009FFDC7A3D3E900238DF8AC0031462846AF
:10362000FCF796FD16461F46C3A3D3E90023304698
:103630003946FCF78DFDC0A3D3E900238DF8AD001A
:1036400039463046FCF784FD16461F46BD4A002326
:1036500030463946FCF77CFD39468DF8AE00B94A54
:1036600030460023FCF774FD16461F46B64A002379
:1036700030463946FCF76CFD39468DF8AF00B24A4A
:1036800030460023FCF764FD16461F46AF4A002370
:1036900030463946FCF75CFD39468DF8B000AB4A40
:1036A00030460023FCF754FD16461F4642F21072C6
:1036B000002330463946FCF74BFD39468DF8B10002
:1036C00042F2107230460023FCF742FD16461F46B8
:1036D0004FF47A72002330463946FCF739FD3946FB
:1036E0008DF8B2004FF47A7230460023FCF730FDBB
:1036F00016461F466422002330463946FCF728FD53
:1037000039468DF8B300642230460023FCF720FDD3
:1037100016461F460A22002330463946FCF718FD9C
:1037200039468DF8B4000A2230460023FCF710FD1C
:103730006569A66928468DF8B52031467CA3D3E992
:103740000023FCF705FD7AA3D3E900238DF8B6002A
:1037500031462846FCF7FCFC16461F4676A3D3E903
:10376000002330463946FCF7F3FC73A3D3E900236A
:103770008DF8B70039463046FCF7EAFC16461F467E
:10378000704A002330463946FCF7E2FC39468DF892
:10379000B8006C4A30460023FCF7DAFC16461F4698
:1037A000694A002330463946FCF7D2FC39468DF889
:1037B000B900654A30460023FCF7CAFC16461F468E
:1037C000624A002330463946FCF7C2FC39468DF880
:1037D000BA005E4A30460023FCF7BAFC16461F4684
:1037E00042F21072002330463946FCF7B1FC3946EC
:1037F0008DF8BB0042F2107230460023FCF7A8FCA3
:1038000016461F464FF47A72002330463946FCF7BD
:103810009FFC39468DF8BC004FF47A723046002385
:10382000FCF796FC16461F466422002330463946B4
:10383000FCF78EFC39468DF8BD006422304600232B
:10384000FCF786FC16461F460A22002330463946FE
:10385000FCF77EFC39468DF8BE000A223046002374
:10386000FCF776FC00253A4E8DF8BF2037788DF8AE
:10387000C050022F00F09C84364F3B7A03F0FF05C6
:103880007BB3A36921696269E068994208BF9042ED
:1038900080F0D882D4F80480D4F8089058EA09055A
:1038A00000F0AD82121A63EB01035B084FEA3202AB
:1038B0004B4508BF4245C0F0A2820922FB79327015
:1038C00003F0FF05002B40F0068594F82F30002B05
:1038D00040F02485FDF772FFFDF79AFA31B0BDE89C
:1038E000F08F1D4B1B7A002B00F05A821B4B19786E
:1038F0001893092940F2B082A1F10A02092A00F2C4
:1039000055850DF1B60318461E4619939B5C164467
:103910000133DBB28354092B2BA80D9039D9002A2F
:1039200000F013850346481E1844721C27E000BFB0
:1039300000CA9A3B0000000000E1F505000000000D
:10394000C40800208096980040420F00A086010025
:103950000200002010090020280900205A0200203F
:1039600090F800E007460EF1010E5FFA8EFEBEF100
:10397000090F00F801E90CD9002B00F0E784A2F14F
:103980000C030B449B1B092B02F8015C02F1FF3274
:10399000E6DD00239DF8BB209946904600270023D2
:1039A000960018EB060049EB07019B463B460F4685
:1039B00000219DF8B920CDE9068992460646894640
:1039C0004FF0000C19469DF8B1005201CDE914AB3F
:1039D000B2EB0A0A804663EB0B0B5B469DF8AFB077
:1039E0004FEAC70ECDE90ABCF5008B464EEA567E7B
:1039F0002E4680000A9DCDE9108918EB000852463A
:103A000049EB01094FEA451A40464946DDE90A8972
:103A1000BAEB080877466BEB0909C246CB46DDE9ED
:103A20000689B6EB08084FF000064FEA432545EA41
:103A3000D2552B469DF8BC5067EB09094FEA422C42
:103A4000CDE902896246A846B1460027CDE916892C
:103A5000DDE9148918EB020849EB0309CDE9048973
:103A6000DDE916234FF000086E014FEAC10EB21ACD
:103A70004EEA507E4FF00006714667EB03039DF857
:103A8000B6704FEA4B25CDE91C78002745EADA5598
:103A9000AB469DF8B7504FEAC00CCDE91E56DDE9A4
:103AA0001056BCEB050561EB0606B146CDE90823CF
:103AB000DDE90223160102969DF8B260A8461D01B9
:103AC00045EA12753B463246CDE91223059B4FEA83
:103AD0004A2E9901049B0395980141EA9361DDE91F
:103AE0000423821A61EB030310461946CDE9200135
:103AF000DDE908018200F2460892002200278B00CF
:103B00009DF8AC107601CDE91A12DDE90A1211EB2D
:103B10000A0142EB0B02CDE90E12DDE902AB1C9A61
:103B200043EA9073DDE91201301A67EB0101174691
:103B3000CDE90401DDE9060110EB0A0041EB0B01C0
:103B40004FF0000BB64DB74A09931E9BCDE9060115
:103B5000A7FB0201DDE91467A3FB05239DF8B8A0CC
:103B60004FEA091ECDE91CAB10EB020A9DF8AD002F
:103B700041EB030B4FEA0811CDE902ABDDE920BCB4
:103B80004EEA187E16EB0B068846DDE90EABA0FB6D
:103B900005015D4647EB0C07CDE91E671A9EAB0198
:103BA000374655469F4EAA01A7FB066716EB000B4A
:103BB00047EB010CDDE90E5643EA9A63551B63EBB4
:103BC0000606CDE90E56DDE90467B3000493002331
:103BD0009DF8BA20BD00CDE914BC45EA96759DF864
:103BE000AE009149CDE91A23DDE90223DDE908ABF6
:103BF0001C9E0595A6FB016792197B4116461F4640
:103C0000DDE9162312EB0A02A0FB010143EB0B03D3
:103C100092469B46DDE91E2392197B41DDE9106740
:103C200016EB080647EB0E07CDE90267DDE91467DE
:103C30003618CDE908234F41B046DDE90656290183
:103C4000330143EA15730691DDE90E56DDE90A12E8
:103C50006D18564129463246CDE90E125946079352
:103C6000B9461A9B714FCE00A3FB0723DDE908017B
:103C7000801859415346CDE90A0100219DF8B00052
:103C8000DB000893039B46EA5A76CDE91001DDE993
:103C900012ABDDE904011AEB000A4BEB010B1D012D
:103CA000DDE90E2318EB020849EB0309DDE90212F6
:103CB0000B0145EA11750293DDE90601DDE90A23EE
:103CC0008018594102460B4610990996A1FB07013D
:103CD00018EB00084046DDE9087849EB0109BF18F8
:103CE00048EB03083A4643464FF0640E4FEACB06D2
:103CF00003954FEACA0546EA5A76AA46DDE90278F4
:103D00000A253F1848EB090838464146B3469DF856
:103D1000BD704FF00009E7FB0E2301279DF8BE6040
:103D20009DF8BF80E6FB052310EB0A0041EB0B0179
:103D300012EB080243EB09033D4E9F4208BF964237
:103D400038BF3B464FF000079DF8B3809DF8B4C0E4
:103D5000E8FB0E010FF2C009D9E90089ECFB05016F
:103D600038BF32469DF8B56094F82F5080197941DC
:103D7000494508BF40453CBF40464946E060681E93
:103D8000012821616261A36140F251820021236A0E
:103D9000E26928480091FCF71DFF189B1D788DE013
:103DA000254B1B7A002B78D0244B197818930929BE
:103DB00000F255822BAB18461A460D935B5C084403
:103DC000013BDBB2092B535415D9002900F0CE82F8
:103DD0000D9B4A1E09251A4402E0002900F0C68204
:103DE000057013781046013BDBB2092B01F1FF315E
:103DF00002F80139F1D80DF1B6031993C9E5104A5B
:103E00000621002004F02AF8FDF702F831B0BDE8E1
:103E1000F08F00BFAFF3008058850C020000000057
:103E200000E1F50500CA9A3B80969800A086010043
:103E300000AC4206380B0020F80800205A0200208F
:103E4000FCCF0008D24A0621002004F007F8FCF756
:103E5000DFFF31B0BDE8F08F2BAB18461A460D934B
:103E60005B5C08440133DBB2092B5354C3D90029EE
:103E700000F070820D9B4A1E1A4402E0002900F0F7
:103E800069820570137810460133DBB2092B01F10A
:103E9000FF3102F80139F1D8ADE7BE4B1B7A002B98
:103EA00000F0D081BC4B1D78189315B1013DEDB2E7
:103EB0001D702BAB0D930DF1B6031993E6682769BE
:103EC0003046AFA3D3E900233946FCF741F9ACA350
:103ED000D3E900238DF8AC0039463046FCF738F9B9
:103EE00016461F46A8A3D3E9002330463946FCF7FF
:103EF0002FF9A5A3D3E900238DF8AD00394630464C
:103F0000FCF726F916461F46A44A002330463946D8
:103F1000FCF71EF939468DF8AE00A04A3046002362
:103F2000FCF716F916461F469D4A002330463946CF
:103F3000FCF70EF939468DF8AF00994A3046002358
:103F4000FCF706F916461F46964A002330463946C6
:103F5000FCF7FEF839468DF8B000924A304600234F
:103F6000FCF7F6F816461F4642F210720023304660
:103F70003946FCF7EDF839468DF8B10042F210727F
:103F800030460023FCF7E4F816461F464FF47A72D9
:103F9000002330463946FCF7DBF839468DF8B2008D
:103FA0004FF47A7230460023FCF7D2F816461F46CB
:103FB0006422002330463946FCF7CAF839468DF8AA
:103FC000B300642230460023FCF7C2F816461F46B1
:103FD0000A22002330463946FCF7BAF839468DF8F4
:103FE000B4000A2230460023FCF7B2F86669A469DF
:103FF00030468DF8B520214661A3D3E90023FCF7B4
:10400000A7F85FA3D3E900238DF8B6002146304618
:10401000FCF79EF816461F465BA3D3E90023304603
:104020003946FCF795F858A3D3E900238DF8B7007B
:1040300039463046FCF78CF816461F46574A00238F
:1040400030463946FCF784F839468DF8B800534AB3
:1040500030460023FCF77CF816461F46504A0023E2
:1040600030463946FCF774F839468DF8B9004C4AA9
:1040700030460023FCF76CF816461F46494A0023D9
:1040800030463946FCF764F839468DF8BA00454A9F
:1040900030460023FCF75CF816461F4642F21072C9
:1040A000002330463946FCF753F839468DF8BB00FB
:1040B00042F2107230460023FCF74AF816461F46BB
:1040C0004FF47A72002330463946FCF741F83946FE
:1040D0008DF8BC004FF47A7230460023FCF738F8B4
:1040E00016461F466422002330463946FCF730F856
:1040F00039468DF8BD00642230460023FCF728F8CD
:1041000016461F460A22002330463946FCF720F89F
:1041100039468DF8BE000A2230460023FCF718F815
:10412000002630AC8DF8BF2004F834695F232A469E
:104130000D982146FDF7DCFB30461B4A022103F0B7
:104140008DFE22460221182003F088FE189B199844
:104150001A7827A90A3A5F23D2B2FDF7C9FB304685
:10416000124A042103F07AFE27AA0421182003F042
:1041700075FEFCF74DFE31B0BDE8F08FAFF3008067
:1041800000CA9A3B0000000000E1F50500000000B5
:10419000E8CF00081C0900205A02002080969800F1
:1041A00040420F00A0860100E0CF0008E4CF0008E5
:1041B0000C23DFF81C82337002F07AFE7D4A294618
:1041C000284604F003F85F2398F8002023A92BA8C1
:1041D000FDF78EFB784A3946284603F03FFE23AAB6
:1041E0003946182003F03AFE98F800205F230A3A77
:1041F000D2B227A90DF1B600FDF77AFB6F4A042170
:10420000284603F02BFE27AA0421182003F026FEDF
:1042100094F82F30012B7AD06FD3022B53D128463C
:104220000123674A062104F0F5F8FFF725BB0022B9
:10423000644B0092D3E900236348FCF7CBFC189B46
:104240001D783BE6614B1B7A002B3FF4DFAD604BE2
:104250001D781893122D3FF62CAE013527E6A1F1FB
:104260000A02092A00F2A2800DF1B60318461D4683
:1042700019939B5C1544013BDBB28354092B2BA89B
:104280000D907FF686AB002A6BD00346481E0926A8
:1042900018446A1C0BE002780746013AD2B2092A98
:1042A00000F801297FF675AB7246002B5AD0A2F1B7
:1042B0000C030B445B1B092B02F8016C02F1FF3E5F
:1042C000E9DDFFF766BB28460123424A062104F0D8
:1042D000A1F8FFF7D1BA002302253F4E394A3380B7
:1042E000C2E900013D4E3848337000930CCA84F88F
:1042F0002F50FCF76FFCFFF7EDBA3378092B02D093
:10430000132B7FF4B9AAFDF73FFBFFF7B5BA284698
:10431000334A062104F07EF8FFF7AEBA236AE26959
:104320002948009584F82F50FCF754FC94F82F305E
:10433000012B34D029D3022B1FD128460123204A38
:10434000062104F067F8FFF7C5BA374609233B702A
:10435000FFF71FBB09230DF1B60219920370FFF797
:1043600018BB2F4600233B70FFF713BB00230DF152
:10437000B60219920370FFF70CBB28460123154AB9
:10438000062104F047F8FFF7A5BA3378092B02D0CD
:10439000132B7FF49FAAFDF7F7FAFFF79BBA284685
:1043A0000F4A062104F036F8FFF794BA2BAB0D93B1
:1043B00021E500BF94CC0008E0CF0008E4CF00085E
:1043C00044CD000868020020380B002004090020BA
:1043D0005A02002058CD0008600200207002002020
:1043E00030CD0008000000002DE9F04F6CA3D3E9A8
:1043F00000236F4C9BB0A668656831462846FBF7E2
:10440000A7FE67A3D3E900238DF84C003146284668
:10441000FBF79EFE16461F4663A3D3E900233046F2
:104420003946FBF795FE60A3D3E900238DF84D00D4
:1044300039463046FBF78CFE16461F465D4A002380
:1044400030463946FBF784FE39468DF84E00594A0E
:1044500030460023FBF77CFE16461F46564A0023D3
:1044600030463946FBF774FE39468DF84F00524A04
:1044700030460023FBF76CFE16461F464F4A0023CA
:1044800030463946FBF764FE39468DF850004B4AFA
:1044900030460023FBF75CFE16461F4642F21072C0
:1044A000002330463946FBF753FE39468DF851005C
:1044B00042F2107230460023FBF74AFE16461F46B2
:1044C0004FF47A72002330463946FBF741FE3946F5
:1044D0008DF852004FF47A7230460023FBF738FE15
:1044E00016461F466422002330463946FBF730FE4D
:1044F00039468DF85300642230460023FBF728FE2E
:1045000016461F460A22002330463946FBF720FE96
:104510000A228DF85400002330463946FBF718FE76
:104520000025DFF8B0908DF8552099F800608DF8DF
:104530005650032E00F06282214B1B7A03F0FF06D7
:10454000002B40F0F7811F4B1B7A83B91E4B1B7A5F
:10455000002B40F009821D4B1B7A002B00F0F481E8
:104560001B4B1D78002D00F02C82013DF5E1184B0E
:104570000DF14C081D781193092D29463ADC18F8E5
:10458000053008EB05000133DBB2092B08F80530D4
:1045900030D9002D00F07E826A1E42441FE000BF29
:1045A00000CA9A3B0000000000E1F5050000000091
:1045B000C40800208096980040420F00A0860100A9
:1045C0001009002028090020F80800201C090020FC
:1045D0005B02002002000020002900F05B820670D0
:1045E000137810460133DBB2092B01F1FF3102F8D9
:1045F0000139F1D800239DF851204FF0000BCDE98F
:104600000623DDE9060100234FEA820A9DF84F20C8
:104610001F4616465B4610EB0A004FEA42128246DE
:1046200041EB0B01901B8B4663EB070102460B46E7
:10463000CDE9086700274FEACB004FEACA0140EAFC
:104640005A7056028A46590241EAD25132469DF8C2
:10465000526083460B46304639460027CDE90A01B1
:10466000DDE90601BAEB00006BEB010182468B46E7
:10467000DDE908018018594100237601CDE90401E4
:10468000DDE90A12711A67EB0202CDE902129DF808
:104690004C204FEA0B1E10469DF84D204EEA1A7E24
:1046A000CDE90C234FEA0A139A46F346059ACC4B00
:1046B0009701A0FB03010C9ACA4BCDE90E01A2FBA6
:1046C0000323049947EA91678E01DDE90E01801802
:1046D0005941CDE90C01DDE90401301A67EB010114
:1046E000DDE90267B200CDE90E0102929DF84E00AD
:1046F000BD4ABB00A0FB020143EA9673DDE90667F1
:1047000016EB0A0647EB0B070393DDE90C2312189F
:104710004B41CDE90423DDE90823DDE90E018018D2
:104720005941B246BB46DDE90A6702460B46DDE960
:104730000201CDE9062336184FEA0A134FEA0B1C93
:104740004F414CEA1A7CDDE90401DDE906AB9DF836
:10475000502010EB0A009A46A44B41EB0B01A2FB40
:10476000032312184B414FEAC70EF1004EEA567E62
:104770000E46642112EB0A0243EB0C0392194FF030
:104780000A064FF0000B9DF8537043EB0E03E7FB56
:1047900001239DF854009DF855A0E0FB062312EB81
:1047A0000A0243EB0B03002B08BFFA2AC0F0068174
:1047B0006069E668A1692769861B61EB07077F08C6
:1047C0004FEA3606BB4208BFB24201D216461F4628
:1047D00094F82F30002B40F035816660A7607CA3F1
:1047E000D3E9002330463946FBF7B2FC78A3D3E97E
:1047F00000238DF84C0039463046FBF7A9FC1646DD
:104800001F4675A3D3E9002330463946FBF7A0FCC9
:1048100071A3D3E900238DF84D0039463046FBF7EC
:1048200097FC16461F46704A002330463946FBF770
:104830008FFC39468DF84E006B4A30460023FBF75B
:1048400087FC16461F466A4A002330463946FBF766
:104850007FFC39468DF84F00654A30460023FBF750
:1048600077FC16461F46614A002330463946FBF75F
:104870006FFC39468DF850005C4A30460023FBF748
:1048800067FC16461F4642F2107200233046394636
:10489000FBF75EFC39468DF8510042F2107230464B
:1048A0000023FBF755FC16461F464FF47A7200238F
:1048B00030463946FBF74CFC39468DF852004FF430
:1048C0007A7230460023FBF743FC16461F466422EB
:1048D000002330463946FBF73BFC39468DF8530040
:1048E000642230460023FBF733FC16461F460A229B
:1048F000002330463946FBF72BFC39468DF854002F
:104900000A2230460023FBF723FC00245F238DF8A6
:10491000552040462A4616A98DF85640FCF7E8FF78
:1049200016AA0321102003F099FAFCF771FA1BB0C4
:10493000BDE8F08FFCF742FFFCF76AFA092389F81B
:1049400000301BB0BDE8F08F2A4B1B7A002BF8D04B
:10495000294B1D78082D34D80135EDB21D706668DD
:10496000A7680DF14C083AE7234B0DF14C081D7870
:104970001193092D29463FF73DAE18F8053008EB95
:104980000500013BDBB2092B08F805307FF632AE9B
:10499000002D00F092806A1E0926424402E00029A0
:1049A00000F08B80067013781046013BDBB2092BB8
:1049B00001F1FF3102F80139F1D81BE6FA26002790
:1049C00006E766680DF14C08A76808E7AFF30080BA
:1049D00000CA9A3B0000000000E1F505000000005D
:1049E00000CA9A3B00E1F50580969800A086010078
:1049F00040420F00040900205B0200200D2389F8CB
:104A0000003002F055FA384A2946284603F0DEFB0A
:104A1000364B16A91A7813A85F23FCF769FF16AA6C
:104A20003146102003F01AFA94F82F30012B3ED0B3
:104A300033D3022B1FD1284601232D4A062103F030
:104A4000E9FC79E50025236AE2692A48009584F8A3
:104A50002F50FCF7BFF894F82F30012B12D038D329
:104A6000022B2DD128460123214A062103F0D2FC36
:104A7000119B1D78B1E6284601231F4A062103F049
:104A8000C9FC59E528461D4A062103F0C3FC119BC9
:104A90001D78A2E609230370ACE599F80030092BD4
:104AA00002D0132B7FF448ADFCF76EFF44E5284697
:104AB000124A062103F0AEFC3EE50023037099E59F
:104AC000284601230C4A062103F0A4FC119B1D7803
:104AD00083E699F80030092B01D0132BF6D1FCF7AF
:104AE00053FF119B1D7878E6BCCF00085B020020C5
:104AF00044CD0008380B002058CD000830CD000808
:104B00002DE9F0430027BE4D85B0AE8D4FF47A728B
:104B1000B6B2002330463946FBF71AFB3946C4B219
:104B20004FF47A72304600238DF80040FBF710FBFB
:104B300016461F466422002330463946FBF708FB21
:104B400039465FFA80F96422304600238DF80190DF
:104B5000FBF7FEFA1F46164600230A223946304666
:104B6000FBF7F6FA39468DF802000A220023304698
:104B7000FBF7EEFA4FF00008A24F8DF803203B78C8
:104B80008DF80480042B00F04B819F4B1B7A03F0BF
:104B9000FF06002B40F0BD809C4B1B7AEBB99C4B71
:104BA0001B7A002B40F0CA809A4B1B7A002B00F036
:104BB000B980994BB5F82C801C78002C00F0FB8054
:104BC000013C4FF000091FFA88F8E4B21C7040461F
:104BD00049464FF47A720023F6E08F4B1C78032C81
:104BE0001DDC1DF804300DEB04000133DBB2092B92
:104BF0000DF8043013D9002C00F06581611E0DEB17
:104C0000010203E0002900F05E810139067013788B
:104C100010460133DBB2092B02F80139F2D800212A
:104C200000239DF800009DF801E04201121A63EB99
:104C300001039E00970046EA92763A1846EB01037C
:104C4000D90041EA5271D000024664260B460A2779
:104C5000E6FB0E239DF802609DF80300E6FB0723A8
:104C60008618002E40F090804FF001084FF00009A8
:104C70000127AF8564220023404649468DF8006035
:104C8000FBF766FA4946C5B26422404600238DF818
:104C90000150FBF75DFA904699460A2200234046F0
:104CA0004946FBF755FA0A228DF8020000234046D8
:104CB0004946FBF74DFA8DF80320002E00F0918055
:104CC00030368DF8046030359DF802308DF805508F
:104CD00003F13002D2B26D25732000219DF803301C
:104CE0008DF8062030338DF807308DF8090001ABC0
:104CF0008DF80A108DF808501D5D1A46803D03217D
:104D000018201D5503F0AAF8FCF782F805B0BDE89D
:104D1000F08309233B70FCF751FDFCF779F805B0EF
:104D2000BDE8F0833D4B1B7A002BF8D03A4BB5F829
:104D30002C801C78022C3ED8013442E7364B1C787C
:104D4000032C3FF76CAF1DF804300DEB0400013B62
:104D5000DBB2092B0DF804307FF661AF002C00F0B8
:104D6000C480611E09260DEB010203E0002900F05A
:104D7000BC800139067013781046013BDBB2092B69
:104D800002F80139F2D84AE74FF000091FFA86F815
:104D90004FF47A72002340464946FBF7D9F9B7B27F
:104DA00049464FF47A720023C6B24046FBF7D0F969
:104DB000904699465DE74FF000091FFA88F84FF4D6
:104DC0007A72002340464946FBF7C2F949464FF440
:104DD0007A720023C6B24046FBF7BAF9904699466C
:104DE00048E75F228DF80420002D7FF46CAF9DF81A
:104DF00002308DF80520002B3FF46DAF68E700BF4F
:104E0000C40800200200002010090020280900200A
:104E1000F80800201C0900205C0200200409002082
:104E20000E233B7002F044F8314A4146404603F0FD
:104E3000CDF9304B1E7894B330348DF8044009F12D
:104E400030099DF802308DF8059003F13002D2B29E
:104E50006D20732100249DF803308DF80620303337
:104E60008DF807308DF8091001AB8DF808008DF82A
:104E70000A40985D1A46803898550321182002F0A0
:104E8000EDFF95F82F30012B29D01FD3022B13D122
:104E900020460123184A062103F0BCFA75E65F227A
:104EA0008DF80420B9F1000FC9D19DF802308DF8BA
:104EB0000520002BCCD0C8E7204601230F4A06214D
:104EC00003F0A8FA61E609230370A8E63B78092BF2
:104ED00002D0132B7FF459AEFCF756FD55E6204661
:104EE000074A062103F096FA4FE60023037096E680
:104EF000B0CF00085C02002044CD000858CD000867
:104F000030CD000870B5614E614D337882B0052B0D
:104F100095F82E4069D05F4B1B7AB3B95E4B1B7A74
:104F200063B1032C01D80134E4B285F82E40042C7F
:104F30001CD8DFE804F014524A423A00574B1B7A5F
:104F40004BB154B1013CE4B2EFE7FCF737FCFBF79F
:104F50005FFF0923337002B070BD85F82E40504AC0
:104F60000321182003F032F995F82E4095F82F30E0
:104F70004C48013B012B80F82B404FF0000109D930
:104F8000EA692B6A0091FBF725FE02B0BDE870408C
:104F9000FBF73EBF444BD3E900230091FBF71AFE19
:104FA00002B0BDE87040FBF733BF404A0321182030
:104FB00003F00CF995F82E40D8E73D4A032118205C
:104FC00003F004F995F82E40D0E73A4A032118205F
:104FD00003F0FCF895F82E40C8E7374A0321182063
:104FE00003F0F4F895F82E40C0E70F23337001F07A
:104FF0005FFF0021314A084603F0E8F8042C09D885
:10500000DFE804F02F29231D0300284A032118207C
:1050100003F0DCF895F82F30012B31D027D3022B89
:1050200006D10123264A0621002003F0F3F972E796
:105030000123244A0621002003F0ECF96BE71C4A07
:105040000321182003F0C2F8E4E71A4A03211820CC
:1050500003F0BCF8DEE7184A0321182003F0B6F885
:10506000D8E70F4A0321182003F0B0F8D2E73378CD
:10507000092B02D0132B7FF44EAFFCF785FC4AE7D7
:10508000114A0621002003F0C5F944E70200002080
:10509000C40800201009002028090020F80800207A
:1050A000B0CD0008380B002068020020D0CD0008E9
:1050B000C8CD0008C0CD0008B8CD000800CD00085C
:1050C00044CD000858CD000830CD00080000000095
:1050D0002DE9F04FE0A3D3E900230026E24DE34F92
:1050E00095F830408BB04FEA440B0BEB040057F8B7
:1050F000208031464046FBF72BF8D7A3D3E90023A5
:105100008DF80C0031464046FBF722F89046994650
:10511000D3A3D3E9002340464946FBF719F8D0A3AF
:10512000D3E900238DF80D0049464046FBF710F8FF
:1051300090469946CE4A002340464946FBF708F878
:1051400049468DF80E00CA4A40460023FBF700F896
:1051500090469946C74A002340464946FAF7F8FF69
:1051600049468DF80F00C34A40460023FAF7F0FF86
:1051700090469946C04A002340464946FAF7E8FF60
:1051800049468DF81000BC4A40460023FAF7E0FF7C
:105190009046994642F21072002340464946FAF77B
:1051A000D7FF49468DF8110042F2107240460023A5
:1051B000FAF7CEFF904699464FF47A7200234046A4
:1051C0004946FAF7C5FF49468DF812004FF47A7246
:1051D00040460023FAF7BCFF90469946642200231C
:1051E00040464946FAF7B4FF49468DF81300642259
:1051F00040460023FAF7ACFF904699460A22002366
:1052000040464946FAF7A4FF0A228DF8140000230D
:1052100040464946FAF79CFFDFF86CA28DF815204E
:105220009AF800308DF81660062B00F06781934BDA
:105230001B7A002B40F03581914B1B7A03F0FF0263
:10524000002B00F02381242C40F23581A3444FEA47
:105250008B0B07EB0B0357F80B101E79DF881A7ABC
:1052600095F82F308748013B012B85F83040696263
:10527000816007838676C27640F238810021EA6930
:105280002B6A0091FBF7A6FC73A3D3E90023002649
:105290006D6A31462846FAF75BFF6FA3D3E9002316
:1052A0000446314628468DF80C40FAF751FF9046E7
:1052B00099466BA3D3E9002340464946FAF748FFD5
:1052C00067A3D3E900238DF80D0049464046FAF75D
:1052D0003FFF90469946664A002340464946FAF702
:1052E00037FF49468DF80E00614A40460023FAF721
:1052F0002FFF904699465F4A002340464946FAF7F9
:1053000027FF49468DF80F005A4A40460023FAF716
:105310001FFF90469946584A002340464946FAF7EF
:1053200017FF49468DF81000534A40460023FAF70C
:105330000FFF9046994642F21072002340464946BC
:10534000FAF706FF49468DF8110042F21072404606
:105350000023FAF7FDFE904699464FF47A72002337
:1053600040464946FAF7F4FE49468DF812004FF4DC
:105370007A7240460023FAF7EBFE90469946642283
:10538000002340464946FAF7E3FE49468DF81300EC
:10539000642240460023FAF7DBFE904699460A2233
:1053A000002340464946FAF7D3FE0A228DF814003E
:1053B000002340464946FAF7CBFEE4B28DF816606A
:1053C0008DF81520002C00F0818004F130009DF84C
:1053D0000D308DF8180030338DF819309DF80E30EF
:1053E0003033DCB24FF02E0E202700269DF80F3010
:1053F0009DF8112030339DF812109DF813009DF890
:1054000010508DF81A408DF81B309DF814409DF80F
:1054100015303032303130303033303530348DF873
:105420001E208DF81F1006AA03218DF821001020E0
:105430008DF823308DF81CE08DF81D508DF822403A
:105440008DF820708DF8246002F008FDFBF7E0FC79
:105450000BB0BDE8F08F00BF00CA9A3B000000000F
:1054600000E1F50500000000C4080020E8CD0008B8
:105470008096980040420F00A0860100100900208D
:1054800028090020380B0020020000205D4B1B7A09
:1054900003F0FF06002BDBD0002C00F08B80013CDA
:1054A0000AE0FCF78BF9FBF7B3FC09238AF800301C
:1054B0000BB0BDE8F08F0134E4B204EB44039B0071
:1054C000FA18F9581679D788127AC9E620249DF877
:1054D0000D308DF81840002B7FF47DAF9DF80E3015
:1054E0008DF81940002B3FF47DAF79E70021464B42
:1054F000D3E900230091FBF76DFBC5E610238AF882
:10550000003001F0D5FC414A3146304602F05EFEE3
:105510009DF80C30002B50D030338DF818309DF8AA
:105520000D3030338DF819309DF80E303033DAB24B
:105530002E204FF0200E00269DF80F309DF8101001
:1055400030338DF81A209DF811208DF81B309DF80E
:1055500012303031303230338DF81D108DF81E206E
:105560009DF813109DF814208DF81F309DF815300C
:105570003031303230338DF821108DF822208DF803
:105580001C0006AA032110208DF823308DF820E09E
:105590008DF8246002F062FC95F82F30012B2BD09F
:1055A00020D3022B17D130460123194A062102F0DD
:1055B00031FF3CE60127174952E620229DF80D30C5
:1055C0008DF81820002BACD19DF80E308DF81920E5
:1055D000002BADD0AAE7304601230F4A062102F086
:1055E00019FF24E69AF80030092B02D0132B7FF420
:1055F0001EAEFCF7C9F91AE63046084A062102F049
:1056000009FF14E6F808002068020020D8CD000841
:1056100044CD0008404B4C0058CD000830CD000868
:105620002DE9F04FC0A3D3E900230025C24C99B067
:10563000666A29463046FAF78BFDBBA3D3E90023FF
:105640008DF8440029463046FAF782FD16461F467B
:10565000B7A3D3E9002330463946FAF779FDB4A35E
:10566000D3E900238DF8450039463046FAF770FD3E
:1056700016461F46B14A002330463946FAF768FD00
:1056800039468DF84600AD4A30460023FAF760FDF2
:1056900016461F46AA4A002330463946FAF758FDF7
:1056A00039468DF84700A64A30460023FAF750FDE8
:1056B00016461F46A34A002330463946FAF748FDEE
:1056C00039468DF848009F4A30460023FAF740FDDE
:1056D00016461F4642F21072002330463946FAF74A
:1056E00037FD39468DF8490042F2107230460023EA
:1056F000FAF72EFD16461F464FF47A720023304605
:105700003946FAF725FD39468DF84A004FF47A728A
:1057100030460023FAF71CFD16461F46642200237C
:1057200030463946FAF714FD39468DF84B006422AD
:1057300030460023FAF70CFD16461F460A220023C6
:1057400030463946FAF704FD0A228DF84C00002352
:1057500030463946FAF7FCFCDFF800828DF84D2020
:1057600098F800308DF84E50072B00F03C82764BB5
:105770001B7A03F0FF06002B40F0EF81734B1B7A7E
:10578000002B40F0BC80724B1B7A002B40F0FD8157
:10579000704B1B7A002B00F0EA816F4B1E78002EB5
:1057A00040F01C8211AD00275FA3D3E90023646A97
:1057B00039462046FAF7CCFC5BA3D3E900238DF8E9
:1057C000440039462046FAF7C3FC9046994658A350
:1057D000D3E9002340464946FAF7BAFC54A3D3E97B
:1057E00000238DF8450049464046FAF7B1FC904643
:1057F0009946524A002340464946FAF7A9FC4946D1
:105800008DF846004D4A40460023FAF7A1FC904629
:1058100099464B4A002340464946FAF799FC4946C7
:105820008DF84700464A40460023FAF791FC90461F
:105830009946444A002340464946FAF789FC4946BE
:105840008DF848003F4A40460023FAF781FC904615
:10585000994642F21072002340464946FAF778FC16
:1058600049468DF8490042F2107240460023FAF78B
:105870006FFC904699464FF47A72002340464946A1
:10588000FAF766FC49468DF84A004FF47A724046B2
:105890000023FAF75DFC90469946642200234046B7
:1058A0004946FAF755FC49468DF84B0064224046BC
:1058B0000023FAF74DFC904699460A220023404601
:1058C0004946FAF745FC0A228DF84C000023404671
:1058D0004946FAF73DFC28468DF84D2014A932467A
:1058E0005F238DF84E70FCF703F814AA03211020F3
:1058F00002F0B4FAFBF78CFA19B0BDE8F08F164B42
:1059000011AD19780F93092937DC6B5C68180133E6
:10591000DBB2092B6B5430D9002900F09881013992
:105920006A1821E0AFF3008000CA9A3B0000000033
:1059300000E1F50500000000C408002080969800F2
:1059400040420F00A0860100100900202809002015
:10595000F80800201C0900205D0200200200002041
:10596000002900F074810139067013781046013364
:10597000DBB2092B02F80139F2D800239DF8492047
:105980004FF0000BCDE90623DDE9060100234FEAC5
:10599000820A9DF84720984617465B4610EB0A009E
:1059A00041EB0B01520182468B46D01B63EB080191
:1059B00002460B464FEACB004FEACA01CDE9087810
:1059C00040EA5A709DF84A808A464FF000098346A3
:1059D0005902560241EAD251324646460B46002150
:1059E000CDE90C89DDE90678BAEB07076BEB08080F
:1059F000CDE90278DDE90C897001DDE90867B618A8
:105A00005F41BB46B246B0EB080861EB0909039958
:105A10009DF844600B010299CDE90AAB0F01029792
:105A2000964F9DF84520A6FB076743EA1173B246DF
:105A30000A99934ECDE904894FEA8B19BB4649EA8E
:105A40009169A2FB0667DDE90A12039313461AEB7C
:105A5000060A4FEA81184BEB070BB8EB010269EB22
:105A60000303DDE904019046820099469DF84660F3
:105A70000492844A8B00A6FB0267CDE90AABDDE9FC
:105A800002AB43EA9073DDE906011AEB000A4BEB27
:105A9000010BDDE90A1289197A410E461746059372
:105AA000DDE9082312EB080243EB0903CDE90223E9
:105AB000DDE90C01DDE9042312184B4119461046BB
:105AC000DDE9022392197B4116464FEA0A1E4FEA8E
:105AD0000B1C4CEA1A7C1F46F2469DF848806A4A25
