:020000040800F2
:1000000000500020198B000811100008151000087E
:10001000191000081D100008211000080000000041
:100020000000000000000000000000002510000893
:1000300029100008000000002D10000831100008F1
:10004000618B0008618B0008618B0008618B0008E0
:10005000618B0008618B0008618B0008618B0008D0
:10006000618B0008618B0008618B0008618B0008C0
:10007000618B0008618B0008618B0008618B0008B0
:10008000618B0008618B0008618B0008F513000884
:1000900001140008618B0008618B0008618B000867
:1000A000618B0008618B0008618B0008618B000880
:1000B000618B0008618B0008618B0008618B000870
:1000C000618B0008618B0008618B0008618B000860
:1000D000618B000845130008618B0008618B0008E4
:1000E000618B0008618B0008618B00080000000034
:1000F0000000000000000000000000000000000000
:0C01000000000000000000005FF808F1A3
:1001100010B5054C237833B9044B13B10448AFF341
:1001200000800123237010BDE801002000000000C2
:1001300098D0000808B5034B1BB103490348AFF33F
:10014000008008BD00000000EC01002098D00008ED
:1001500053B94AB9002908BF00281CBF4FF0FF312E
:100160004FF0FF3000F07AB9ADF1080C6DE904CE24
:1001700000F006F8DDF804E0DDE9022304B0704782
:100180002DE9F0478C460E460446089D002B50D1C1
:100190008A4217466CD9B2FA82FEBEF1000F0BD02C
:1001A000CEF1200C01FA0EF620FA0CFC02FA0EF742
:1001B0004CEA060C00FA0EF43A0CBCFBF2F9BBB2A6
:1001C00002FB19CC09FB03FA4FEA144848EA0C4633
:1001D000B2450AD9F61909F1FF3180F02581B245FF
:1001E00040F22281A9F102093E44A6EB0A06B6FBC1
:1001F000F2F002FB106600FB03F3A4B244EA0644EB
:10020000A34209D9E41900F1FF3280F00B81A34227
:1002100040F2088102383C440021E41A40EA0940D7
:10022000002D62D0002324FA0EF42C606B60BDE830
:10023000F0878B4207D9002D55D0002185E8410079
:100240000846BDE8F087B3FA83F1002940F08F80BB
:10025000B34202D3824200F2FC80841A66EB0306AA
:100260000120B446002D40D085E81010BDE8F0878D
:1002700012B90127B7FBF2F7B7FA87FEBEF1000FFC
:1002800035D10121F61B4FEA174C1FFA87F8B6FB50
:10029000FCF20CFB126608FB02F0230C43EA064654
:1002A000B04207D9F61902F1FF3302D2B04200F290
:1002B000D2801A46361AB6FBFCF00CFB106608FB1F
:1002C00000F8A3B243EA0644A04507D9E41900F1B7
:1002D000FF3302D2A04500F2B9801846A4EB08040F
:1002E00040EA02409CE729462846BDE8F08707FA25
:1002F0000EF7CEF1200326FA03F24FEA174CB2FBB9
:10030000FCF11FFA87F80CFB112206FA0EF620FA10
:1003100003F301FB08F933431E0C46EA0246B145DC
:1003200000FA0EF409D9F61901F1FF3280F08C8041
:10033000B14540F2898002393E44A6EB0906B6FB7E
:10034000FCF00CFB106200FB08F99EB246EA024684
:10035000B14507D9F61900F1FF3371D2B1456FD914
:1003600002383E44A6EB090640EA01418FE7C1F19D
:10037000200722FA07F88B4048EA030326FA07F41D
:100380004FEA134EB4FBFEF91FFA83FC0EFB19442F
:100390008E4020FA07F809FB0CFA48EA06084FEAF3
:1003A000184646EA0444A24502FA01F200FA01F6B0
:1003B00008D9E41809F1FF3044D2A24542D9A9F185
:1003C00002091C44A4EB0A04B4FBFEF00EFB10442B
:1003D00000FB0CFC1FFA88F848EA0444A44507D93E
:1003E000E41800F1FF3E29D2A44527D902381C4465
:1003F00040EA0940A0FB0289A4EB0C0CCC45C246A4
:10040000CE4615D312D055B1B6EB0A036CEB0E06EF
:1004100006FA07F7CB401F43CE402F606E600021E5
:10042000BDE8F0871046F7E68946DEE64645EAD2A3
:10043000B8EB020A69EB030E0138E4E77046D7E730
:1004400018468FE78146BDE7114676E702383C44FF
:1004500044E7084606E7023A3E442BE7704700BFF0
:100460000346F0B5002283B0060E4FF40041050CA0
:10047000040A27488DF807308DF804608DF8055080
:100480008DF8064009F088F8322000F0F9FC0022CF
:100490004FF400511E4809F07FF802AF01AE082565
:1004A00016F8014B322000F0EBFCE2094FF48041DA
:1004B000174809F071F8322000F0E2FC01224FF4F5
:1004C0000041134809F068F8322000F0D9FC0022FE
:1004D0004FF400410E4809F05FF86400013DE4B2BA
:1004E000E0D1BE42DBD1322000F0CAFC2A464FF4F4
:1004F0008041074809F050F8322000F0C1FC012289
:100500004FF40051024809F047F8284603B0F0BD07
:10051000000C014000000000002800F00981F8B53F
:10052000894B04689C4240F0FD8085A7D7E90067AD
:1005300047F6F873B0F84C40B0F84EE003EAC40454
:10054000B0F8505044EACE3403EAC5034466D0E91B
:100550000E45AF4208BFA64238BF43F0006343F4E4
:1005600000438366002900F0838040240025467FF5
:10057000837F002E08BF2C460BB144F0800490F816
:100580002030B0F84460714D5B0205EA863503F413
:10059000F0532B43C57E43F4005323430DB143F086
:1005A0008073847E0CB143F0007390F8214090F882
:1005B0002250A40604F0E0541C430DB144F0C044A2
:1005C00047F6F87390F82A50078DED0390F82360F2
:1005D00005F4C03503EAC703C4662B430EB143F4E8
:1005E000802390F824400CB143F4001390F8254088
:1005F0000CB143F4800390F826400CB143F400039F
:100600000367002956D090F82B60002E69D0D0E9FE
:100610000C4554EA05036ED1002690F82E30002BCD
:1006200040F089804FF4B00490F8523090F85810A0
:100630001B03090543F4000301F4E0010B433343BA
:1006400043678467F2B1052500F1780700F1900453
:1006500057F8046945EA0600FFF702FF002805F194
:10066000FF355CDB6B1C44F80469F1D10020F8BD58
:10067000D0E90C4554EA050315BF40246024002549
:10068000202574E7052400F1780555F80469042C49
:1006900044EA060004D0012C02DDEB69B34204D029
:1006A000FFF7DEFE00283ADBEE6114F1FF34ECD2F6
:1006B0000020F8BD90F82E1090F82B30002914BFC0
:1006C0004FF480660026002BACD190F82C30002B24
:1006D000A8D1D0E90C4554EA050308BF46F40066EA
:1006E000A0E790F82C10002996D0D0E90C4554EAE8
:1006F000050392D009E0731EDB0090F82C1003F084
:10070000180343F02006002987D04B1E9B0190F868
:100710002D10DBB2334341B943F480767DE76FF0AF
:100720000200F8BD6FF00100F8BD43F4407674E7B5
:100730004FF0FF30704746F4806673E7AFF30080F8
:1007400000A493D6000000005143DF0A00C0FF0060
:100750002DE9F04F83B09DF8309030B116461F461A
:100760000268BD4B04469A4204D00020002103B029
:10077000BDE8F08F90F822500021B3A3D3E9002305
:10078000002D0CBF0225322500204FF0000E0195F0
:10079000BDF804C0E568C4E90C01C4E90E01BB4220
:1007A000218B08BFB242A4F85CC084F858E0C4F8BA
:1007B00048E0A4F84CE0A4F84EE0A4F850E084F837
:1007C00052E0C4F854E02564A4F8441080F0958009
:1007D0004B23236640F2FE324B1E9BB2934200F243
:1007E0008280002D7FD00FF2682BDBE900ABA27E68
:1007F000E37E002A0CBF01200220002B0CBF4FF02B
:10080000010C4FF0020CBB4508BFB245C4E90E67AE
:10081000D4F808E0C0F015814FF00108B21947EB99
:1008200007039B4508BF9245C4E90E2384F858800E
:100830006AD34FF0020807FA08F343EA967306FA00
:1008400008F29B4508BF9245C4E90E2384F85880FE
:100850005AD34FF0030807FA08F343EA567306FA2F
:1008600008F29B4508BF9245C4E90E2384F85880DE
:100870004AD34FF0040807FA08F343EA167306FA5E
:1008800008F29B4508BF9245C4E90E2384F85880BE
:100890003AD34FF0050807FA08F343EAD66306FA9D
:1008A00008F29B4508BF9245C4E90E2384F858809E
:1008B0002AD34FF0060807FA08F343EA966306FACC
:1008C00008F29B4508BF9245C4E90E2384F858807E
:1008D0001AD3072207FA02F343EA56639640E3630A
:1008E000A66384F85820204601220021FFF714FE59
:1008F0000020002103B0BDE8F08F1723236656EADD
:1009000007037FF467AFEEE716461F4600FB0EFABB
:100910000CFB01F1BAFBF1FABAFBF5FB40F6FD72F4
:100920001FFA8BF5AB1E9BB29342C4F848A0A4F803
:100930005050D8D85246002330463946FFF708FCBD
:10094000A9B2A1FB062301FB073386B21946104664
:100950000023A4F84E605246FFF7FAFB06FB150091
:10096000237F80B2A4F84C00B3B1A8B1854234BF54
:100970002B460346012B0FD91FFA8BFBBBFBF3F26F
:1009800003FB12B129B9B0FBF3F103FB1107002FF0
:100990004ED0013B012BF1D1019AAA4212D943005A
:1009A000B3F5805F03DB0DE0B3F5805F06DA6D0021
:1009B000ADB298B2AA424FEA4003F5D8A4F84C0071
:1009C000A4F8505094F82610244A0029244B18BF4C
:1009D0001346BAFBF3F223484FF2244118BF0146F5
:1009E000636503FB12A3D2B28B4288BF013284F845
:1009F0005220D5B1B4F84C0005FA08F205FB060503
:100A0000A5FB0A01EF170AFB07110023FFF7A0FB64
:100A1000C4E90C014A4601212046FFF77DFD00286C
:100A2000FFF661AFD4E90C01A1E600200021EFE759
:100A300088B295B2A4F84C00A4F85050002DC1D053
:100A4000AAE74FF0000861E700A493D60000000079
:100A5000FF552183000000005143DF0A20A1070059
:100A600048E8010090D00300002800F0B3812DE990
:100A7000F84F044601224FF48051D14808F08CFD14
:100A800001224FF40051CE4808F086FD00224FF4B9
:100A90008041CB4808F080FD00224FF40041C84857
:100AA00008F07AFDD4E90467C1A3D3E9002394F8E0
:100AB00022504FF0000E002D4FF000004FF00001CB
:100AC0000CBF02253225DFF80883D4F80CC084F867
:100AD00058E0C4F848E0A4F84CE0A4F84EE0A4F8CC
:100AE00050E084F852E0C4F854E0BB42B4F818E097
:100AF00008BFB242A4F85C50C4E90C01C4E90E017D
:100B0000C4F80080C4F840C0A4F844E080F09880A5
:100B10004B23236640F2FE320EF1FF339BB2934229
:100B200000F28580BCF1000F00F08180A2A3D3E920
:100B30000023A07EE17E00280CBF4FF001084FF09B
:100B4000020800290CBF4FF0010A4FF0020ABB4215
:100B500008BFB242C4E90E67D4F80890C0F0228101
:100B60004FF0010BB01947EB07018B4208BF8242DF
:100B7000C4E90E0184F858B069D34FF0020B07FAAC
:100B80000BF141EA967106FA0BF08B4208BF8242E4
:100B9000C4E90E0184F858B059D34FF0030B07FA9B
:100BA0000BF141EA567106FA0BF08B4208BF824204
:100BB000C4E90E0184F858B049D34FF0040B07FA8A
:100BC0000BF141EA167106FA0BF08B4208BF824224
:100BD000C4E90E0184F858B039D34FF0050B07FA79
:100BE0000BF141EAD66106FA0BF08B4208BF824254
:100BF000C4E90E0184F858B029D34FF0060B07FA68
:100C00000BF141EA966106FA0BF08B4208BF824273
:100C1000C4E90E0184F858B019D3072207FA02F389
:100C200043EA56639640E363A66384F8582020465F
:100C300001220021FFF770FC6FF00100BDE8F88F82
:100C40001723236656EA07037FF464AFEFE70646EF
:100C50000F4608FB09F80AFB0EFEB8FBFEF8B8FBCE
:100C6000FCF940F6FD721FFA89FAAAF102039BB261
:100C70009342C4F84880A4F850A0D8D84246002334
:100C800030463946FFF764FA1FFA8AF1A1FB0623C2
:100C900001FB073386B2194610460023A4F84E60C4
:100CA0004246FFF755FA06FB1A00237F80B2A4F8EC
:100CB0004C00B3B1A8B1824534BF53460346012B63
:100CC0000FD91FFA89FCBCFBF3F203FB12C129B94F
:100CD000B0FBF3F103FB1107002F58D0013B012BB0
:100CE000F1D1554514D94300B3F5805F03DB0FE024
:100CF000B3F5805F08DA4FEA4A0A1FFA8AFA98B217
:100D000055454FEA4003F3D8A4F84C00A4F850A08E
:100D100094F826102B4A00292B4B18BF1346B8FB1A
:100D2000F3F22A484FF2244118BF0146636503FBE2
:100D30001283D2B28B4288BF013284F85220BAF1BA
:100D4000000F21D0B4F84C000AFA0BF20AFB060A95
:100D50005646AAFB0801F71708FB07110023FFF707
:100D6000F7F90122C4E90C0111462046FFF7D4FB34
:100D70000028FFF65CAFD4E90C23134314BF002016
:100D80006FF00100BDE8F88F00200021E9E788B28C
:100D90001FFA82FAA4F84C00A4F850A0BAF1000F90
:100DA000B6D09EE74FF0000B53E700BFAFF30080D3
:100DB00000A493D600000000FF552183000000002E
:100DC000000C014020A1070048E8010090D003007A
:100DD0005143DF0A4FF0FF30704700BF00000000B2
:100DE000B0B300232DE9F0411BA5D5E90045012250
:100DF000002600274FF007084FF0060C4FF0960E24
:100E00000421C0E90467C0E9024502830277427702
:100E100080F82D208376C3768377C37780F82230DD
:100E200080F8233080F8243080F8253080F8263090
:100E300080F82A3080F82E3080F82C3080F820801E
:100E400080F821C0A0F828E080F82B10BDE8F081E0
:100E5000704700BFAFF3008040787D01350C000083
:100E600000B9704738B5044608F030F8054600E090
:100E700030BF08F02BF8401B8442F9D838BD00BFC2
:100E80004FF06043002130B5134C144AC3F8B04F03
:100E9000D368134C43F08073D360236883B043F06E
:100EA000010323606160054609F0A6FA08A3D3E9AF
:100EB0000023A0FB0501FFF74BF9214601904A688A
:100EC000019B9A42FBD303B030BD00BFAFF300805B
:100ED00000CA9A3B0000000055CEACC5F0ED00E022
:100EE000001000E0002048F2084310B4204C4208F3
:100EF00010F0010F82EA030118BF0A46510812F0F0
:100F0000010F81EA030218BF11464A0811F0010FD0
:100F100082EA030118BF0A46510812F0010F81EA64
:100F2000030218BF11464A0811F0010F82EA0301BB
:100F300018BF0A46510812F0010F81EA030218BFD8
:100F400011464A0811F0010F82EA030118BF0A4650
:100F5000510812F0010F81EA030218BF1146013057
:100F6000B0F5807F24F8021FC1D110BC704700BFCC
:100F70003209002008B5044808F036FB18B94FF4D0
:100F80007A62024B1A8008BD0C020020000000208B
:100F9000194B1A7A32B100221A705A801A719A715A
:100FA000DA711A72154B1A7A32B100221A705A800D
:100FB0001A719A71DA711A72114B1A7A32B10022CF
:100FC0001A705A801A719A71DA711A720D4B1A7A64
:100FD00032B100221A705A801A719A71DA711A723B
:100FE000094B1A7A32B100221A705A801A719A711A
:100FF000DA711A72704700BF1C0900200409002032
:1010000028090020F808002010090020704700BFC0
:10101000704700BFFEE700BFFEE700BFFEE700BF6E
:10102000FEE700BF704700BF704700BF704700BFBA
:1010300038B507F03FFF4FF6FE72924BD3F804121B
:10104000914204D8D3F804220132C3F804224FF6A7
:10105000FE728D4BD3F80412914204D8D3F80422C7
:101060000132C3F804224FF6FF71884A13889BB2FD
:101070008B4203D0138801339BB213800221844832
:1010800008F084FA834B1A78002840F043811D2A27
:101090000AD81A780132D2B21D2A1A7004D91A79E4
:1010A00012B901221A719A715A8892B2B2F5FA7F76
:1010B0000BD25A88013292B2B2F5FA7F5A8004D329
:1010C0005A7912B901225A71DA710121724808F075
:1010D0005DFA724B1A78002840F005811D2A0AD863
:1010E0001A780132D2B21D2A1A7004D91A7912B9AB
:1010F00001221A719A715A8892B2B2F5FA7F0BD214
:101100005A88013292B2B2F5FA7F5A8004D35A79E2
:1011100012B901225A71DA7102215F4808F036FAD9
:101120005F4B1A78002840F0C7801D2A0AD81A7829
:101130000132D2B21D2A1A7004D91A7912B90122C9
:101140001A719A715A8892B2B2F5FA7F0BD25A8804
:10115000013292B2B2F5FA7F5A8004D35A7912B9A9
:1011600001225A71DA710821494808F00FFA4D4BF3
:101170001A78002870D11D2A0AD81A780132D2B202
:101180001D2A1A7004D91A7912B901221A719A719A
:101190005A8892B2B2F5FA7F0BD25A88013292B2D3
:1011A000B2F5FA7F5A8004D35A7912B901225A71E2
:1011B000DA710421364808F0E9F93B4B1A78002827
:1011C00034D11D2A0AD81A780132D2B21D2A1A70D7
:1011D00004D91A7912B901221A719A715A8892B2F5
:1011E000B2F5FA7F0BD25A88013292B2B2F5FA7F89
:1011F0005A8004D35A7912B901225A71DA71012442
:101200002A4A92F82F30013BA3420ED828490B7886
:1012100003F0FF054BB92748928D038823449BB206
:101220009A4203809CBF05800C7038BD5AB11A7871
:10123000013AD2B21A7032B9197921B101211A7169
:101240005A7119725A805A8892B2002AD7D05A8895
:10125000013A92B25A80D2E75AB11A78013AD2B220
:101260001A7032B9197921B101211A715A711972A2
:101270005A805A8892B2002A9BD05A88013A92B278
:101280005A8096E7840400207402002000000020A9
:10129000000801401C090020000C01400409002046
:1012A00028090020F808002010090020C4080020A8
:1012B00070020020600200205AB11A78013AD2B2BE
:1012C0001A7032B9197921B101211A715A71197242
:1012D0005A805A8892B2002A3FF445AF5A88013AA0
:1012E00092B25A803FE75AB11A78013AD2B21A70D4
:1012F00032B9197921B101211A715A7119725A80C2
:101300005A8892B2002A3FF407AF5A88013A92B243
:101310005A8001E75AB11A78013AD2B21A7032B93A
:10132000197921B101211A715A7119725A805A889A
:1013300092B2002A3FF4C9AE5A88013A92B25A805A
:10134000C3E600BF284970B40B681A68D86816074E
:101350001CBF6FF00F041C60950602D584065E6802
:1013600026D4160614D5050612D50D6A35B1CC8CD7
:10137000A4B21CB191F83940212C2AD00025202696
:10138000DC6824F08004DC60CD840D6281F8396073
:1013900054060BD5420609D500202024DA6822F035
:1013A0004002DA60C884086281F8394070BC704736
:1013B0000E4CA342D5D10E4DD5F80042B4F5007FB6
:1013C00001D22E5501340026C5F80042C5F804624A
:1013D000C7E76C1C0C622C785C60CC8C013CA4B21E
:1013E000CC84002CCAD0D3E718020020003801407A
:1013F00074020020014808F095B900BFBC1A002013
:10140000014808F08FB900BFBC1A002070B50A4D22
:10141000D5F80042C4F500768E4228BF0E4601463C
:10142000324628190AF013FF00233444C5F800425D
:10143000C5F8043270BD00BF840400200E4B82B09A
:101440009A690E4942F001029A619A6902F001021A
:101450000092009ADA6942F08052DA61DB6903F0A7
:1014600080530193019B4B6823F0E06343F00073CA
:101470004B6002B0704700BF001002400000014006
:1014800070B594B00AA8282200210AF0EBFE0024CF
:101490004FF48032012302254FF4E01109260AA8F7
:1014A0000B9212920E93109313910594019406944B
:1014B0000794089409940294039404940A9611954D
:1014C00008F0C8FC0F224FF48063294605A8059256
:1014D000089306950794099408F0C0FE102301A80C
:1014E0000494019308F0AEFF14B070BD062140F2E1
:1014F0000D3310B5074C084A204661602260A36096
:1015000008F04EF810B9054B188010BD0023236079
:1015100010BD00BF0C020020003000400000002081
:1015200010B50B4C4022002120460AF09BFE4FF4E0
:10153000E1320C230749204684E80600636109F084
:1015400005F810B923685B6810BD0023236010BD47
:101550001802002000380140F0B500240268244B36
:1015600087B09A42029403940494059401D007B082
:10157000F0BD02264FF4007703F558439A690546FB
:1015800042F480429A619A6902A902F48042009270
:10159000009A9A69174842F004029A619B6903967F
:1015A00003F004030193019B0596029707F0E4FE04
:1015B0004FF4806302A90F4803940494029307F048
:1015C000DBFE2B682246D868314640F48070D86034
:1015D0005C69252044F001045C61DC6844F020046F
:1015E000DC6007F08BFC252007F0BEFC07B0F0BDE7
:1015F000003801400008014038B50025044C054B77
:10160000204684E8280007F0D5FC00B1256038BDED
:1016100004020020003002400268094B9A4200D0C8
:101620007047A3F500535A6982B042F040025A61F4
:101630005B6903F040030193019B02B0704700BF58
:10164000003002402DE9F04300244FF0200989B01A
:10165000674B04940594069407949A69012742F015
:1016600004029A619A694FF0020802F004020092A3
:10167000009A9A695F4E42F008029A619A695E4D3B
:1016800002F008020192019A9A69304642F0100273
:101690009A619969224601F01001029102999969B3
:1016A00041EA0901996149469B690B400393039BF9
:1016B00007F072FF22462846102107F06DFF2246F0
:1016C0002846494607F068FF22462846402107F091
:1016D00063FF22462846802107F05EFF30463A46E7
:1016E0004FF4805107F058FF30463A464FF400510E
:1016F00007F052FF224630464FF4804107F04CFF7E
:10170000224630464FF4004107F046FF04A9304618
:1017100006940597CDF81C80CDF8109007F02CFEAC
:10172000102328460DEB0301049305970694CDF88A
:101730001C8007F021FE04A92846CDF8109007F080
:101740001BFE402304A92846049307F015FE8023BE
:1017500004A92846049307F00FFE04A9284605941F
:101760000697CDF8108007F007FE042304A9284649
:10177000049307F001FE082304A92846049307F008
:10178000FBFD04A93046049707F0F6FD04A9304696
:10179000CDF8108007F0F0FD4FF4805304A93046D7
:1017A000049305970694079707F0E6FD4FF400535E
:1017B00004A93046049307F0DFFD4FF4804304A9E9
:1017C0003046049307F0D8FD4FF40043304604A997
:1017D000049307F0D1FD4FF4807304A928460594C3
:1017E0000697049307F0C8FD09B0BDE8F08300BF79
:1017F00000100240000C0140000801402DE9F047B4
:1018000007460E46154607F061FB002F3FD0002E1D
:101810003DD03B4B04461B6873B107F057FB001BE0
:10182000132808D809F082FE002834D007F04EFBB8
:10183000001B1328F6D955B3324D2B68002B58D016
:1018400007F044FB001B132823D895F83930202BD0
:10185000F6D12B6A002BF3D12B4C2C4D206820B1F4
:101860002B689E423AD90AF0DBFC06F1800323F094
:101870007F0318462B600AF0CBFC206070BBB2B22D
:101880003946BDE8F04714231E4808F0C9BEBDE83C
:10189000F087BDE8F087DFF87880DFF87890D8F837
:1018A000000028B1D9F800309E420DD90AF0B8FCEA
:1018B00006F1800323F07F031846C9F800300AF0D0
:1018C000A7FCC8F80000B0B1394632460AF0BFFCA8
:1018D000D8F80000B1B209F037FEACE7394632461D
:1018E0000AF0B5FCB2B221680648BDE8F04708F03E
:1018F00029BFBDE8F087B1B2384609F025FE9AE766
:10190000BC1A0020180200207C0400208004002063
:101910008C060020900600200138012810B51446DE
:1019200001D9204610BD0029FBD0002AF9DD084668
:1019300001222146FFF762FF204610BDF0B50025C9
:101940004FF0FF378FB0314E0EAC1A2201A9284656
:1019500007F030F901AB01E0A3423ED013F8012BB0
:10196000FF2AF9D0019BB34247D03435B5F5777FD4
:10197000EBD1274C236843B1264D20462B8807F036
:1019800033FE10B94FF47A632B8007F0EBF8002593
:101990004FF0FF324FF01A0E35276FF00B066FF045
:1019A00052001D4B216883F800E05F709E70D87074
:1019B00083F8322083F8332041B1164C1448238831
:1019C00007F012FE10B94FF47A63238028461A22DA
:1019D000114907F033F90FB0F0BD7B1C0BD038462E
:1019E0001A2201A907F0E6F801A834220A490AF0F0
:1019F0001FFC0028EFD0064CCAE74FF6FF73BDF876
:101A000036209A4208BF2F46AFE700BF1A35F4AD23
:101A10000C02002000000020C4080020F0B50024C3
:101A20008FB04FF0FF364FF6FF77104D03E03434A0
:101A3000B4F5777F10D01A2201A9204607F0BAF832
:101A4000019BAB42F3D1BDF83630BB4208BF2646FE
:101A50003434B4F5777FEED1731C04D030461A22AB
:101A6000034907F0A7F80FB0F0BD00BF1A35F4AD79
:101A7000C408002070B40478002C38D030340C70C6
:101A8000447830344C70847804F13003DBB22E2675
:101A9000202500248B70C3780E713033CB7003790E
:101AA000032A03F130034B71437903F130038B7147
:101AB00083790D7203F13003CB71C37903F13003E5
:101AC0004B72037A03F130038B72437A0C7303F188
:101AD0003003CB7206D9131F022B11D9D31F022B4F
:101AE00003D802328B5C803B8B5470BC70470B7008
:101AF0004478002CC5D14B708478002CC7D0C3E744
:101B000001328B5C70BC803B8B547047000000003E
:101B1000F0B57BA3D3E900237D4989B0CD690E6A76
:101B200028463146FEF714FB75A3D3E9002304468B
:101B300031462846FEF70CFB16461F4672A3D3E932
:101B4000002330463946FEF703FB6FA3D3E9002399
:101B50008DF8050039463046FEF7FAFA16461F465C
:101B60006C4A002330463946FEF7F2FA39468DF8C2
:101B70000600684A30460023FEF7EAFA16461F467A
:101B8000654A002330463946FEF7E2FA39468DF8B9
:101B90000700614A30460023FEF7DAFA16461F4670
:101BA0005E4A002330463946FEF7D2FA39468DF8B0
:101BB00008005A4A30460023FEF7CAFA16461F4666
:101BC00042F21072002330463946FEF7C1FA394618
:101BD0008DF8090042F2107230460023FEF7B8FA81
:101BE00016461F464FF47A72002330463946FEF7F8
:101BF000AFFA39468DF80A004FF47A723046002366
:101C0000FEF7A6FA16461F466422002330463946E0
:101C1000FEF79EFA64228DF80B0000233046394609
:101C2000FEF796FA104619460A220023FEF790FAAC
:101C30000022E4B28DF80C008DF80D20002C4FD05E
:101C400004F130038DF810309DF8053030338DF8F5
:101C500011309DF8063003F13001C9B200252E275E
:101C600020269DF807409DF809009DF80A309DF850
:101C70000B208DF8121030349DF80C109DF808E000
:101C80008DF813409DF80D40303030333032303114
:101C90000EF1300E8DF816008DF81730284601230E
:101CA0008DF819208DF81A1030341D4A06218DF850
:101CB00015E08DF81B408DF81C508DF814708DF8D0
:101CC000186006F0CDFD04AA0621082006F0ECFA03
:101CD0000123144A0621682006F0C2FD09B0F0BDB8
:101CE00020219DF805308DF81010002BAED19DF805
:101CF00006308DF81110002BB0D0ACE7AFF30080A8
:101D000000CA9A3B0000000000E1F5050000000059
:101D1000C40800208096980040420F00A086010071
:101D200040D2000858D400082DE9F04704460D467B
:101D30001D284AD8DFE810F01E0072007A009500D6
:101D4000B000CB00E60001011D0129014900490056
:101D5000490049004900490049004900490049003B
:101D60001E0072007A009500B000CB00E600010171
:101D70001D01290100210226631B084618BF01230B
:101D8000864A06F06DFD4FF00309314606274FF0F5
:101D9000040801232C1BE31A18BF0123804A0020EA
:101DA00006F05EFDA31B18BF012341467D4A0020BB
:101DB00006F056FD062F08D0B4EB090318BF012327
:101DC0003946794A002006F04BFD784B93F82F30C6
:101DD000012B1CD011D3022B07D1BDE8F047012302
:101DE000734A0621002006F03BBD0123BDE8F04701
:101DF000704A0621002006F033BD6F4B1B780A2B7A
:101E000000F0C7801E2B00F0C480BDE8F0876B4A4D
:101E10000621BDE8F047002006F022BD4FF0020980
:101E20000023C846194604270126B3E70021431BB7
:101E300018BF012308462C1B5A4A06F011FD14F165
:101E4000FF3318BF0123584A0221002006F008FD85
:101E5000A31E18BF01235A4A0421002006F000FDEA
:101E6000B3E70021431B18BF012308462C1B4E4A31
:101E700006F0F6FC14F1FF3318BF0123504A02218B
:101E8000002006F0EDFCA31E18BF01234D4A0421DB
:101E9000002006F0E5FC98E70021431B18BF012352
:101EA00008462C1B464A06F0DBFC14F1FF3318BF32
:101EB0000123444A0221002006F0D2FCA31E18BFD1
:101EC0000123414A0421002006F0CAFC7DE70021DD
:101ED000431B18BF012308462C1B3A4A06F0C0FCDE
:101EE00014F1FF3318BF0123374A0221002006F006
:101EF000B7FCA31E18BF0123344A0421002006F0BA
:101F0000AFFC62E70021431B18BF012308462C1BCE
:101F10002D4A06F0A5FC14F1FF3318BF01232B4A0C
:101F20000221002006F09CFCA31E18BF0123284AB2
:101F30000421002006F094FC47E70021431B18BF52
:101F400001230846214A2C1B06F08AFC14F1FF33BA
:101F500018BF012302211E4A002006F081FC022343
:101F60000421E31A18BF01231A4A002006F078FC66
:101F70002BE70021431B18BF01230846144A06F033
:101F80006FFC2C1B01230221EBE700230C1A1946DE
:101F9000E7E7BDE8F047FFF7BBBD00BF1CD1000875
:101FA0002CD100083CD100084CD10008C408002006
:101FB000D0D10008E4D1000802000020BCD1000804
:101FC0006CD100087CD100088CD100089CD100089D
:101FD000ACD100085CD100082DE9F043A04C83B0DF
:101FE00023780A2B31D09F4A137A03F0FF0193B173
:101FF000D379002B3AD09C4B1B78092B39D8DFE8DA
:1020000013F0EF00CA00AC0037003700370037008C
:10201000370037003700954B1B7A03F0FF026BB394
:10202000934C94F82F00002860D084F82F100021E2
:10203000E269236A8F480091FEF78AFBFEF7A8FF4A
:1020400003B0BDE8F043FFF763BD1E23864923704C
:10205000FEF79EFF0978881EC0B210F0800F18BFEF
:10206000002003B0BDE8F043FFF75EBE7E4B1B7857
:10207000237003B0BDE8F043FEF78ABF7E4B1B7AA6
:1020800033B37B4C94F82F10002963D10127E26908
:10209000D4F80480236AD4F8089012EB0802774E33
:1020A00043EB09039F4208BF964230D26FF05305BD
:1020B000422006220123217784F8211084F822107F
:1020C00084F823106577A077E27784F8203020E049
:1020D0006B4B1B7A03F0FF0283B363490B78002B31
:1020E00000F0A080013BDBB20B70B1E7E269D4F8ED
:1020F0000480236AD4F80890B2EB080263EB09036A
:1021000055A7D7E900679F4208BF964204D2E26113
:102110002362FFF713FC8AE758256FF07A010C223F
:10212000022384F8200084F8210084F8220084F837
:10213000230025776177A277E377EAE7514B1B7A93
:10214000002B6CD048490B78082B9CBF5A1CD2B28C
:102150000A707DE784F82F2069E7454D95F82F3008
:10216000022B86D0012702220026474B474985F8DB
:102170002F200E801F70FFF7E1FB95F82F30BB4238
:1021800028D052D3022B59D13B463046404A062133
:1021900006F066FB6DE7364D95F82F30012B3FF4C6
:1021A00068AF00260127EA682B693A49374806805C
:1021B000C1E90023344B00961E70D1E900232D485D
:1021C00085F82F70FEF7C4FAFFF7B8FB95F82F30AB
:1021D000BB42D6D13046304A062106F041FB48E7E3
:1021E000234D95F82F30002B3FF443AF00262B6A88
:1021F000EA692048009685F82F60FEF7A9FAFFF7F4
:102200009DFB95F82F30012BE4D00ED3022B1CD16F
:10221000304601231E4A062106F022FB29E703B0BF
:10222000BDE8F08309230B7012E723780A2B02D054
:102230001E2B7FF41EAFFFF76BFC1AE73B463046C0
:10224000164A062106F00CFB13E730460123134A19
:10225000062106F005FB0CE757850C020000000084
:102260000200002010090020710200201C0900203B
:10227000C4080020380B00200409002000AC4206EE
:1022800028090020F80800207002002060020020C9
:10229000D0D1000868020020BCD10008E4D10008B9
:1022A0002DE9F04FD2A3D3E90023D54C99B0E569CD
:1022B000266A28463146FDF74BFFCDA3D3E900231C
:1022C0008DF8440031462846FDF742FF16461F466A
:1022D000C9A3D3E9002330463946FDF739FFC6A329
:1022E000D3E900238DF8450039463046FDF730FF2D
:1022F00016461F46C34A002330463946FDF728FFDD
:1023000039468DF84600BF4A30460023FDF720FFCE
:1023100016461F46BC4A002330463946FDF718FFD3
:1023200039468DF84700B84A30460023FDF710FFC4
:1023300016461F46B54A002330463946FDF708FFCA
:1023400039468DF84800B14A30460023FDF700FFBA
:1023500016461F4642F21072002330463946FDF7FA
:10236000F7FE39468DF8490042F2107230460023DC
:10237000FDF7EEFE16461F464FF47A7200233046F4
:102380003946FDF7E5FE39468DF84A004FF47A727A
:1023900030460023FDF7DCFE16461F46642200236C
:1023A00030463946FDF7D4FE39468DF84B0064229D
:1023B00030460023FDF7CCFE16461F460A220023B6
:1023C00030463946FDF7C4FE0A228DF84C00002342
:1023D00030463946FDF7BCFE00238D4D8DF84D206B
:1023E0002E788DF84E30002E00F0DB80894A137A6B
:1023F00003F0FF067BB1D37923B194F82F30002B83
:1024000040F04682FFF79AFAFEF7C2FD0A232B70CE
:1024100019B0BDE8F08F804B1B7A002B40F008818B
:102420007E4B1B7A002B40F053827D4B1B7A002B96
:1024300000F01F827B4B1D78002D00F02682013DAD
:10244000EDB21D7011AB0693E669246A304668A3AD
:10245000D3E900232146FDF77BFE65A3D3E90023E2
:102460008DF8440021463046FDF772FE16461F46A1
:1024700061A3D3E9002330463946FDF769FE5EA328
:10248000D3E900238DF8450039463046FDF760FE5C
:1024900016461F465B4A002330463946FDF758FE74
:1024A00039468DF84600574A30460023FDF750FE66
:1024B00016461F46544A002330463946FDF748FE6B
:1024C00039468DF84700504A30460023FDF740FE5C
:1024D00016461F464D4A002330463946FDF738FE62
:1024E00039468DF84800494A30460023FDF730FE52
:1024F00016461F4642F21072002330463946FDF759
:1025000027FE39468DF8490042F21072304600230A
:10251000FDF71EFE16461F464FF47A720023304622
:102520003946FDF715FE39468DF84A004FF47A72A8
:1025300030460023FDF70CFE16461F46642200239A
:1025400030463946FDF704FE39468DF84B006422CB
:1025500030460023FDF7FCFD16461F460A220023E5
:1025600030463946FDF7F4FD39468DF84C000A2215
:1025700030460023FDF7ECFD00245F238DF84D204D
:1025800006982A4614A98DF84E40FFF773FA14AA4C
:102590000321102005F088FEFEF7FAFC19B0BDE813
:1025A000F08F14232B7004F0A9FE1F4A31463046E9
:1025B00006F032F81B4B14A91A7811A85F23FFF715
:1025C00059FA14AA0321102005F06EFE94F82F305A
:1025D000012B00F0A481C0F07281022B40F0C08179
:1025E00030460123114A062106F03AF9FEE600BF03
:1025F00000CA9A3B0000000000E1F5050000000061
:10260000C40800208096980040420F00A086010078
:10261000020000201009002028090020F8080020EE
:102620001C0900205802002000D10008D0D1000869
:10263000C14B19780793092911AB00F3C8811A46D9
:1026400006935B5C50180133DBB2092B53541AD943
:10265000002900F0B281134601390A44DDF81C90CC
:10266000984603E0002900F0A48101390670137830
:1026700010460133DBB2092B02F80139F2D8CDF84C
:102680001C90CDF81880002399464FF0000B0023D2
:102690009DF849201F4690464FEA820A9DF8472040
:1026A0005B46164618EB0A004FEA421249EB0B0153
:1026B0008246901B8B4663EB07010B4602464FEAAE
:1026C000CA014FEACB0040EA5A708A46590241EAF1
:1026D000D2510B46002183469DF84A00CDE9086798
:1026E000560232460F4606460021CDE90A67BAEB8C
:1026F00008066BEB0907B246BB46DDE908674001F7
:10270000B6185F41DDE90A23821A61EB0303CDE9C4
:10271000022300239DF84520CDE90467CDE90E236F
:102720004FEA0B114FEA0A13059A9DF8440041EA5B
:102730001A719A46814B9701A0FB0323CDE90C2324
:10274000049A8B469646714647EA92677C4B0E9AEE
:102750008E01A2FB0323DDE90C0180185941DDE95C
:102760000423B21A67EB03031F46039B1646029A23
:102770009B0043EA92739200CDE90C0102929DF80E
:102780004600704A18EB0A08A0FB020149EB0B094E
:10279000C246CB46DDE90C8918EB0008404649EB00
:1027A000010949460393DDE9082392197B41CDE9EC
:1027B0000423DDE90289DDE90A234FEA0B1C12EB51
:1027C000080243EB09034CEA1A7C4FEA0A17DDE9D9
:1027D00004AB1AEB000A50464BEB010BBA464FEA2A
:1027E000C30E59464EEA527E9DF84860564F7346D6
:1027F000A6FB07674FF0640E80194FEAC2064FF040
:102800000A02794110EB0A0041EB0C0136189DF8E1
:102810004D009DF84BC043EB0107ECFB0E679DF8A4
:102820004C300021E3FB0267012336184F41474A31
:10283000BB4208BFB2423CBF1F4616463CA3D3E989
:1028400000239F4208BF964238BF1F4694F82F309E
:1028500038BF1646002B40F0918000233C4800937F
:1028600032463B46E6612762FDF772FF079B1D7803
:10287000EAE5384B1B7A002B3FF4CAAD2E4B1D788E
:10288000082D02D80135EDB21D7011AB0693DBE5C2
:102890000026236AE2692E48009684F82F60FDF72F
:1028A00057FF94F82F30012B7DD073D3022B5ED1CC
:1028B00030460123284A062105F0D2FFA2E52B78F5
:1028C0000A2B02D01E2B7FF491ADFFF721F98DE585
:1028D000194B19780793092911AB78DC1A4606932E
:1028E0005B5C5018013BDBB2092B53547FF6CBAE37
:1028F000002969D01346013909260A44DDF81C90E5
:10290000984602E000295BD0013906701378104622
:10291000013BDBB2092B02F80139F3D8AFE63046B0
:102920000E4A062105F09CFF60E500BFAFF3008072
:1029300058850C02000000005802002000CA9A3B93
:1029400000E1F50580969800A086010000AC4206E3
:10295000380B002004090020D0D10008BCD10008A9
:10296000304601231B4A062105F07AFF3EE530463A
:102970000123184A062105F073FF43E500222B7856
:1029800084F82F200A2B02D01E2B7FF466AFFFF7AE
:10299000BFF862E72B780A2B02D01E2B7FF432ADF2
:1029A000FFF7B6F82EE530460B4A062105F058FF32
:1029B00028E5CDF81C90CDF818800923037062E655
:1029C000CDF81C90CDF81880002303705BE60693C9
:1029D00059E600BFE4D10008BCD1000800000000A7
:1029E0002DE9F04FCCA3D3E90023CF4CB1B0E5687B
:1029F000266928463146FDF7ABFBC7A3D3E9002380
:102A00008DF8AC0031462846FDF7A2FB16461F465E
:102A1000C3A3D3E9002330463946FDF799FBC0A391
:102A2000D3E900238DF8AD0039463046FDF790FB21
:102A300016461F46BD4A002330463946FDF788FB3F
:102A400039468DF8AE00B94A30460023FDF780FBC9
:102A500016461F46B64A002330463946FDF778FB36
:102A600039468DF8AF00B24A30460023FDF770FBBF
:102A700016461F46AF4A002330463946FDF768FB2D
:102A800039468DF8B000AB4A30460023FDF760FBB5
:102A900016461F4642F21072002330463946FDF7B3
:102AA00057FB39468DF8B10042F2107230460023D0
:102AB000FDF74EFB16461F464FF47A720023304650
:102AC0003946FDF745FB39468DF8B2004FF47A726E
:102AD00030460023FDF73CFB16461F4664220023C8
:102AE00030463946FDF734FB39468DF8B300642291
:102AF00030460023FDF72CFB16461F460A22002312
:102B000030463946FDF724FB39468DF8B4000A22D9
:102B100030460023FDF71CFB6569A66928468DF841
:102B2000B52031467CA3D3E90023FDF711FB7AA33E
:102B3000D3E900238DF8B60031462846FDF708FB9F
:102B400016461F4676A3D3E9002330463946FDF7E3
:102B5000FFFA73A3D3E900238DF8B7003946304656
:102B6000FDF7F6FA16461F46704A002330463946EE
:102B7000FDF7EEFA39468DF8B8006C4A304600236E
:102B8000FDF7E6FA16461F46694A002330463946E5
:102B9000FDF7DEFA39468DF8B900654A3046002364
:102BA000FDF7D6FA16461F46624A002330463946DC
:102BB000FDF7CEFA39468DF8BA005E4A304600235A
:102BC000FDF7C6FA16461F4642F210720023304641
:102BD0003946FDF7BDFA39468DF8BB0042F2107256
:102BE00030460023FDF7B4FA16461F464FF47A72BA
:102BF000002330463946FDF7ABFA39468DF8BC0064
:102C00004FF47A7230460023FDF7A2FA16461F46AB
:102C10006422002330463946FDF79AFA39468DF88A
:102C2000BD00642230460023FDF792FA16461F4687
:102C30000A22002330463946FDF78AFA39468DF8D4
:102C4000BE000A2230460023FDF782FA00253A4EE4
:102C50008DF8BF2037788DF8C050012F00F09C848C
:102C6000364F3B7A03F0FF057BB3A36921696269A4
:102C7000E068994208BF904280F0D882D4F804807E
:102C8000D4F8089058EA090500F0AD82121A63EBF7
:102C900001035B084FEA32024B4508BF4245C0F0D2
:102CA000A2820A22FB79327003F0FF05002B40F06C
:102CB000068594F82F30002B40F02485FEF73EFE69
:102CC000FEF766F931B0BDE8F08F1D4B1B7A002B83
:102CD00000F05A821B4B19781893092940F2B082F0
:102CE000A1F10A02092A00F255850DF1B603184632
:102CF0001E4619939B5C16440133DBB28354092BA7
:102D00002BA80D9039D9002A00F013850346481EE0
:102D10001844721C27E000BF00CA9A3B0000000064
:102D200000E1F50500000000C4080020809698002E
:102D300040420F00A0860100020000201009002080
:102D4000280900205902002090F800E007460EF103
:102D5000010E5FFA8EFEBEF1090F00F801E90CD9F1
:102D6000002B00F0E784A2F10C030B449B1B092B02
:102D700002F8015C02F1FF32E6DD00239DF8BB2082
:102D80009946904600270023960018EB060049EB71
:102D900007019B463B460F4600219DF8B920CDE92F
:102DA00006899246064689464FF0000C19469DF862
:102DB000B1005201CDE914ABB2EB0A0A804663EBD5
:102DC0000B0B5B469DF8AFB04FEAC70ECDE90ABCCE
:102DD000F5008B464EEA567E2E4680000A9DCDE9D0
:102DE000108918EB0008524649EB01094FEA451AD1
:102DF00040464946DDE90A89BAEB080877466BEB9D
:102E00000909C246CB46DDE90689B6EB08084FF052
:102E100000064FEA432545EAD2552B469DF8BC50A3
:102E200067EB09094FEA422CCDE902896246A846C0
:102E3000B1460027CDE91689DDE9148918EB0208AF
:102E400049EB0309CDE90489DDE916234FF00008B9
:102E50006E014FEAC10EB21A4EEA507E4FF00006E4
:102E6000714667EB03039DF8B6704FEA4B25CDE939
:102E70001C78002745EADA55AB469DF8B7504FEA73
:102E8000C00CCDE91E56DDE91056BCEB050561EB23
:102E90000606B146CDE90823DDE9022316010296B4
:102EA0009DF8B260A8461D0145EA12753B463246C0
:102EB000CDE91223059B4FEA4A2E9901049B039505
:102EC000980141EA9361DDE90423821A61EB03036F
:102ED00010461946CDE92001DDE908018200F246DD
:102EE0000892002200278B009DF8AC107601CDE9F6
:102EF0001A12DDE90A1211EB0A0142EB0B02CDE9CD
:102F00000E12DDE902AB1C9A43EA9073DDE912016F
:102F1000301A67EB01011746CDE90401DDE906012E
:102F200010EB0A0041EB0B014FF0000BB64DB74A16
:102F300009931E9BCDE90601A7FB0201DDE9146799
:102F4000A3FB05239DF8B8A04FEA091ECDE91CABF1
:102F500010EB020A9DF8AD0041EB030B4FEA08119C
:102F6000CDE902ABDDE920BC4EEA187E16EB0B067C
:102F70008846DDE90EABA0FB05015D4647EB0C077B
:102F8000CDE91E671A9EAB01374655469F4EAA01F2
:102F9000A7FB066716EB000B47EB010CDDE90E56AD
:102FA00043EA9A63551B63EB0606CDE90E56DDE94D
:102FB0000467B300049300239DF8BA20BD00CDE957
:102FC00014BC45EA96759DF8AE009149CDE91A23E7
:102FD000DDE90223DDE908AB1C9E0595A6FB016730
:102FE00092197B4116461F46DDE9162312EB0A02B1
:102FF000A0FB010143EB0B0392469B46DDE91E2338
:1030000092197B41DDE9106716EB080647EB0E07C6
:10301000CDE90267DDE914673618CDE908234F4191
:10302000B046DDE906562901330143EA15730691DE
:10303000DDE90E56DDE90A126D1856412946324681
:10304000CDE90E1259460793B9461A9B714FCE002F
:10305000A3FB0723DDE90801801859415346CDE958
:103060000A0100219DF8B000DB000893039B46EAAB
:103070005A76CDE91001DDE912ABDDE904011AEB66
:10308000000A4BEB010B1D01DDE90E2318EB0208D2
:1030900049EB0309DDE902120B0145EA11750293C0
:1030A000DDE90601DDE90A238018594102460B4695
:1030B00010990996A1FB070118EB00084046DDE9CD
:1030C000087849EB0109BF1848EB03083A46434624
:1030D0004FF0640E4FEACB0603954FEACA0546EA65
:1030E0005A76AA46DDE902780A253F1848EB090816
:1030F00038464146B3469DF8BD704FF00009E7FBE6
:103100000E2301279DF8BE609DF8BF80E6FB0523D6
:1031100010EB0A0041EB0B0112EB080243EB090331
:103120003D4E9F4208BF964238BF3B464FF00007D6
:103130009DF8B3809DF8B4C0E8FB0E010FF2C00902
:10314000D9E90089ECFB050138BF32469DF8B5602E
:1031500094F82F5080197941494508BF40453CBF3C
:1031600040464946E060681E012821616261A36112
:1031700040F251820021236AE26928480091FDF75C
:10318000E7FA189B1D788DE0254B1B7A002B78D031
:10319000244B19781893092900F255822BAB184655
:1031A0001A460D935B5C0844013BDBB2092B535478
:1031B00015D9002900F0CE820D9B4A1E09251A441C
:1031C00002E0002900F0C682057013781046013B2A
:1031D000DBB2092B01F1FF3102F80139F1D80DF111
:1031E000B6031993C9E5104A0621002005F05CF8E2
:1031F000FDF7CEFE31B0BDE8F08F00BFAFF3008029
:1032000058850C020000000000E1F50500CA9A3B59
:1032100080969800A086010000AC4206380B002082
:10322000F80800205902002088D40008D24A06215C
:10323000002005F039F8FDF7ABFE31B0BDE8F08FA6
:103240002BAB18461A460D935B5C08440133DBB286
:10325000092B5354C3D9002900F070820D9B4A1EDC
:103260001A4402E0002900F06982057013781046C4
:103270000133DBB2092B01F1FF3102F80139F1D83A
:10328000ADE7BE4B1B7A002B00F0D081BC4B1D7804
:10329000189315B1013DEDB21D702BAB0D930DF1DF
:1032A000B6031993E66827693046AFA3D3E9002334
:1032B0003946FCF74DFFACA3D3E900238DF8AC00F1
:1032C00039463046FCF744FF16461F46A8A3D3E90B
:1032D000002330463946FCF73BFFA5A3D3E9002382
:1032E0008DF8AD0039463046FCF732FF16461F46D2
:1032F000A44A002330463946FCF72AFF39468DF8A8
:10330000AE00A04A30460023FCF722FF16461F46B7
:103310009D4A002330463946FCF71AFF39468DF89E
:10332000AF00994A30460023FCF712FF16461F46AD
:10333000964A002330463946FCF70AFF39468DF895
:10334000B000924A30460023FCF702FF16461F46A3
:1033500042F21072002330463946FCF7F9FE394636
:103360008DF8B10042F2107230460023FCF7F0FEF7
:1033700016461F464FF47A72002330463946FCF752
:10338000E7FE39468DF8B2004FF47A7230460023DA
:10339000FCF7DEFE16461F466422002330463946FF
:1033A000FCF7D6FE39468DF8B30064223046002380
:1033B000FCF7CEFE16461F460A2200233046394649
:1033C000FCF7C6FE39468DF8B4000A2230460023C9
:1033D000FCF7BEFE6669A46930468DF8B52021462B
:1033E00061A3D3E90023FCF7B3FE5FA3D3E9002375
:1033F0008DF8B60021463046FCF7AAFE16461F4659
:103400005BA3D3E9002330463946FCF7A1FE58A35D
:10341000D3E900238DF8B70039463046FCF798FE13
:1034200016461F46574A002330463946FCF790FEA1
:1034300039468DF8B800534A30460023FCF788FE21
:1034400016461F46504A002330463946FCF780FE98
:1034500039468DF8B9004C4A30460023FCF778FE17
:1034600016461F46494A002330463946FCF770FE8F
:1034700039468DF8BA00454A30460023FCF768FE0D
:1034800016461F4642F21072002330463946FCF7BA
:103490005FFE39468DF8BB0042F2107230460023C1
:1034A000FCF756FE16461F464FF47A72002330464C
:1034B0003946FCF74DFE39468DF8BC004FF47A7260
:1034C00030460023FCF744FE16461F4664220023C4
:1034D00030463946FCF73CFE39468DF8BD00642283
:1034E00030460023FCF734FE16461F460A2200230E
:1034F00030463946FCF72CFE39468DF8BE000A22CC
:1035000030460023FCF724FE002630AC8DF8BF20A7
:1035100004F834695F232A460D982146FEF7AAFA7B
:1035200030461B4A022104F0BFFE22460221182029
:1035300004F0BAFE189B19981A7827A90A3A5F2353
:10354000D2B2FEF797FA3046124A042104F0ACFEDC
:1035500027AA0421182004F0A7FEFDF719FD31B0B9
:10356000BDE8F08FAFF3008000CA9A3B0000000076
:1035700000E1F5050000000074D400081C090020DB
:10358000590200208096980040420F00A08601005A
:103590006CD4000870D400081523DFF81C82337047
:1035A00003F0ACFE7D4A2946284605F035F85F2336
:1035B00098F8002023A92BA8FEF75CFA784A02218C
:1035C000284604F071FE23AA0221182004F06CFEA4
:1035D00098F800205F230A3AD2B227A90DF1B6006D
:1035E000FEF748FA6F4A0421284604F05DFE27AA38
:1035F0000421182004F058FE94F82F30012B7AD0C3
:103600006FD3022B53D13B462846674A062105F06B
:1036100027F9FFF725BB0022644B0092D3E9002372
:103620006348FDF795F8189B1D783BE6614B1B7AC4
:10363000002B3FF4DFAD604B1D781893122D3FF641
:103640002CAE013527E6A1F10A02092A00F2A28078
:103650000DF1B60318461D4619939B5C1544013BBA
:10366000DBB28354092B2BA80D907FF686AB002A82
:103670006BD00346481E092618446A1C0BE00278EA
:103680000746013AD2B2092A00F801297FF675AB44
:103690007246002B5AD0A2F10C030B445B1B092B82
:1036A00002F8016C02F1FF3EE9DDFFF766BB3B4625
:1036B0002846424A062105F0D3F8FFF7D1BA002385
:1036C00001253F4E394A3380C2E900013D4E38485A
:1036D000337000930CCA84F82F50FDF739F8FFF7C8
:1036E000EDBA33780A2B02D01E2B7FF4B9AAFEF76D
:1036F0000FFAFFF7B5BA2846334A062105F0B0F8AD
:10370000FFF7AEBA236AE2692948009584F82F5082
:10371000FDF71EF894F82F30012B34D029D3022B5B
:103720001FD128460123204A062105F099F8FFF70A
:10373000C5BA374609233B70FFF71FBB09230DF1BC
:10374000B60219920370FFF718BB2F4600233B7097
:10375000FFF713BB00230DF1B60219920370FFF7B8
:103760000CBB28460123154A062105F079F8FFF71E
:10377000A5BA33780A2B02D01E2B7FF49FAAFEF73E
:10378000C7F9FFF79BBA28460F4A062105F068F8EB
:10379000FFF794BA2BAB0D9321E500BF5CD4000872
:1037A0006CD4000870D40008D0D100086802002052
:1037B000380B00200409002059020020E4D1000841
:1037C0006002002070020020BCD100080000000050
:1037D0002DE9F04FCCA3D3E90023CF4CB1B0E5687D
:1037E000266928463146FCF7B3FCC7A3D3E900237A
:1037F0008DF8AC0031462846FCF7AAFC16461F4659
:10380000C3A3D3E9002330463946FCF7A1FCC0A38B
:10381000D3E900238DF8AD0039463046FCF798FC1B
:1038200016461F46BD4A002330463946FCF790FC39
:1038300039468DF8AE00B94A30460023FCF788FCC3
:1038400016461F46B64A002330463946FCF780FC30
:1038500039468DF8AF00B24A30460023FCF778FCB9
:1038600016461F46AF4A002330463946FCF770FC27
:1038700039468DF8B000AB4A30460023FCF768FCAF
:1038800016461F4642F21072002330463946FCF7B6
:103890005FFC39468DF8B10042F2107230460023C9
:1038A000FCF756FC16461F464FF47A72002330464A
:1038B0003946FCF74DFC39468DF8B2004FF47A7268
:1038C00030460023FCF744FC16461F4664220023C2
:1038D00030463946FCF73CFC39468DF8B30064228B
:1038E00030460023FCF734FC16461F460A2200230C
:1038F00030463946FCF72CFC39468DF8B4000A22D4
:1039000030460023FCF724FC6569A66928468DF83B
:10391000B52031467CA3D3E90023FCF719FC7AA338
:10392000D3E900238DF8B60031462846FCF710FC99
:1039300016461F4676A3D3E9002330463946FCF7E6
:1039400007FC73A3D3E900238DF8B700394630464E
:10395000FCF7FEFB16461F46704A002330463946E8
:10396000FCF7F6FB39468DF8B8006C4A3046002368
:10397000FCF7EEFB16461F46694A002330463946DF
:10398000FCF7E6FB39468DF8B900654A304600235E
:10399000FCF7DEFB16461F46624A002330463946D6
:1039A000FCF7D6FB39468DF8BA005E4A3046002354
:1039B000FCF7CEFB16461F4642F21072002330463B
:1039C0003946FCF7C5FB39468DF8BB0042F2107250
:1039D00030460023FCF7BCFB16461F464FF47A72B4
:1039E000002330463946FCF7B3FB39468DF8BC005E
:1039F0004FF47A7230460023FCF7AAFB16461F46A6
:103A00006422002330463946FCF7A2FB39468DF884
:103A1000BD00642230460023FCF79AFB16461F4681
:103A20000A22002330463946FCF792FB39468DF8CE
:103A3000BE000A2230460023FCF78AFB00253A4EDE
:103A40008DF8BF2037788DF8C050022F00F09C848D
:103A5000364F3B7A03F0FF057BB3A36921696269A6
:103A6000E068994208BF904280F0D882D4F8048080
:103A7000D4F8089058EA090500F0AD82121A63EBF9
:103A800001035B084FEA32024B4508BF4245C0F0D4
:103A9000A2820A22FB79327003F0FF05002B40F06E
:103AA000068594F82F30002B40F02485FDF746FF63
:103AB000FDF76EFA31B0BDE8F08F1D4B1B7A002B7D
:103AC00000F05A821B4B19781893092940F2B082F2
:103AD000A1F10A02092A00F255850DF1B603184634
:103AE0001E4619939B5C16440133DBB28354092BA9
:103AF0002BA80D9039D9002A00F013850346481EE3
:103B00001844721C27E000BF00CA9A3B0000000066
:103B100000E1F50500000000C40800208096980030
:103B200040420F00A0860100020000201009002082
:103B3000280900205A02002090F800E007460EF104
:103B4000010E5FFA8EFEBEF1090F00F801E90CD9F3
:103B5000002B00F0E784A2F10C030B449B1B092B04
:103B600002F8015C02F1FF32E6DD00239DF8BB2084
:103B70009946904600270023960018EB060049EB73
:103B800007019B463B460F4600219DF8B920CDE931
:103B900006899246064689464FF0000C19469DF864
:103BA000B1005201CDE914ABB2EB0A0A804663EBD7
:103BB0000B0B5B469DF8AFB04FEAC70ECDE90ABCD0
:103BC000F5008B464EEA567E2E4680000A9DCDE9D2
:103BD000108918EB0008524649EB01094FEA451AD3
:103BE00040464946DDE90A89BAEB080877466BEB9F
:103BF0000909C246CB46DDE90689B6EB08084FF055
:103C000000064FEA432545EAD2552B469DF8BC50A5
:103C100067EB09094FEA422CCDE902896246A846C2
:103C2000B1460027CDE91689DDE9148918EB0208B1
:103C300049EB0309CDE90489DDE916234FF00008BB
:103C40006E014FEAC10EB21A4EEA507E4FF00006E6
:103C5000714667EB03039DF8B6704FEA4B25CDE93B
:103C60001C78002745EADA55AB469DF8B7504FEA75
:103C7000C00CCDE91E56DDE91056BCEB050561EB25
:103C80000606B146CDE90823DDE9022316010296B6
:103C90009DF8B260A8461D0145EA12753B463246C2
:103CA000CDE91223059B4FEA4A2E9901049B039507
:103CB000980141EA9361DDE90423821A61EB030371
:103CC00010461946CDE92001DDE908018200F246DF
:103CD0000892002200278B009DF8AC107601CDE9F8
:103CE0001A12DDE90A1211EB0A0142EB0B02CDE9CF
:103CF0000E12DDE902AB1C9A43EA9073DDE9120172
:103D0000301A67EB01011746CDE90401DDE9060130
:103D100010EB0A0041EB0B014FF0000BB64DB74A18
:103D200009931E9BCDE90601A7FB0201DDE914679B
:103D3000A3FB05239DF8B8A04FEA091ECDE91CABF3
:103D400010EB020A9DF8AD0041EB030B4FEA08119E
:103D5000CDE902ABDDE920BC4EEA187E16EB0B067E
:103D60008846DDE90EABA0FB05015D4647EB0C077D
:103D7000CDE91E671A9EAB01374655469F4EAA01F4
:103D8000A7FB066716EB000B47EB010CDDE90E56AF
:103D900043EA9A63551B63EB0606CDE90E56DDE94F
:103DA0000467B300049300239DF8BA20BD00CDE959
:103DB00014BC45EA96759DF8AE009149CDE91A23E9
:103DC000DDE90223DDE908AB1C9E0595A6FB016732
:103DD00092197B4116461F46DDE9162312EB0A02B3
:103DE000A0FB010143EB0B0392469B46DDE91E233A
:103DF00092197B41DDE9106716EB080647EB0E07C9
:103E0000CDE90267DDE914673618CDE908234F4193
:103E1000B046DDE906562901330143EA15730691E0
:103E2000DDE90E56DDE90A126D1856412946324683
:103E3000CDE90E1259460793B9461A9B714FCE0031
:103E4000A3FB0723DDE90801801859415346CDE95A
:103E50000A0100219DF8B000DB000893039B46EAAD
:103E60005A76CDE91001DDE912ABDDE904011AEB68
:103E7000000A4BEB010B1D01DDE90E2318EB0208D4
:103E800049EB0309DDE902120B0145EA11750293C2
:103E9000DDE90601DDE90A238018594102460B4697
:103EA00010990996A1FB070118EB00084046DDE9CF
:103EB000087849EB0109BF1848EB03083A46434626
:103EC0004FF0640E4FEACB0603954FEACA0546EA67
:103ED0005A76AA46DDE902780A253F1848EB090818
:103EE00038464146B3469DF8BD704FF00009E7FBE8
:103EF0000E2301279DF8BE609DF8BF80E6FB0523D9
:103F000010EB0A0041EB0B0112EB080243EB090333
:103F10003D4E9F4208BF964238BF3B464FF00007D8
:103F20009DF8B3809DF8B4C0E8FB0E010FF2C00904
:103F3000D9E90089ECFB050138BF32469DF8B56030
:103F400094F82F5080197941494508BF40453CBF3E
:103F500040464946E060681E012821616261A36114
:103F600040F251820021236AE26928480091FCF75F
:103F7000EFFB189B1D788DE0254B1B7A002B78D02A
:103F8000244B19781893092900F255822BAB184657
:103F90001A460D935B5C0844013BDBB2092B53547A
:103FA00015D9002900F0CE820D9B4A1E09251A441E
:103FB00002E0002900F0C682057013781046013B2C
:103FC000DBB2092B01F1FF3102F80139F1D80DF113
:103FD000B6031993C9E5104A0621002004F064F9DC
:103FE000FCF7D6FF31B0BDE8F08F00BFAFF3008023
:103FF00058850C020000000000E1F50500CA9A3B5C
:1040000080969800A086010000AC4206380B002084
:10401000F80800205A02002088D40008D24A06215D
:10402000002004F041F9FCF7B3FF31B0BDE8F08F98
:104030002BAB18461A460D935B5C08440133DBB288
:10404000092B5354C3D9002900F070820D9B4A1EDE
:104050001A4402E0002900F06982057013781046C6
:104060000133DBB2092B01F1FF3102F80139F1D83C
:10407000ADE7BE4B1B7A002B00F0D081BC4B1D7806
:10408000189315B1013DEDB21D702BAB0D930DF1E1
:10409000B6031993E66827693046AFA3D3E9002336
:1040A0003946FCF755F8ACA3D3E900238DF8AC00F2
:1040B00039463046FCF74CF816461F46A8A3D3E90C
:1040C000002330463946FCF743F8A5A3D3E9002383
:1040D0008DF8AD0039463046FCF73AF816461F46D3
:1040E000A44A002330463946FCF732F839468DF8A9
:1040F000AE00A04A30460023FCF72AF816461F46B9
:104100009D4A002330463946FCF722F839468DF89F
:10411000AF00994A30460023FCF71AF816461F46AE
:10412000964A002330463946FCF712F839468DF896
:10413000B000924A30460023FCF70AF816461F46A4
:1041400042F21072002330463946FCF701F8394636
:104150008DF8B10042F2107230460023FBF7F8FFF1
:1041600016461F464FF47A72002330463946FBF755
:10417000EFFF39468DF8B2004FF47A7230460023D3
:10418000FBF7E6FF16461F466422002330463946F9
:10419000FBF7DEFF39468DF8B3006422304600237A
:1041A000FBF7D6FF16461F460A2200233046394643
:1041B000FBF7CEFF39468DF8B4000A2230460023C3
:1041C000FBF7C6FF6669A46930468DF8B520214625
:1041D00061A3D3E90023FBF7BBFF5FA3D3E900236F
:1041E0008DF8B60021463046FBF7B2FF16461F4653
:1041F0005BA3D3E9002330463946FBF7A9FF58A358
:10420000D3E900238DF8B70039463046FBF7A0FF0D
:1042100016461F46574A002330463946FBF798FF9B
:1042200039468DF8B800534A30460023FBF790FF1B
:1042300016461F46504A002330463946FBF788FF92
:1042400039468DF8B9004C4A30460023FBF780FF11
:1042500016461F46494A002330463946FBF778FF89
:1042600039468DF8BA00454A30460023FBF770FF07
:1042700016461F4642F21072002330463946FBF7BD
:1042800067FF39468DF8BB0042F2107230460023BA
:10429000FBF75EFF16461F464FF47A720023304646
:1042A0003946FBF755FF39468DF8BC004FF47A725A
:1042B00030460023FBF74CFF16461F4664220023BE
:1042C00030463946FBF744FF39468DF8BD0064227D
:1042D00030460023FBF73CFF16461F460A22002308
:1042E00030463946FBF734FF39468DF8BE000A22C6
:1042F00030460023FBF72CFF002630AC8DF8BF20A2
:1043000004F834695F232A460D982146FDF7B2FB75
:1043100030461B4A022103F0C7FF22460221182023
:1043200003F0C2FF189B19981A7827A90A3A5F234D
:10433000D2B2FDF79FFB3046124A042103F0B4FFCE
:1043400027AA0421182003F0AFFFFCF721FE31B0AB
:10435000BDE8F08FAFF3008000CA9A3B0000000078
:1043600000E1F5050000000074D400081C090020DD
:104370005A0200208096980040420F00A08601005B
:104380006CD4000870D400081623DFF81C82337048
:1043900002F0B4FF7D4A2946284604F03DF95F2328
:1043A00098F8002023A92BA8FDF764FB784A39462A
:1043B000284603F079FF23AA3946182003F074FF3A
:1043C00098F800205F230A3AD2B227A90DF1B6006F
:1043D000FDF750FB6F4A0421284603F065FF27AA2A
:1043E0000421182003F060FF94F82F30012B7AD0BD
:1043F0006FD3022B53D128460123674A062104F0CC
:104400002FFAFFF725BB0022644B0092D3E900236B
:104410006348FCF79DF9189B1D783BE6614B1B7ABE
:10442000002B3FF4DFAD604B1D781893122D3FF643
:104430002CAE013527E6A1F10A02092A00F2A2807A
:104440000DF1B60318461D4619939B5C1544013BBC
:10445000DBB28354092B2BA80D907FF686AB002A84
:104460006BD00346481E092618446A1C0BE00278EC
:104470000746013AD2B2092A00F801297FF675AB46
:104480007246002B5AD0A2F10C030B445B1B092B84
:1044900002F8016C02F1FF3EE9DDFFF766BB28463A
:1044A0000123424A062104F0DBF9FFF7D1BA0023C9
:1044B00002253F4E394A3380C2E900013D4E38485B
:1044C000337000930CCA84F82F50FCF741F9FFF7C2
:1044D000EDBA33780A2B02D01E2B7FF4B9AAFDF770
:1044E00017FBFFF7B5BA2846334A062104F0B8F99E
:1044F000FFF7AEBA236AE2692948009584F82F5085
:10450000FCF726F994F82F30012B34D029D3022B55
:104510001FD128460123204A062104F0A1F9FFF704
:10452000C5BA374609233B70FFF71FBB09230DF1BE
:10453000B60219920370FFF718BB2F4600233B7099
:10454000FFF713BB00230DF1B60219920370FFF7BA
:104550000CBB28460123154A062104F081F9FFF718
:10456000A5BA33780A2B02D01E2B7FF49FAAFDF741
:10457000CFFAFFF79BBA28460F4A062104F070F9DC
:10458000FFF794BA2BAB0D9321E500BF10D10008C3
:104590006CD4000870D40008D0D100086802002054
:1045A000380B0020040900205A020020E4D1000842
:1045B0006002002070020020BCD100080000000052
:1045C0002DE9F04F6CA3D3E900236F4C9BB0A66894
:1045D000656831462846FBF7BBFD67A3D3E9002396
:1045E0008DF84C0031462846FBF7B2FD16461F46B3
:1045F00063A3D3E9002330463946FBF7A9FD60A346
:10460000D3E900238DF84D0039463046FBF7A0FD75
:1046100016461F465D4A002330463946FBF798FD93
:1046200039468DF84E00594A30460023FBF790FD7D
:1046300016461F46564A002330463946FBF788FD8A
:1046400039468DF84F00524A30460023FBF780FD73
:1046500016461F464F4A002330463946FBF778FD81
:1046600039468DF850004B4A30460023FBF770FD69
:1046700016461F4642F21072002330463946FBF7B9
:1046800067FD39468DF8510042F210723046002322
:10469000FBF75EFD16461F464FF47A720023304644
:1046A0003946FBF755FD39468DF852004FF47A72C2
:1046B00030460023FBF74CFD16461F4664220023BC
:1046C00030463946FBF744FD39468DF853006422E5
:1046D00030460023FBF73CFD16461F460A22002306
:1046E00030463946FBF734FD0A228DF8540000238A
:1046F00030463946FBF72CFD0025DFF8B0908DF8E9
:10470000552099F800608DF85650032E00F0628213
:10471000214B1B7A03F0FF06002B40F0F7811F4B63
:104720001B7A83B91E4B1B7A002B40F009821D4B6C
:104730001B7A002B00F0F4811B4B1D78002D00F03C
:104740002C82013DF5E1184B0DF14C081D781193B9
:10475000092D29463ADC18F8053008EB050001332D
:10476000DBB2092B08F8053030D9002D00F07E822D
:104770006A1E42441FE000BF00CA9A3B00000000CE
:1047800000E1F50500000000C408002080969800B4
:1047900040420F00A08601001009002028090020D7
:1047A000F80800201C0900205B0200200200002005
:1047B000002900F05B820670137810460133DBB2EB
:1047C000092B01F1FF3102F80139F1D800239DF8DE
:1047D00051204FF0000BCDE90623DDE9060100234F
:1047E0004FEA820A9DF84F201F4616465B4610EBA3
:1047F0000A004FEA4212824641EB0B01901B8B46A6
:1048000063EB070102460B46CDE9086700274FEA34
:10481000CB004FEACA0140EA5A7056028A46590252
:1048200041EAD25132469DF8526083460B463046EB
:1048300039460027CDE90A01DDE90601BAEB00009F
:104840006BEB010182468B46DDE908018018594176
:1048500000237601CDE90401DDE90A12711A67EB44
:104860000202CDE902129DF84C204FEA0B1E1046C1
:104870009DF84D204EEA1A7ECDE90C234FEA0A132B
:104880009A46F346059ACC4B9701A0FB03010C9A7C
:10489000CA4BCDE90E01A2FB0323049947EA9167B5
:1048A0008E01DDE90E0180185941CDE90C01DDE9E9
:1048B0000401301A67EB0101DDE90267B200CDE9BE
:1048C0000E0102929DF84E00BD4ABB00A0FB020102
:1048D00043EA9673DDE9066716EB0A0647EB0B071A
:1048E0000393DDE90C2312184B41CDE90423DDE9E4
:1048F0000823DDE90E0180185941B246BB46DDE9C7
:104900000A6702460B46DDE90201CDE906233618A7
:104910004FEA0A134FEA0B1C4F414CEA1A7CDDE9BF
:104920000401DDE906AB9DF8502010EB0A009A4621
:10493000A44B41EB0B01A2FB032312184B414FEA9E
:10494000C70EF1004EEA567E0E46642112EB0A02B3
:1049500043EB0C0392194FF00A064FF0000B9DF841
:10496000537043EB0E03E7FB01239DF854009DF8C1
:1049700055A0E0FB062312EB0A0243EB0B03002BCE
:1049800008BFFA2AC0F006816069E668A169276954
:10499000861B61EB07077F084FEA3606BB4208BF5C
:1049A000B24201D216461F4694F82F30002B40F039
:1049B00035816660A7607CA3D3E900233046394681
:1049C000FBF7C6FB78A3D3E900238DF84C003946EA
:1049D0003046FBF7BDFB16461F4675A3D3E90023FF
:1049E00030463946FBF7B4FB71A3D3E900238DF8B9
:1049F0004D0039463046FBF7ABFB16461F46704A62
:104A0000002330463946FBF7A3FB39468DF84E00AC
:104A10006B4A30460023FBF79BFB16461F466A4A4B
:104A2000002330463946FBF793FB39468DF84F009B
:104A3000654A30460023FBF78BFB16461F46614A4A
:104A4000002330463946FBF783FB39468DF850008A
:104A50005C4A30460023FBF77BFB16461F4642F2BA
:104A60001072002330463946FBF772FB39468DF849
:104A7000510042F2107230460023FBF769FB1646E4
:104A80001F464FF47A72002330463946FBF760FB2D
:104A900039468DF852004FF47A7230460023FBF706
:104AA00057FB16461F466422002330463946FBF763
:104AB0004FFB39468DF85300642230460023FBF744
:104AC00047FB16461F460A22002330463946FBF7AD
:104AD0003FFB39468DF854000A2230460023FBF78D
:104AE00037FB00245F238DF8552040462A4616A93F
:104AF0008DF85640FCF7BEFF16AA0321102003F0E4
:104B0000D3FBFCF745FA1BB0BDE8F08FFCF716FFAE
:104B1000FCF73EFA0A2389F800301BB0BDE8F08F9D
:104B20002A4B1B7A002BF8D0294B1D78082D34D83E
:104B30000135EDB21D706668A7680DF14C083AE7C3
:104B4000234B0DF14C081D781193092D29463FF791
:104B50003DAE18F8053008EB0500013BDBB2092B30
:104B600008F805307FF632AE002D00F092806A1E04
:104B70000926424402E0002900F08B800670137879
:104B80001046013BDBB2092B01F1FF3102F801397C
:104B9000F1D81BE6FA26002706E766680DF14C08F7
:104BA000A76808E7AFF3008000CA9A3B0000000046
:104BB00000E1F5050000000000CA9A3B00E1F505A0
:104BC00080969800A086010040420F000409002052
:104BD0005B020020172389F8003002F08FFB384A6F
:104BE0002946284603F018FD364B16A91A7813A853
:104BF0005F23FCF73FFF16AA3146102003F054FB59
:104C000094F82F30012B3ED033D3022B1FD12846EE
:104C100001232D4A062103F023FE79E50025236AAE
:104C2000E2692A48009584F82F50FBF791FD94F82B
:104C30002F30012B12D038D3022B2DD1284601233F
:104C4000214A062103F00CFE119B1D78B1E628468F
:104C500001231F4A062103F003FE59E528461D4A99
:104C6000062103F0FDFD119B1D78A2E609230370C8
:104C7000ACE599F800300A2B02D01E2B7FF448AD2A
:104C8000FCF746FF44E52846124A062103F0E8FDFA
:104C90003EE50023037099E5284601230C4A0621CE
:104CA00003F0DEFD119B1D7883E699F800300A2B96
:104CB00001D01E2BF6D1FCF72BFF119B1D7878E657
:104CC00048D400085B020020D0D10008380B002037
:104CD000E4D10008BCD100082DE9F0430027BE4D07
:104CE00085B0AE8D4FF47A72B6B2002330463946A5
:104CF000FBF72EFA3946C4B24FF47A7230460023DD
:104D00008DF80040FBF724FA16461F466422002364
:104D100030463946FBF71CFA39465FFA80F96422BF
:104D2000304600238DF80190FBF712FA1F46164615
:104D300000230A2239463046FBF70AFA39468DF835
:104D400002000A2200233046FBF702FA4FF0000867
:104D5000A24F8DF803203B788DF80480042B00F0DF
:104D60004B819F4B1B7A03F0FF06002B40F0BD8068
:104D70009C4B1B7AEBB99C4B1B7A002B40F0CA80F2
:104D80009A4B1B7A002B00F0B980994BB5F82C8018
:104D90001C78002C00F0FB80013C4FF000091FFA4A
:104DA00088F8E4B21C70404649464FF47A720023FA
:104DB000F6E08F4B1C78032C1DDC1DF804300DEB46
:104DC00004000133DBB2092B0DF8043013D9002C99
:104DD00000F06581611E0DEB010203E0002900F087
:104DE0005E8101390670137810460133DBB2092B5E
:104DF00002F80139F2D8002100239DF800009DF847
:104E000001E04201121A63EB01039E00970046EA9B
:104E100092763A1846EB0103D90041EA5271D0006C
:104E2000024664260B460A27E6FB0E239DF8026025
:104E30009DF80300E6FB07238618002E40F09080C3
:104E40004FF001084FF000090127AF8564220023CD
:104E5000404649468DF80060FBF77AF94946C5B2ED
:104E60006422404600238DF80150FBF771F990460B
:104E700099460A22002340464946FBF769F90A226F
:104E80008DF80200002340464946FBF761F98DF892
:104E90000320002E00F0918030368DF8046030350C
:104EA0009DF802308DF8055003F13002D2B26D2525
:104EB000732000219DF803308DF8062030338DF8E3
:104EC00007308DF8090001AB8DF80A108DF80850F5
:104ED0001D5D1A46803D032118201D5503F0E4F99D
:104EE000FCF756F805B0BDE8F0830A233B70FCF7E9
:104EF00025FDFCF74DF805B0BDE8F0833D4B1B7A6E
:104F0000002BF8D03A4BB5F82C801C78022C3ED8F8
:104F1000013442E7364B1C78032C3FF76CAF1DF889
:104F200004300DEB0400013BDBB2092B0DF804301B
:104F30007FF661AF002C00F0C480611E09260DEBE6
:104F4000010203E0002900F0BC80013906701378EB
:104F50001046013BDBB2092B02F80139F2D84AE7CF
:104F60004FF000091FFA86F84FF47A72002340468A
:104F70004946FBF7EDF8B7B249464FF47A72002381
:104F8000C6B24046FBF7E4F8904699465DE74FF01D
:104F900000091FFA88F84FF47A7200234046494608
:104FA000FBF7D6F849464FF47A720023C6B2404662
:104FB000FBF7CEF89046994648E75F228DF804202B
:104FC000002D7FF46CAF9DF802308DF80520002B8A
:104FD0003FF46DAF68E700BFC40800200200002066
:104FE0001009002028090020F80800201C090020D2
:104FF0005C0200200409002018233B7002F07EF9B7
:10500000314A4146404603F007FB304B1E7894B3CB
:1050100030348DF8044009F130099DF802308DF8E4
:10502000059003F13002D2B26D20732100249DF867
:1050300003308DF8062030338DF807308DF80910D5
:1050400001AB8DF808008DF80A40985D1A4680384B
:1050500098550321182003F027F995F82F30012BDC
:1050600029D01FD3022B13D120460123184A062131
:1050700003F0F6FB75E65F228DF80420B9F1000F0E
:10508000C9D19DF802308DF80520002BCCD0C8E79F
:10509000204601230F4A062103F0E2FB61E60923C3
:1050A0000370A8E63B780A2B02D01E2B7FF459AE82
:1050B000FCF72EFD55E62046074A062103F0D0FBFB
:1050C0004FE60023037096E63CD400085C02002003
:1050D000D0D10008E4D10008BCD1000870B5614E01
:1050E000614D337882B0052B95F82E4069D05F4B27
:1050F0001B7AB3B95E4B1B7A63B1032C01D8013420
:10510000E4B285F82E40042C1CD8DFE804F01452D9
:105110004A423A00574B1B7A4BB154B1013CE4B2BE
:10512000EFE7FCF70BFCFBF733FF0A23337002B009
:1051300070BD85F82E40504A0321182003F06CFA08
:1051400095F82E4095F82F304C48013B012B80F804
:105150002B404FF0000109D9EA692B6A0091FBF757
:10516000F7FA02B0BDE87040FBF712BF444BD3E939
:1051700000230091FBF7ECFA02B0BDE87040FBF7AA
:1051800007BF404A0321182003F046FA95F82E4045
:10519000D8E73D4A0321182003F03EFA95F82E4047
:1051A000D0E73A4A0321182003F036FA95F82E404A
:1051B000C8E7374A0321182003F02EFA95F82E404D
:1051C000C0E71923337002F099F80021314A0846EC
:1051D00003F022FA042C09D8DFE804F02F29231D5C
:1051E0000300284A0321182003F016FA95F82F30FF
:1051F000012B31D027D3022B06D10123264A0621C9
:10520000002003F02DFB72E70123244A0621002031
:1052100003F026FB6BE71C4A0321182003F0FCF97E
:10522000E4E71A4A0321182003F0F6F9DEE7184AEA
:105230000321182003F0F0F9D8E70F4A03211820C2
:1052400003F0EAF9D2E733780A2B02D01E2B7FF461
:105250004EAFFCF75DFC4AE7114A0621002003F03F
:10526000FFFA44E702000020C408002010090020D3
:1052700028090020F80800203CD20008380B002044
:10528000680200205CD2000854D200084CD200080A
:1052900044D200087CD10008D0D10008E4D1000835
:1052A000BCD10008000000002DE9F04FE0A3D3E9D5
:1052B00000230026E24DE34F95F830408BB04FEAD3
:1052C000440B0BEB040057F8208031464046FAF7B8
:1052D0003FFFD7A3D3E900238DF80C0031464046A9
:1052E000FAF736FF90469946D3A3D3E90023404608
:1052F0004946FAF72DFFD0A3D3E900238DF80D001E
:1053000049464046FAF724FF90469946CE4A002384
:1053100040464946FAF71CFF49468DF80E00CA4A36
:1053200040460023FAF714FF90469946C74A0023E7
:1053300040464946FAF70CFF49468DF80F00C34A2C
:1053400040460023FAF704FF90469946C04A0023DE
:1053500040464946FAF7FCFE49468DF81000BC4A23
:1053600040460023FAF7F4FE9046994642F2107246
:10537000002340464946FAF7EBFE49468DF81100F6
:1053800042F2107240460023FAF7E2FE9046994638
:105390004FF47A72002340464946FAF7D9FE49464F
:1053A0008DF812004FF47A7240460023FAF7D0FECF
:1053B000904699466422002340464946FAF7C8FEC3
:1053C00049468DF81300642240460023FAF7C0FED8
:1053D000904699460A22002340464946FAF7B8FE0D
:1053E0000A228DF81400002340464946FAF7B0FE21
:1053F000DFF86CA28DF815209AF800308DF8166051
:10540000062B00F06781934B1B7A002B40F035810F
:10541000914B1B7A03F0FF02002B00F02381242C18
:1054200040F23581A3444FEA8B0B07EB0B0357F88F
:105430000B101E79DF881A7A95F82F308748013BC8
:10544000012B85F830406962816007838676C276D9
:1054500040F238810021EA692B6A0091FBF778F964
:1054600073A3D3E9002300266D6A31462846FAF774
:105470006FFE6FA3D3E900230446314628468DF81A
:105480000C40FAF765FE904699466BA3D3E90023DA
:1054900040464946FAF75CFE67A3D3E900238DF83E
:1054A0000D0049464046FAF753FE90469946664A33
:1054B000002340464946FAF74BFE49468DF80E0058
:1054C000614A40460023FAF743FE904699465F4AF8
:1054D000002340464946FAF73BFE49468DF80F0047
:1054E0005A4A40460023FAF733FE90469946584AF6
:1054F000002340464946FAF72BFE49468DF8100036
:10550000534A40460023FAF723FE9046994642F25A
:105510001072002340464946FAF71AFE49468DF8B4
:10552000110042F2107240460023FAF711FE904635
:1055300099464FF47A72002340464946FAF708FE2E
:1055400049468DF812004FF47A7240460023FAF76C
:10555000FFFD904699466422002340464946FAF7EB
:10556000F7FD49468DF81300642240460023FAF700
:10557000EFFD904699460A22002340464946FAF735
:10558000E7FD0A228DF81400002340464946FAF749
:10559000DFFDE4B28DF816608DF81520002C00F0C8
:1055A000818004F130009DF80D308DF81800303303
:1055B0008DF819309DF80E303033DCB24FF02E0EDE
:1055C000202700269DF80F309DF8112030339DF8DC
:1055D00012109DF813009DF810508DF81A408DF8A8
:1055E0001B309DF814409DF815303032303130308A
:1055F0003033303530348DF81E208DF81F1006AA58
:1056000003218DF8210010208DF823308DF81CE047
:105610008DF81D508DF822408DF820708DF8246093
:1056200002F042FEFBF7B4FC0BB0BDE8F08F00BF08
:1056300000CA9A3B0000000000E1F50500000000F0
:10564000C408002074D200088096980040420F00E1
:10565000A08601001009002028090020380B002036
:10566000020000205D4B1B7A03F0FF06002BDBD00D
:10567000002C00F08B80013C0AE0FCF75FF9FBF79F
:1056800087FC0A238AF800300BB0BDE8F08F0134A4
:10569000E4B204EB44039B00FA18F9581679D78852
:1056A000127AC9E620249DF80D308DF81840002BA1
:1056B0007FF47DAF9DF80E308DF81940002B3FF43C
:1056C0007DAF79E70021464BD3E900230091FBF73A
:1056D0003FF8C5E61A238AF8003001F00FFE414A70
:1056E0003146304602F098FF9DF80C30002B50D028
:1056F00030338DF818309DF80D3030338DF8193077
:105700009DF80E303033DAB22E204FF0200E0026F6
:105710009DF80F309DF8101030338DF81A209DF849
:1057200011208DF81B309DF812303031303230337B
:105730008DF81D108DF81E209DF813109DF8142073
:105740008DF81F309DF815303031303230338DF800
:1057500021108DF822208DF81C0006AA03211020AC
:105760008DF823308DF820E08DF8246002F09CFD48
:1057700095F82F30012B2BD020D3022B17D1304698
:105780000123194A062103F06BF83CE6012717496B
:1057900052E620229DF80D308DF81820002BACD158
:1057A0009DF80E308DF81920002BADD0AAE73046B9
:1057B00001230F4A062103F053F824E69AF800303B
:1057C0000A2B02D01E2B7FF41EAEFCF7A1F91AE6BD
:1057D0003046084A062103F043F814E6F808002092
:1057E0006802002064D20008D0D10008404B4C0071
:1057F000E4D10008BCD100082DE9F04FC0A3D3E9E3
:1058000000230025C24C99B0666A29463046FAF753
:105810009FFCBBA3D3E900238DF844002946304602
:10582000FAF796FC16461F46B7A3D3E90023304685
:105830003946FAF78DFCB4A3D3E900238DF845006F
:1058400039463046FAF784FC16461F46B14A002313
:1058500030463946FAF77CFC39468DF84600AD4AA9
:1058600030460023FAF774FC16461F46AA4A002366
:1058700030463946FAF76CFC39468DF84700A64A9F
:1058800030460023FAF764FC16461F46A34A00235D
:1058900030463946FAF75CFC39468DF848009F4A95
:1058A00030460023FAF754FC16461F4642F21072A7
:1058B000002330463946FAF74BFC39468DF849004B
:1058C00042F2107230460023FAF742FC16461F4699
:1058D0004FF47A72002330463946FAF739FC3946DC
:1058E0008DF84A004FF47A7230460023FAF730FC04
:1058F00016461F466422002330463946FAF728FC34
:1059000039468DF84B00642230460023FAF720FC1C
:1059100016461F460A22002330463946FAF718FC7D
:105920000A228DF84C00002330463946FAF710FC65
:10593000DFF800828DF84D2098F800308DF84E5039
:10594000072B00F03C82764B1B7A03F0FF06002BFE
:1059500040F0EF81734B1B7A002B40F0BC80724B00
:105960001B7A002B40F0FD81704B1B7A002B00F05E
:10597000EA816F4B1E78002E40F01C8211AD00278B
:105980005FA3D3E90023646A39462046FAF7E0FBB7
:105990005BA3D3E900238DF8440039462046FAF78B
:1059A000D7FB9046994658A3D3E900234046494681
:1059B000FAF7CEFB54A3D3E900238DF845004946FE
:1059C0004046FAF7C5FB90469946524A00234046A6
:1059D0004946FAF7BDFB49468DF846004D4A404618
:1059E0000023FAF7B5FB904699464B4A0023404600
:1059F0004946FAF7ADFB49468DF84700464A40460E
:105A00000023FAF7A5FB90469946444A00234046F6
:105A10004946FAF79DFB49468DF848003F4A404603
:105A20000023FAF795FB9046994642F21072002344
:105A300040464946FAF78CFB49468DF8490042F248
:105A4000107240460023FAF783FB904699464FF4C4
:105A50007A72002340464946FAF77AFB49468DF8A8
:105A60004A004FF47A7240460023FAF771FB9046E1
:105A700099466422002340464946FAF769FB4946A5
:105A80008DF84B00642240460023FAF761FB9046F4
:105A900099460A22002340464946FAF759FB0A2252
:105AA0008DF84C00002340464946FAF751FB284642
:105AB0008DF84D2014A932465F238DF84E70FBF708
:105AC000D9FF14AA0321102002F0EEFBFBF760FAC5
:105AD00019B0BDE8F08F164B11AD19780F93092955
