:020000040800F2
:1000000000500020C58F00081110000815100008CE
:10001000191000081D100008211000080000000041
:100020000000000000000000000000002510000893
:1000300029100008000000002D10000831100008F1
:100040000D9000080D9000080D9000080D9000081C
:100050000D9000080D9000080D9000080D9000080C
:100060000D9000080D9000080D9000080D900008FC
:100070000D9000080D9000080D9000080D900008EC
:100080000D9000080D9000080D900008F513000871
:10009000011400080D9000080D9000080D90000854
:1000A0000D9000080D9000080D9000080D900008BC
:1000B0000D9000080D9000080D9000080D900008AC
:1000C0000D9000080D9000080D9000080D9000089C
:1000D0000D900008451300080D9000080D900008D1
:1000E0000D9000080D9000080D9000080000000021
:1000F0000000000000000000000000000000000000
:0C01000000000000000000005FF808F1A3
:1001100010B5054C237833B9044B13B10448AFF341
:1001200000800123237010BDE801002000000000C2
:1001300044D5000808B5034B1BB103490348AFF38E
:10014000008008BD00000000EC01002044D500083C
:1001500053B94AB9002908BF00281CBF4FF0FF312E
:100160004FF0FF3000F07AB9ADF1080C6DE904CE24
:1001700000F006F8DDF804E0DDE9022304B0704782
:100180002DE9F0478C460E460446089D002B50D1C1
:100190008A4217466CD9B2FA82FEBEF1000F0BD02C
:1001A000CEF1200C01FA0EF620FA0CFC02FA0EF742
:1001B0004CEA060C00FA0EF43A0CBCFBF2F9BBB2A6
:1001C00002FB19CC09FB03FA4FEA144848EA0C4633
:1001D000B2450AD9F61909F1FF3180F02581B245FF
:1001E00040F22281A9F102093E44A6EB0A06B6FBC1
:1001F000F2F002FB106600FB03F3A4B244EA0644EB
:10020000A34209D9E41900F1FF3280F00B81A34227
:1002100040F2088102383C440021E41A40EA0940D7
:10022000002D62D0002324FA0EF42C606B60BDE830
:10023000F0878B4207D9002D55D0002185E8410079
:100240000846BDE8F087B3FA83F1002940F08F80BB
:10025000B34202D3824200F2FC80841A66EB0306AA
:100260000120B446002D40D085E81010BDE8F0878D
:1002700012B90127B7FBF2F7B7FA87FEBEF1000FFC
:1002800035D10121F61B4FEA174C1FFA87F8B6FB50
:10029000FCF20CFB126608FB02F0230C43EA064654
:1002A000B04207D9F61902F1FF3302D2B04200F290
:1002B000D2801A46361AB6FBFCF00CFB106608FB1F
:1002C00000F8A3B243EA0644A04507D9E41900F1B7
:1002D000FF3302D2A04500F2B9801846A4EB08040F
:1002E00040EA02409CE729462846BDE8F08707FA25
:1002F0000EF7CEF1200326FA03F24FEA174CB2FBB9
:10030000FCF11FFA87F80CFB112206FA0EF620FA10
:1003100003F301FB08F933431E0C46EA0246B145DC
:1003200000FA0EF409D9F61901F1FF3280F08C8041
:10033000B14540F2898002393E44A6EB0906B6FB7E
:10034000FCF00CFB106200FB08F99EB246EA024684
:10035000B14507D9F61900F1FF3371D2B1456FD914
:1003600002383E44A6EB090640EA01418FE7C1F19D
:10037000200722FA07F88B4048EA030326FA07F41D
:100380004FEA134EB4FBFEF91FFA83FC0EFB19442F
:100390008E4020FA07F809FB0CFA48EA06084FEAF3
:1003A000184646EA0444A24502FA01F200FA01F6B0
:1003B00008D9E41809F1FF3044D2A24542D9A9F185
:1003C00002091C44A4EB0A04B4FBFEF00EFB10442B
:1003D00000FB0CFC1FFA88F848EA0444A44507D93E
:1003E000E41800F1FF3E29D2A44527D902381C4465
:1003F00040EA0940A0FB0289A4EB0C0CCC45C246A4
:10040000CE4615D312D055B1B6EB0A036CEB0E06EF
:1004100006FA07F7CB401F43CE402F606E600021E5
:10042000BDE8F0871046F7E68946DEE64645EAD2A3
:10043000B8EB020A69EB030E0138E4E77046D7E730
:1004400018468FE78146BDE7114676E702383C44FF
:1004500044E7084606E7023A3E442BE7704700BFF0
:100460000346F0B5002283B0060E4FF40041050CA0
:10047000040A27488DF807308DF804608DF8055080
:100480008DF8064009F0DEFA322000F0F9FC002277
:100490004FF400511E4809F0D5FA02AF01AE08250D
:1004A00016F8014B322000F0EBFCE2094FF48041DA
:1004B000174809F0C7FA322000F0E2FC01224FF49D
:1004C0000041134809F0BEFA322000F0D9FC0022A6
:1004D0004FF400410E4809F0B5FA6400013DE4B262
:1004E000E0D1BE42DBD1322000F0CAFC2A464FF4F4
:1004F0008041074809F0A6FA322000F0C1FC012231
:100500004FF40051024809F09DFA284603B0F0BDAF
:10051000000C014000000000002800F00981F8B53F
:10052000894B04689C4240F0FD8085A7D7E90067AD
:1005300047F6F873B0F84C40B0F84EE003EAC40454
:10054000B0F8505044EACE3403EAC5034466D0E91B
:100550000E45AF4208BFA64238BF43F0006343F4E4
:1005600000438366002900F0838040240025467FF5
:10057000837F002E08BF2C460BB144F0800490F816
:100580002030B0F84460714D5B0205EA863503F413
:10059000F0532B43C57E43F4005323430DB143F086
:1005A0008073847E0CB143F0007390F8214090F882
:1005B0002250A40604F0E0541C430DB144F0C044A2
:1005C00047F6F87390F82A50078DED0390F82360F2
:1005D00005F4C03503EAC703C4662B430EB143F4E8
:1005E000802390F824400CB143F4001390F8254088
:1005F0000CB143F4800390F826400CB143F400039F
:100600000367002956D090F82B60002E69D0D0E9FE
:100610000C4554EA05036ED1002690F82E30002BCD
:1006200040F089804FF4B00490F8523090F85810A0
:100630001B03090543F4000301F4E0010B433343BA
:1006400043678467F2B1052500F1780700F1900453
:1006500057F8046945EA0600FFF702FF002805F194
:10066000FF355CDB6B1C44F80469F1D10020F8BD58
:10067000D0E90C4554EA050315BF40246024002549
:10068000202574E7052400F1780555F80469042C49
:1006900044EA060004D0012C02DDEB69B34204D029
:1006A000FFF7DEFE00283ADBEE6114F1FF34ECD2F6
:1006B0000020F8BD90F82E1090F82B30002914BFC0
:1006C0004FF480660026002BACD190F82C30002B24
:1006D000A8D1D0E90C4554EA050308BF46F40066EA
:1006E000A0E790F82C10002996D0D0E90C4554EAE8
:1006F000050392D009E0731EDB0090F82C1003F084
:10070000180343F02006002987D04B1E9B0190F868
:100710002D10DBB2334341B943F480767DE76FF0AF
:100720000200F8BD6FF00100F8BD43F4407674E7B5
:100730004FF0FF30704746F4806673E7AFF30080F8
:1007400000A493D6000000005143DF0A00C0FF0060
:100750002DE9F04F83B09DF8309030B116461F461A
:100760000268BD4B04469A4204D00020002103B029
:10077000BDE8F08F90F822500021B3A3D3E9002305
:10078000002D0CBF0225322500204FF0000E0195F0
:10079000BDF804C0E568C4E90C01C4E90E01BB4220
:1007A000218B08BFB242A4F85CC084F858E0C4F8BA
:1007B00048E0A4F84CE0A4F84EE0A4F850E084F837
:1007C00052E0C4F854E02564A4F8441080F0958009
:1007D0004B23236640F2FE324B1E9BB2934200F243
:1007E0008280002D7FD00FF2682BDBE900ABA27E68
:1007F000E37E002A0CBF01200220002B0CBF4FF02B
:10080000010C4FF0020CBB4508BFB245C4E90E67AE
:10081000D4F808E0C0F015814FF00108B21947EB99
:1008200007039B4508BF9245C4E90E2384F858800E
:100830006AD34FF0020807FA08F343EA967306FA00
:1008400008F29B4508BF9245C4E90E2384F85880FE
:100850005AD34FF0030807FA08F343EA567306FA2F
:1008600008F29B4508BF9245C4E90E2384F85880DE
:100870004AD34FF0040807FA08F343EA167306FA5E
:1008800008F29B4508BF9245C4E90E2384F85880BE
:100890003AD34FF0050807FA08F343EAD66306FA9D
:1008A00008F29B4508BF9245C4E90E2384F858809E
:1008B0002AD34FF0060807FA08F343EA966306FACC
:1008C00008F29B4508BF9245C4E90E2384F858807E
:1008D0001AD3072207FA02F343EA56639640E3630A
:1008E000A66384F85820204601220021FFF714FE59
:1008F0000020002103B0BDE8F08F1723236656EADD
:1009000007037FF467AFEEE716461F4600FB0EFABB
:100910000CFB01F1BAFBF1FABAFBF5FB40F6FD72F4
:100920001FFA8BF5AB1E9BB29342C4F848A0A4F803
:100930005050D8D85246002330463946FFF708FCBD
:10094000A9B2A1FB062301FB073386B21946104664
:100950000023A4F84E605246FFF7FAFB06FB150091
:10096000237F80B2A4F84C00B3B1A8B1854234BF54
:100970002B460346012B0FD91FFA8BFBBBFBF3F26F
:1009800003FB12B129B9B0FBF3F103FB1107002FF0
:100990004ED0013B012BF1D1019AAA4212D943005A
:1009A000B3F5805F03DB0DE0B3F5805F06DA6D0021
:1009B000ADB298B2AA424FEA4003F5D8A4F84C0071
:1009C000A4F8505094F82610244A0029244B18BF4C
:1009D0001346BAFBF3F223484FF2244118BF0146F5
:1009E000636503FB12A3D2B28B4288BF013284F845
:1009F0005220D5B1B4F84C0005FA08F205FB060503
:100A0000A5FB0A01EF170AFB07110023FFF7A0FB64
:100A1000C4E90C014A4601212046FFF77DFD00286C
:100A2000FFF661AFD4E90C01A1E600200021EFE759
:100A300088B295B2A4F84C00A4F85050002DC1D053
:100A4000AAE74FF0000861E700A493D60000000079
:100A5000FF552183000000005143DF0A20A1070059
:100A600048E8010090D00300002800F0B3812DE990
:100A7000F84F044601224FF48051D14808F0E2FFBC
:100A800001224FF40051CE4808F0DCFF00224FF461
:100A90008041CB4808F0D6FF00224FF40041C848FF
:100AA00008F0D0FFD4E90467C1A3D3E9002394F888
:100AB00022504FF0000E002D4FF000004FF00001CB
:100AC0000CBF02253225DFF80883D4F80CC084F867
:100AD00058E0C4F848E0A4F84CE0A4F84EE0A4F8CC
:100AE00050E084F852E0C4F854E0BB42B4F818E097
:100AF00008BFB242A4F85C50C4E90C01C4E90E017D
:100B0000C4F80080C4F840C0A4F844E080F09880A5
:100B10004B23236640F2FE320EF1FF339BB2934229
:100B200000F28580BCF1000F00F08180A2A3D3E920
:100B30000023A07EE17E00280CBF4FF001084FF09B
:100B4000020800290CBF4FF0010A4FF0020ABB4215
:100B500008BFB242C4E90E67D4F80890C0F0228101
:100B60004FF0010BB01947EB07018B4208BF8242DF
:100B7000C4E90E0184F858B069D34FF0020B07FAAC
:100B80000BF141EA967106FA0BF08B4208BF8242E4
:100B9000C4E90E0184F858B059D34FF0030B07FA9B
:100BA0000BF141EA567106FA0BF08B4208BF824204
:100BB000C4E90E0184F858B049D34FF0040B07FA8A
:100BC0000BF141EA167106FA0BF08B4208BF824224
:100BD000C4E90E0184F858B039D34FF0050B07FA79
:100BE0000BF141EAD66106FA0BF08B4208BF824254
:100BF000C4E90E0184F858B029D34FF0060B07FA68
:100C00000BF141EA966106FA0BF08B4208BF824273
:100C1000C4E90E0184F858B019D3072207FA02F389
:100C200043EA56639640E363A66384F8582020465F
:100C300001220021FFF770FC6FF00100BDE8F88F82
:100C40001723236656EA07037FF464AFEFE70646EF
:100C50000F4608FB09F80AFB0EFEB8FBFEF8B8FBCE
:100C6000FCF940F6FD721FFA89FAAAF102039BB261
:100C70009342C4F84880A4F850A0D8D84246002334
:100C800030463946FFF764FA1FFA8AF1A1FB0623C2
:100C900001FB073386B2194610460023A4F84E60C4
:100CA0004246FFF755FA06FB1A00237F80B2A4F8EC
:100CB0004C00B3B1A8B1824534BF53460346012B63
:100CC0000FD91FFA89FCBCFBF3F203FB12C129B94F
:100CD000B0FBF3F103FB1107002F58D0013B012BB0
:100CE000F1D1554514D94300B3F5805F03DB0FE024
:100CF000B3F5805F08DA4FEA4A0A1FFA8AFA98B217
:100D000055454FEA4003F3D8A4F84C00A4F850A08E
:100D100094F826102B4A00292B4B18BF1346B8FB1A
:100D2000F3F22A484FF2244118BF0146636503FBE2
:100D30001283D2B28B4288BF013284F85220BAF1BA
:100D4000000F21D0B4F84C000AFA0BF20AFB060A95
:100D50005646AAFB0801F71708FB07110023FFF707
:100D6000F7F90122C4E90C0111462046FFF7D4FB34
:100D70000028FFF65CAFD4E90C23134314BF002016
:100D80006FF00100BDE8F88F00200021E9E788B28C
:100D90001FFA82FAA4F84C00A4F850A0BAF1000F90
:100DA000B6D09EE74FF0000B53E700BFAFF30080D3
:100DB00000A493D600000000FF552183000000002E
:100DC000000C014020A1070048E8010090D003007A
:100DD0005143DF0A4FF0FF30704700BF00000000B2
:100DE000B0B300232DE9F0411BA5D5E90045012250
:100DF000002600274FF007084FF0060C4FF0960E24
:100E00000421C0E90467C0E9024502830277427702
:100E100080F82D208376C3768377C37780F82230DD
:100E200080F8233080F8243080F8253080F8263090
:100E300080F82A3080F82E3080F82C3080F820801E
:100E400080F821C0A0F828E080F82B10BDE8F081E0
:100E5000704700BFAFF3008040787D01350C000083
:100E600000B9704738B5044608F086FA054600E038
:100E700030BF08F081FA401B8442F9D838BD00BF6A
:100E80004FF06043002130B5134C144AC3F8B04F03
:100E9000D368134C43F08073D360236883B043F06E
:100EA000010323606160054609F0FCFC08A3D3E957
:100EB0000023A0FB0501FFF74BF9214601904A688A
:100EC000019B9A42FBD303B030BD00BFAFF300805B
:100ED00000CA9A3B0000000055CEACC5F0ED00E022
:100EE000001000E0002048F2084310B4204C4208F3
:100EF00010F0010F82EA030118BF0A46510812F0F0
:100F0000010F81EA030218BF11464A0811F0010FD0
:100F100082EA030118BF0A46510812F0010F81EA64
:100F2000030218BF11464A0811F0010F82EA0301BB
:100F300018BF0A46510812F0010F81EA030218BFD8
:100F400011464A0811F0010F82EA030118BF0A4650
:100F5000510812F0010F81EA030218BF1146013057
:100F6000B0F5807F24F8021FC1D110BC704700BFCC
:100F70003A09002008B5044808F08CFD18B94FF470
:100F80007A62024B1A8008BD0C020020000000208B
:100F9000194B1A7A32B100221A705A801A719A715A
:100FA000DA711A72154B1A7A32B100221A705A800D
:100FB0001A719A71DA711A72114B1A7A32B10022CF
:100FC0001A705A801A719A71DA711A720D4B1A7A64
:100FD00032B100221A705A801A719A71DA711A723B
:100FE000094B1A7A32B100221A705A801A719A711A
:100FF000DA711A72704700BF240900200C09002022
:10100000300900200009002018090020704700BFA7
:10101000704700BFFEE700BFFEE700BFFEE700BF6E
:10102000FEE700BF704700BF704700BF704700BFBA
:1010300038B508F095F94FF6FE72924BD3F80412CA
:10104000914204D8D3F804220132C3F804224FF6A7
:10105000FE728D4BD3F80412914204D8D3F80422C7
:101060000132C3F804224FF6FF71884A13889BB2FD
:101070008B4203D0138801339BB213800221844832
:1010800008F0DAFC834B1A78002840F043811D2ACF
:101090000AD81A780132D2B21D2A1A7004D91A79E4
:1010A00012B901221A719A715A8892B2B2F5FA7F76
:1010B0000BD25A88013292B2B2F5FA7F5A8004D329
:1010C0005A7912B901225A71DA710121724808F075
:1010D000B3FC724B1A78002840F005811D2A0AD80B
:1010E0001A780132D2B21D2A1A7004D91A7912B9AB
:1010F00001221A719A715A8892B2B2F5FA7F0BD214
:101100005A88013292B2B2F5FA7F5A8004D35A79E2
:1011100012B901225A71DA7102215F4808F08CFC81
:101120005F4B1A78002840F0C7801D2A0AD81A7829
:101130000132D2B21D2A1A7004D91A7912B90122C9
:101140001A719A715A8892B2B2F5FA7F0BD25A8804
:10115000013292B2B2F5FA7F5A8004D35A7912B9A9
:1011600001225A71DA710821494808F065FC4D4B9B
:101170001A78002870D11D2A0AD81A780132D2B202
:101180001D2A1A7004D91A7912B901221A719A719A
:101190005A8892B2B2F5FA7F0BD25A88013292B2D3
:1011A000B2F5FA7F5A8004D35A7912B901225A71E2
:1011B000DA710421364808F03FFC3B4B1A780028CE
:1011C00034D11D2A0AD81A780132D2B21D2A1A70D7
:1011D00004D91A7912B901221A719A715A8892B2F5
:1011E000B2F5FA7F0BD25A88013292B2B2F5FA7F89
:1011F0005A8004D35A7912B901225A71DA71012442
:101200002A4A92F82F30013BA3420ED828490B7886
:1012100003F0FF054BB92748928D038823449BB206
:101220009A4203809CBF05800C7038BD5AB11A7871
:10123000013AD2B21A7032B9197921B101211A7169
:101240005A7119725A805A8892B2002AD7D05A8895
:10125000013A92B25A80D2E75AB11A78013AD2B220
:101260001A7032B9197921B101211A715A711972A2
:101270005A805A8892B2002A9BD05A88013A92B278
:101280005A8096E7880400207802002000000020A1
:101290000008014024090020000C01400C09002036
:1012A000300900200009002018090020C80800208B
:1012B00070020020600200205AB11A78013AD2B2BE
:1012C0001A7032B9197921B101211A715A71197242
:1012D0005A805A8892B2002A3FF445AF5A88013AA0
:1012E00092B25A803FE75AB11A78013AD2B21A70D4
:1012F00032B9197921B101211A715A7119725A80C2
:101300005A8892B2002A3FF407AF5A88013A92B243
:101310005A8001E75AB11A78013AD2B21A7032B93A
:10132000197921B101211A715A7119725A805A889A
:1013300092B2002A3FF4C9AE5A88013A92B25A805A
:10134000C3E600BF284970B40B681A68D86816074E
:101350001CBF6FF00F041C60950602D584065E6802
:1013600026D4160614D5050612D50D6A35B1CC8CD7
:10137000A4B21CB191F83940212C2AD00025202696
:10138000DC6824F08004DC60CD840D6281F8396073
:1013900054060BD5420609D500202024DA6822F035
:1013A0004002DA60C884086281F8394070BC704736
:1013B0000E4CA342D5D10E4DD5F80042B4F5007FB6
:1013C00001D22E5501340026C5F80042C5F804624A
:1013D000C7E76C1C0C622C785C60CC8C013CA4B21E
:1013E000CC84002CCAD0D3E718020020003801407A
:1013F00078020020014808F0EBBB00BFC41A0020AF
:10140000014808F0E5BB00BFC41A002070B50A4DC2
:10141000D5F80042C4F500768E4228BF0E4601463C
:10142000324628190BF069F900233444C5F800420C
:10143000C5F8043270BD00BF880400200E4B82B096
:101440009A690E4942F001029A619A6902F001021A
:101450000092009ADA6942F08052DA61DB6903F0A7
:1014600080530193019B4B6823F0E06343F00073CA
:101470004B6002B0704700BF001002400000014006
:1014800070B594B00AA8282200210BF041F900247D
:101490004FF48032012302254FF4E01109260AA8F7
:1014A0000B9212920E93109313910594019406944B
:1014B0000794089409940294039404940A9611954D
:1014C00008F01EFF0F224FF48063294605A80592FD
:1014D000089306950794099409F016F9102301A8BA
:1014E0000494019309F004FA14B070BD062140F28F
:1014F0000D3310B5074C084A204661602260A36096
:1015000008F0A4FA10B9054B188010BD0023236021
:1015100010BD00BF0C020020003000400000002081
:1015200010B50B4C4022002120460BF0F1F84FF48F
:10153000E1320C230749204684E80600636109F084
:101540005BFA10B923685B6810BD0023236010BDEF
:101550001802002000380140F0B500240268244B36
:1015600087B09A42029403940494059401D007B082
:10157000F0BD02264FF4007703F558439A690546FB
:1015800042F480429A619A6902A902F48042009270
:10159000009A9A69174842F004029A619B6903967F
:1015A00003F004030193019B0596029708F03AF9B2
:1015B0004FF4806302A90F4803940494029308F047
:1015C00031F92B682246D868314640F48070D860E3
:1015D0005C69252044F001045C61DC6844F020046F
:1015E000DC6007F0E1FE252007F014FF07B0F0BD36
:1015F000003801400008014038B50025044C054B77
:10160000204684E8280007F02BFF00B1256038BD94
:1016100004020020003002400268094B9A4200D0C8
:101620007047A3F500535A6982B042F040025A61F4
:101630005B6903F040030193019B02B0704700BF58
:10164000003002402DE9F04300244FF0200989B01A
:10165000674B04940594069407949A69012742F015
:1016600004029A619A694FF0020802F004020092A3
:10167000009A9A695F4E42F008029A619A695E4D3B
:1016800002F008020192019A9A69304642F0100273
:101690009A619969224601F01001029102999969B3
:1016A00041EA0901996149469B690B400393039BF9
:1016B00008F0C8F922462846102108F0C3F922464E
:1016C0002846494608F0BEF922462846402108F03F
:1016D000B9F922462846802108F0B4F930463A4646
:1016E0004FF4805108F0AEF930463A464FF40051BD
:1016F00008F0A8F9224630464FF4804108F0A2F9DC
:10170000224630464FF4004108F09CF904A93046C7
:1017100006940597CDF81C80CDF8109008F082F85B
:10172000102328460DEB0301049305970694CDF88A
:101730001C8008F077F804A92846CDF8109008F02E
:1017400071F8402304A92846049308F06BF880231D
:1017500004A92846049308F065F804A928460594CE
:101760000697CDF8108008F05DF8042304A92846F8
:10177000049308F057F8082304A92846049308F0B6
:1017800051F804A93046049708F04CF804A93046F3
:10179000CDF8108008F046F84FF4805304A9304685
:1017A000049305970694079708F03CF84FF400530C
:1017B00004A93046049308F035F84FF4804304A997
:1017C0003046049308F02EF84FF40043304604A945
:1017D000049308F027F84FF4807304A92846059471
:1017E0000697049308F01EF809B0BDE8F08300BF27
:1017F00000100240000C0140000801402DE9F047B4
:1018000007460E46154607F0B7FD002F3FD0002EC5
:101810003DD03B4B04461B6873B107F0ADFD001B88
:10182000132808D80AF0D8F8002834D007F0A4FD0F
:10183000001B1328F6D955B3324D2B68002B58D016
:1018400007F09AFD001B132823D895F83930202B78
:10185000F6D12B6A002BF3D12B4C2C4D206820B1F4
:101860002B689E423AD90AF031FF06F1800323F03B
:101870007F0318462B600AF021FF206070BBB2B2D4
:101880003946BDE8F04714231E4809F01FB9BDE8EA
:10189000F087BDE8F087DFF87880DFF87890D8F837
:1018A000000028B1D9F800309E420DD90AF00EFF91
:1018B00006F1800323F07F031846C9F800300AF0D0
:1018C000FDFEC8F80000B0B1394632460AF015FFF7
:1018D000D8F80000B1B20AF08DF8ACE739463246CC
:1018E0000AF00BFFB2B221680648BDE8F04709F0E4
:1018F0007FB9BDE8F087B1B238460AF07BF89AE7C5
:10190000C41A002018020020800400208404002053
:1019100090060020940600200138012810B51446D6
:1019200001D9204610BD0029FBD0002AF9DD084668
:1019300001222146FFF762FF204610BDF0B50025C9
:101940004FF0FF378FB0314E0EAC1C22694628464F
:1019500007F086FB6B4601E0A3423ED013F8012B53
:10196000FF2AF9D0009BB34247D03835B5F57C7FCC
:10197000EBD1274C236843B1264D20462B8808F035
:1019800089F810B94FF47A632B8007F041FB0025EA
:101990004FF0FF324FF01A0E35276FF00B066FF045
:1019A00052001D4B216883F800E05F709E70D87074
:1019B00083F8362083F8372041B1164C1448238829
:1019C00008F068F810B94FF47A63238028461C2287
:1019D000114907F089FB0FB0F0BD7B1C0BD03846D6
:1019E0001C22694607F03CFB684638220A490AF087
:1019F00075FE0028EFD0064CCAE74FF6FF73BDF81E
:101A000036209A4208BF2F46AFE700BF1A35F4AD23
:101A10000C02002000000020C8080020F0B50024BF
:101A20008FB04FF0FF364FF6FF77104D03E038349C
:101A3000B4F57C7F10D01C226946204607F010FBCD
:101A4000009BAB42F3D1BDF83630BB4208BF2646FF
:101A50003834B4F57C7FEED1731C04D030461C22A0
:101A6000034907F0FDFA0FB0F0BD00BF1A35F4AD21
:101A7000C808002070B40478002C38D030340C70C2
:101A8000447830344C70847804F13003DBB22E2675
:101A9000202500248B70C3780E713033CB7003790E
:101AA000032A03F130034B71437903F130038B7147
:101AB00083790D7203F13003CB71C37903F13003E5
:101AC0004B72037A03F130038B72437A0C7303F188
:101AD0003003CB7206D9131F022B11D9D31F022B4F
:101AE00003D802328B5C803B8B5470BC70470B7008
:101AF0004478002CC5D14B708478002CC7D0C3E744
:101B000001328B5C70BC803B8B547047000000003E
:101B1000F0B57BA3D3E900237D4989B0CD690E6A76
:101B200028463146FEF714FB75A3D3E9002304468B
:101B300031462846FEF70CFB16461F4672A3D3E932
:101B4000002330463946FEF703FB6FA3D3E9002399
:101B50008DF8050039463046FEF7FAFA16461F465C
:101B60006C4A002330463946FEF7F2FA39468DF8C2
:101B70000600684A30460023FEF7EAFA16461F467A
:101B8000654A002330463946FEF7E2FA39468DF8B9
:101B90000700614A30460023FEF7DAFA16461F4670
:101BA0005E4A002330463946FEF7D2FA39468DF8B0
:101BB00008005A4A30460023FEF7CAFA16461F4666
:101BC00042F21072002330463946FEF7C1FA394618
:101BD0008DF8090042F2107230460023FEF7B8FA81
:101BE00016461F464FF47A72002330463946FEF7F8
:101BF000AFFA39468DF80A004FF47A723046002366
:101C0000FEF7A6FA16461F466422002330463946E0
:101C1000FEF79EFA64228DF80B0000233046394609
:101C2000FEF796FA104619460A220023FEF790FAAC
:101C30000022E4B28DF80C008DF80D20002C4FD05E
:101C400004F130038DF810309DF8053030338DF8F5
:101C500011309DF8063003F13001C9B200252E275E
:101C600020269DF807409DF809009DF80A309DF850
:101C70000B208DF8121030349DF80C109DF808E000
:101C80008DF813409DF80D40303030333032303114
:101C90000EF1300E8DF816008DF81730284601230E
:101CA0008DF819208DF81A1030341D4A06218DF850
:101CB00015E08DF81B408DF81C508DF814708DF8D0
:101CC000186007F023F804AA0621082006F042FD58
:101CD0000123144A0621682007F018F809B0F0BD66
:101CE00020219DF805308DF81010002BAED19DF805
:101CF00006308DF81110002BB0D0ACE7AFF30080A8
:101D000000CA9A3B0000000000E1F5050000000059
:101D1000C80800208096980040420F00A08601006D
:101D200070D9000828D900082DE9F04FD2A3D3E9D3
:101D30000023D54C99B0E569266A28463146FEF75E
:101D400007FACDA3D3E900238DF844003146284695
:101D5000FEF7FEF916461F46C9A3D3E90023304615
:101D60003946FEF7F5F9C6A3D3E900238DF84500FF
:101D700039463046FEF7ECF916461F46C34A0023A3
:101D800030463946FEF7E4F939468DF84600BF4A39
:101D900030460023FEF7DCF916461F46BC4A0023F6
:101DA00030463946FEF7D4F939468DF84700B84A2F
:101DB00030460023FEF7CCF916461F46B54A0023ED
:101DC00030463946FEF7C4F939468DF84800B14A25
:101DD00030460023FEF7BCF916461F4642F2107249
:101DE000002330463946FEF7B3F939468DF84900ED
:101DF00042F2107230460023FEF7AAF916461F463B
:101E00004FF47A72002330463946FEF7A1F939467D
:101E10008DF84A004FF47A7230460023FEF798F9A5
:101E200016461F466422002330463946FEF790F9D5
:101E300039468DF84B00642230460023FEF788F9BE
:101E400016461F460A22002330463946FEF780F91F
:101E50000A228DF84C00002330463946FEF778F907
:101E600000268D4D8DF84D202B688DF84E60002B8F
:101E700040F0DC80894A137A03F0FF0683B1D379FE
:101E800023B194F82F30002B40F04682FFF756FD27
:101E9000FFF77EF84FF0FF332B6019B0BDE8F08FED
:101EA0007F4B1B7A002B40F007817E4B1B7A002B67
:101EB00040F050827C4B1B7A002B00F01E827B4B43
:101EC0001D78002D00F02582013DEDB21D7011AB93
:101ED0000693E669246A304667A3D3E900232146C6
:101EE000FEF736F964A3D3E900238DF844002146B8
:101EF0003046FEF72DF916461F4661A3D3E90023AD
:101F000030463946FEF724F95DA3D3E900238DF866
:101F1000450039463046FEF71BF916461F465B4A18
:101F2000002330463946FEF713F939468DF846004E
:101F3000564A30460023FEF70BF916461F46544A10
:101F4000002330463946FEF703F939468DF847003D
:101F50004F4A30460023FEF7FBF816461F464D4A0F
:101F6000002330463946FEF7F3F839468DF848002D
:101F7000484A30460023FEF7EBF816461F4642F269
:101F80001072002330463946FEF7E2F839468DF8E4
:101F9000490042F2107230460023FEF7D9F8164687
:101FA0001F464FF47A72002330463946FEF7D0F8C8
:101FB00039468DF84A004FF47A7230460023FEF716
:101FC000C7F816461F466422002330463946FEF7FE
:101FD000BFF839468DF84B00642230460023FEF7E7
:101FE000B7F816461F460A22002330463946FEF748
:101FF000AFF839468DF84C000A2230460023FEF730
:10200000A7F800245F238DF84D2006982A4614A9CE
:102010008DF84E40FFF72EFD14AA0321102006F084
:1020200099FBFEF7B5FF19B0BDE8F08F2E6005F003
:10203000BBFB1F4A3146304606F044FD1B4B14A93A
:102040001A7811A85F23FFF715FD14AA03211020A9
:1020500006F080FB94F82F30012B00F0A281C0F035
:102060007281022B40F0BC8130460123114A0621C7
:1020700006F04CFEFEE600BF00CA9A3B00000000DE
:1020800000E1F50500000000C808002080969800D7
:1020900040420F00A0860100040000201809002023
:1020A00030090020000900202409002058020020E7
:1020B000ACD5000880D60008BF4B197807930929D2
:1020C00011AB00F3C0811A4606935B5C50180133D4
:1020D000DBB2092B53541AD9002900F0AA81134608
:1020E00001390A449846DDF81C9003E0002900F00D
:1020F0009C8101390670137810460133DBB2092B3D
:1021000002F80139F2D8CDF81880CDF81C900023E0
:1021100099464FF0000B00239DF849201F4690463A
:102120004FEA820A9DF847205B46164618EB0A00E4
:102130004FEA421249EB0B018246901B8B4663EB40
:1021400007010B4602464FEACA014FEACB0040EABC
:102150005A708A46590241EAD2510B460021834601
:102160009DF84A00CDE90867560232460F460646FA
:102170000021CDE90A67BAEB08066BEB0907B24606
:10218000BB46DDE908674001B6185F41DDE90A2377
:10219000821A61EB0303CDE9022300239DF8452059
:1021A000CDE90467CDE90E234FEA0B114FEA0A137C
:1021B000059A9DF8440041EA1A719A467F4B9701AF
:1021C000A0FB0323CDE90C23049A8B469646714667
:1021D00047EA92677A4B0E9A8E01A2FB0323DDE950
:1021E0000C0180185941DDE90423B21A67EB03039F
:1021F0001F46039B1646029A9B0043EA9273920085
:10220000CDE90C0102929DF846006E4A18EB0A08CF
:10221000A0FB020149EB0B09C246CB46DDE90C8964
:1022200018EB0008404649EB010949460393DDE9F4
:10223000082392197B41CDE90423DDE90289DDE918
:102240000A234FEA0B1C12EB080243EB09034CEA8A
:102250001A7C4FEA0A17DDE904AB1AEB000A504674
:102260004BEB010BBA464FEAC30E59464EEA527E7B
:102270009DF84860544F7346A6FB07674FF0640E05
:1022800080194FEAC2064FF00A02794110EB0A00AA
:1022900041EB0C0136189DF84D009DF84BC043EB07
:1022A0000107ECFB0E679DF84C300021E3FB026751
:1022B000012336184F41454ABB4208BFB2423CBFDA
:1022C0001F4616463AA3D3E900239F4208BF964211
:1022D00038BF1F4694F82F3038BF1646002B40F009
:1022E0008D8000233A48009332463B46E6612762E0
:1022F000FEF72EFA079B1D78EBE5364B1B7A002B79
:102300003FF4CBAD2C4B1D78082D02D80135EDB232
:102310001D7011AB0693DCE50026236AE2692C48A8
:10232000009684F82F60FEF713FA94F82F30012BF3
:1023300075D06DD3022B5AD130460123264A06218F
:1023400006F0E4FCA2E52B680C2B7FF493ADFFF7BD
:10235000DFFB8FE5184B19780793092911AB72DC65
:102360001A4606935B5C5018013BDBB2092B5354B1
:102370007FF6CDAE002963D01346013909260A4401
:102380009846DDF81C9002E0002955D0013906700E
:1023900013781046013BDBB2092B02F80139F3D860
:1023A000B1E630460D4A062106F0B0FC62E500BFFA
:1023B00058850C02000000005802002000CA9A3B19
:1023C00000E1F50580969800A086010000AC420669
:1023D000400B00200C09002080D600086CD60008B5
:1023E00030460123194A062106F090FC42E53046AA
:1023F0000123164A062106F089FC47E500222B68D6
:1024000084F82F200C2B7FF46CAFFFF781FB68E77B
:102410002B680C2B7FF43AADFFF77AFB36E530469C
:102420000B4A062106F072FC30E5CDF81880CDF895
:102430001C90092303706AE6CDF81880CDF81C9033
:102440000023037063E6069361E600BF94D600089C
:102450006CD60008000000002DE9F04FD8A3D3E9A6
:102460000023DB4CB1B0E568266928463146FDF70C
:102470006FFED3A3D3E900238DF8AC003146284684
:10248000FDF766FE16461F46CFA3D3E9002330466C
:102490003946FDF75DFECCA3D3E900238DF8AD00EE
:1024A00039463046FDF754FE16461F46C94A0023FA
:1024B00030463946FDF74CFE39468DF8AE00C54A28
:1024C00030460023FDF744FE16461F46C24A00234D
:1024D00030463946FDF73CFE39468DF8AF00BE4A1E
:1024E00030460023FDF734FE16461F46BB4A002344
:1024F00030463946FDF72CFE39468DF8B000B74A14
:1025000030460023FDF724FE16461F4642F21072A5
:10251000002330463946FDF71BFE39468DF8B100E1
:1025200042F2107230460023FDF712FE16461F4697
:102530004FF47A72002330463946FDF709FE3946DA
:102540008DF8B2004FF47A7230460023FDF700FE9A
:1025500016461F466422002330463946FDF7F8FD33
:1025600039468DF8B300642230460023FDF7F0FDB4
:1025700016461F460A22002330463946FDF7E8FD7D
:1025800039468DF8B4000A2230460023FDF7E0FDFD
:102590006569A66928468DF8B520314688A3D3E938
:1025A0000023FDF7D5FD86A3D3E900238DF8B600FF
:1025B00031462846FDF7CCFD16461F4682A3D3E9D7
:1025C000002330463946FDF7C3FD7FA3D3E900233E
:1025D0008DF8B70039463046FDF7BAFD16461F465E
:1025E0007C4A002330463946FDF7B2FD39468DF866
:1025F000B800784A30460023FDF7AAFD16461F466C
:10260000754A002330463946FDF7A2FD39468DF85C
:10261000B900714A30460023FDF79AFD16461F4661
:102620006E4A002330463946FDF792FD39468DF853
:10263000BA006A4A30460023FDF78AFD16461F4657
:1026400042F21072002330463946FDF781FD3946CB
:102650008DF8BB0042F2107230460023FDF778FD82
:1026600016461F464FF47A72002330463946FDF76E
:102670006FFD39468DF8BC004FF47A723046002366
:10268000FDF766FD16461F46642200233046394694
:10269000FDF75EFD39468DF8BD006422304600230B
:1026A000FDF756FD16461F460A22002330463946DE
:1026B000FDF74EFD0A228DF8BE0000233046394654
:1026C000FDF746FD0025464E8DF8BF2033688DF896
:1026D000C050012B3ED04FF00108424FC6F8008099
:1026E00005F062F8404A2946284606F0EBF95F23D8
:1026F0003A7823A92BA8FFF7BDF93C4A02212846C6
:1027000006F028F823AA0221182006F023F83A78C8
:102710005F230A3AD2B227A90DF1B600FFF7AAF952
:10272000334A0421284606F015F827AA0421182068
:1027300006F010F894F82F30434500F00C83C0F0F9
:10274000A184022B40F0008343462846294A0621F3
:1027500006F0DCFA284F3B7A03F0FF05002B4DD042
:10276000A36921696269E068994208BF904280F0DC
:10277000E182D4F80480D4F8089058EA090500F002
:10278000B782121A63EB01034B4508BF4245C0F004
:10279000AF82FB7903F0FF05002B40F0E98494F849
:1027A0002F30002B40F0F684FFF7C8F8FEF7F0FB5F
:1027B0004FF0FF33336031B0BDE8F08FAFF30080EE
:1027C00000CA9A3B0000000000E1F505000000008F
:1027D000C80800208096980040420F00A0860100A3
:1027E00004000020590200202CD900083CD9000820
:1027F00040D9000880D6000818090020124B1B7A27
:10280000002B00F04582114B19781893092940F2EA
:10281000A882A1F10A02092A00F202850DF1B6038D
:1028200018461E4619939B5C16440133DBB2835451
:10283000092B2BA80D9024D9002A00F0C984034647
:10284000481E1844721C12E0300900205902002072
:1028500090F800E007460EF1010E5FFA8EFEBEF121
:10286000090F00F801E90CD9002B00F0B284A2F1A5
:102870000C030B449B1B092B02F8015C02F1FF3295
:10288000E6DD00239DF8BB209946904600270023F3
:10289000960018EB060049EB07019B463B460F46A6
:1028A00000219DF8B920CDE9068992460646894661
:1028B0004FF0000C19469DF8B1005201CDE914AB60
:1028C000B2EB0A0A804663EB0B0B5B469DF8AFB098
:1028D0004FEAC70ECDE90ABCF5008B464EEA567E9C
:1028E0002E4680000A9DCDE9108918EB000852465B
:1028F00049EB01094FEA451A40464946DDE90A8994
:10290000BAEB080877466BEB0909C246CB46DDE90E
:102910000689B6EB08084FF000064FEA432545EA62
:10292000D2552B469DF8BC5067EB09094FEA422C63
:10293000CDE902896246A846B1460027CDE916894D
:10294000DDE9148918EB020849EB0309CDE9048994
:10295000DDE916234FF000086E014FEAC10EB21AEE
:102960004EEA507E4FF00006714667EB03039DF878
:10297000B6704FEA4B25CDE91C78002745EADA55B9
:10298000AB469DF8B7504FEAC00CCDE91E56DDE9C5
:102990001056BCEB050561EB0606B146CDE90823F0
:1029A000DDE90223160102969DF8B260A8461D01DA
:1029B00045EA12753B463246CDE91223059B4FEAA4
:1029C0004A2E9901049B0395980141EA9361DDE940
:1029D0000423821A61EB030310461946CDE9200156
:1029E000DDE908018200F2460892002200278B00F0
:1029F0009DF8AC107601CDE91A12DDE90A1211EB4F
:102A00000A0142EB0B02CDE90E12DDE902AB1C9A82
:102A100043EA9073DDE91201301A67EB01011746B2
:102A2000CDE90401DDE9060110EB0A0041EB0B01E1
:102A30004FF0000BB64DB74A09931E9BCDE9060136
:102A4000A7FB0201DDE91467A3FB05239DF8B8A0ED
:102A50004FEA091ECDE91CAB10EB020A9DF8AD0050
:102A600041EB030B4FEA0811CDE902ABDDE920BCD5
:102A70004EEA187E16EB0B068846DDE90EABA0FB8E
:102A800005015D4647EB0C07CDE91E671A9EAB01B9
:102A9000374655469F4EAA01A7FB066716EB000B6B
:102AA00047EB010CDDE90E5643EA9A63551B63EBD5
:102AB0000606CDE90E56DDE90467B3000493002352
:102AC0009DF8BA20BD00CDE914BC45EA96759DF885
:102AD000AE009149CDE91A23DDE90223DDE908AB17
:102AE0001C9E0595A6FB016792197B4116461F4661
:102AF000DDE9162312EB0A02A0FB010143EB0B03F5
:102B000092469B46DDE91E2392197B41DDE9106761
:102B100016EB080647EB0E07CDE90267DDE91467FF
:102B20003618CDE908234F41B046DDE906562901A4
:102B3000330143EA15730691DDE90E56DDE90A1209
:102B40006D18564129463246CDE90E125946079373
:102B5000B9461A9B714FCE00A3FB0723DDE908019C
:102B6000801859415346CDE90A0100219DF8B00073
:102B7000DB000893039B46EA5A76CDE91001DDE9B4
:102B800012ABDDE904011AEB000A4BEB010B1D014E
:102B9000DDE90E2318EB020849EB0309DDE9021217
:102BA0000B0145EA11750293DDE90601DDE90A230F
:102BB0008018594102460B4610990996A1FB07015E
:102BC00018EB00084046DDE9087849EB0109BF1819
:102BD00048EB03083A4643464FF0640E4FEACB06F3
:102BE00003954FEACA0546EA5A76AA46DDE9027815
:102BF0000A253F1848EB090838464146B3469DF878
:102C0000BD704FF00009E7FB0E2301279DF8BE6061
:102C10009DF8BF80E6FB052310EB0A0041EB0B019A
:102C200012EB080243EB09033D4E9F4208BF964258
:102C300038BF3B464FF000079DF8B3809DF8B4C005
:102C4000E8FB0E010FF2C009D9E90089ECFB050190
:102C500038BF32469DF8B56094F82F5080197941FD
:102C6000494508BF40453CBF40464946E060681EB4
:102C7000012821616261A36140F22A820021236A56
:102C8000E26928480091FDF763FD189B1D7899E0E3
:102C9000254B1B7A002B00F08580244B1978189364
:102CA000092900F22F822BAB18461A460D935B5C64
:102CB0000844013BDBB2092B535415D9002900F01D
:102CC0008C820D9B4A1E09251A4402E0002900F05F
:102CD0008482057013781046013BDBB2092B01F1A9
:102CE000FF3102F80139F1D80DF1B6031993C8E5A7
:102CF0000F4A0621002005F02DFDFEF749F931B0FD
:102D0000BDE8F08FAFF3008058850C020000000092
:102D100000E1F50500CA9A3B80969800A086010064
:102D200000AC4206400B00200009002059020020A0
:102D300058D90008DC4A0621002005F00BFDFEF7FB
:102D400027F931B0BDE8F08F43462846D74A06211F
:102D500005F0DCFFFEE42846D54A062105F0D6FF43
:102D6000F8E42BAB18461A460D935B5C084401331C
:102D7000DBB2092B5354B7D9002900F022820D9BF6
:102D80004A1E1A4402E0002900F01B8205701378E5
:102D900010460133DBB2092B01F1FF3102F8013992
:102DA000F1D8A1E7C34B1B7A002B00F09C81C24BEA
:102DB0001D781893002D40F0D9812BAB0D930DF1A8
:102DC000B6031993E66827693046B3A3D3E9002315
:102DD0003946FDF7BDF9B0A3D3E900238DF8AC0067
:102DE00039463046FDF7B4F916461F46ACA3D3E981
:102DF000002330463946FDF7ABF9A9A3D3E90023F8
:102E00008DF8AD0039463046FDF7A2F916461F464B
:102E1000AA4A002330463946FDF79AF939468DF81B
:102E2000AE00A64A30460023FDF792F916461F462B
:102E3000A34A002330463946FDF78AF939468DF812
:102E4000AF009F4A30460023FDF782F916461F4621
:102E50009C4A002330463946FDF77AF939468DF809
:102E6000B000984A30460023FDF772F916461F4617
:102E700042F21072002330463946FDF769F93946AF
:102E80008DF8B10042F2107230460023FDF760F970
:102E900016461F464FF47A72002330463946FDF736
:102EA00057F939468DF8B2004FF47A723046002354
:102EB000FDF74EF916461F46642200233046394678
:102EC000FDF746F939468DF8B300642230460023F9
:102ED000FDF73EF916461F460A22002330463946C2
:102EE000FDF736F939468DF8B4000A223046002342
:102EF000FDF72EF96669A46930468DF8B5202146A4
:102F000065A3D3E90023FDF723F963A3D3E90023E5
:102F10008DF8B60021463046FDF71AF916461F46D1
:102F20005FA3D3E9002330463946FDF711F95CA3CE
:102F3000D3E900238DF8B70039463046FDF708F98C
:102F400016461F465D4A002330463946FDF700F914
:102F500039468DF8B800594A30460023FDF7F8F895
:102F600016461F46564A002330463946FDF7F0F80C
:102F700039468DF8B900524A30460023FDF7E8F88B
:102F800016461F464F4A002330463946FDF7E0F803
:102F900039468DF8BA004B4A30460023FDF7D8F881
:102FA00016461F4642F21072002330463946FDF79E
:102FB000CFF839468DF8BB0042F21072304600233C
:102FC000FDF7C6F816461F464FF47A7200233046C6
:102FD0003946FDF7BDF839468DF8BC004FF47A72DA
:102FE00030460023FDF7B4F816461F46642200233E
:102FF00030463946FDF7ACF839468DF8BD006422FD
:1030000030460023FDF7A4F816461F460A22002387
:1030100030463946FDF79CF839468DF8BE000A2245
:1030200030460023FDF794F8002630AC8DF8BF2021
:1030300004F834695F232A460D982146FEF71AFDED
:103040003046214A022105F085FB22460221182044
:1030500005F080FB189B19981A7827A90A3A5F2374
:10306000D2B2FEF707FD3046184A042105F072FB84
:1030700027AA0421182005F06DFBFDF789FF31B068
:10308000BDE8F08F33680C2B7FF464ABFEF740FD96
:10309000FFF760BBAFF3008000CA9A3B000000005E
:1030A00000E1F5050000000044D9000894D60008AE
:1030B0006CD6000824090020590200208096980050
:1030C00040420F00A08601003CD9000840D900080A
:1030D0000022554B0092D3E900235448FDF738FBFA
:1030E000189B1D786EE6524B1B7A002B3FF407AEFF
:1030F000504B1D781893122D3FF65FAE0135EDB29F
:103100001D705AE6A1F10A02092A00F289800DF128
:10311000B60318461D4619939B5C1544013BDBB270
:103120008354092B2BA80D907FF6ABAB002A5BD004
:103130000346481E092618446A1C0BE0027807461D
:10314000013AD2B2092A00F801297FF69AAB7246F9
:10315000002B4AD0A2F10C030B445B1B092B02F895
:10316000016C02F1FF3EE9DDFFF78BBB013DC6E7D5
:1031700000230125304F2C4A3B80C2E900012F4932
:1031800000930B700CCA84F82F502848FDF7E0FA22
:10319000FFF70ABB236AE2692448009584F82F50A0
:1031A000FDF7D6FA94F82F30012B2AD021D3022B29
:1031B0002ED128460123224A062105F0A7FDFFF75C
:1031C000F3BA09230DF1B60219920370FFF759BB48
:1031D000374609233B70FFF754BB00230DF1B602BD
:1031E00019920370FFF74DBB2F4600233B70FFF78A
:1031F00048BB33680C2B7FF4D7AAFEF789FCFFF796
:10320000D3BA28460F4A062105F080FDFFF7CCBA55
:10321000284601230C4A062105F078FDFFF7C4BAC1
:103220002BAB0D9360E500BF68020020400B00202F
:103230000C090020590200206002002070020020CA
:1032400080D600086CD6000894D600080000000064
:103250002DE9F04FD8A3D3E90023DB4CB1B0E568EA
:10326000266928463146FCF773FFD3A3D3E9002330
:103270008DF8AC0031462846FCF76AFF16461F461B
:10328000CFA3D3E9002330463946FCF761FFCCA336
:10329000D3E900238DF8AD0039463046FCF758FFDE
:1032A00016461F46C94A002330463946FCF750FFF0
:1032B00039468DF8AE00C54A30460023FCF748FF7A
:1032C00016461F46C24A002330463946FCF740FFE7
:1032D00039468DF8AF00BE4A30460023FCF738FF70
:1032E00016461F46BB4A002330463946FCF730FFDE
:1032F00039468DF8B000B74A30460023FCF728FF66
:1033000016461F4642F21072002330463946FCF73B
:103310001FFF39468DF8B10042F21072304600238B
:10332000FCF716FF16461F464FF47A72002330460C
:103330003946FCF70DFF39468DF8B2004FF47A722A
:1033400030460023FCF704FF16461F466422002384
:1033500030463946FCF7FCFE39468DF8B30064224E
:1033600030460023FCF7F4FE16461F460A220023CF
:1033700030463946FCF7ECFE39468DF8B4000A2297
:1033800030460023FCF7E4FE6569A66928468DF8FF
:10339000B520314688A3D3E90023FCF7D9FE86A3E4
:1033A000D3E900238DF8B60031462846FCF7D0FE5D
:1033B00016461F4682A3D3E9002330463946FCF760
:1033C000C7FE7FA3D3E900238DF8B7003946304606
:1033D000FCF7BEFE16461F467C4A0023304639469F
:1033E000FCF7B6FE39468DF8B800784A304600231F
:1033F000FCF7AEFE16461F46754A00233046394696
:10340000FCF7A6FE39468DF8B900714A3046002314
:10341000FCF79EFE16461F466E4A0023304639468C
:10342000FCF796FE39468DF8BA006A4A304600230A
:10343000FCF78EFE16461F4642F2107200233046FD
:103440003946FCF785FE39468DF8BB0042F2107212
:1034500030460023FCF77CFE16461F464FF47A7276
:10346000002330463946FCF773FE39468DF8BC0020
:103470004FF47A7230460023FCF76AFE16461F4668
:103480006422002330463946FCF762FE39468DF847
:10349000BD00642230460023FCF75AFE16461F4644
:1034A0000A22002330463946FCF752FE0A228DF8E4
:1034B000BE00002330463946FCF74AFE0025464E42
:1034C0008DF8BF2033688DF8C050022B3FD0022703
:1034D000DFF81C81376004F067F9404A2946284626
:1034E00005F0F0FA5F2398F8002023A92BA8FEF737
:1034F000C1FA39463A4A284605F02CF923AA39463A
:10350000182005F027F998F800205F230A3AD2B274
:1035100027A90DF1B600FEF7ADFA324A042128467C
:1035200005F018F927AA0421182005F013F994F8DA
:103530002F30012B00F00B83C0F0A084BB4240F081
:10354000FF8228460123284A062105F0DFFB274F8A
:103550003B7A03F0FF05002B4CD0A3692169626917
:10356000E068994208BF904280F0E082D4F804807D
:10357000D4F8089058EA090500F0B682121A63EBF5
:1035800001034B4508BF4245C0F0AE82FB7903F012
:10359000FF05002B40F0E88494F82F30002B40F01A
:1035A000F584FEF7CBF9FDF7F3FC4FF0FF33336002
:1035B00031B0BDE8F08F00BF00CA9A3B00000000A8
:1035C00000E1F50500000000C80800208096980082
:1035D00040420F00A086010004000020C0D5000872
:1035E0003CD9000840D9000880D6000818090020FE
:1035F0005A020020124B1B7A002B00F04582114B1F
:1036000019781893092940F2A882A1F10A02092A1F
:1036100000F202850DF1B60318461E4619939B5C15
:1036200016440133DBB28354092B2BA80D9024D907
:10363000002A00F0C9840346481E1844721C12E098
:10364000300900205A02002090F800E007460EF1F1
:10365000010E5FFA8EFEBEF1090F00F801E90CD9E8
:10366000002B00F0B284A2F10C030B449B1B092B2E
:1036700002F8015C02F1FF32E6DD00239DF8BB2079
:103680009946904600270023960018EB060049EB68
:1036900007019B463B460F4600219DF8B920CDE926
:1036A00006899246064689464FF0000C19469DF859
:1036B000B1005201CDE914ABB2EB0A0A804663EBCC
:1036C0000B0B5B469DF8AFB04FEAC70ECDE90ABCC5
:1036D000F5008B464EEA567E2E4680000A9DCDE9C7
:1036E000108918EB0008524649EB01094FEA451AC8
:1036F00040464946DDE90A89BAEB080877466BEB94
:103700000909C246CB46DDE90689B6EB08084FF049
:1037100000064FEA432545EAD2552B469DF8BC509A
:1037200067EB09094FEA422CCDE902896246A846B7
:10373000B1460027CDE91689DDE9148918EB0208A6
:1037400049EB0309CDE90489DDE916234FF00008B0
:103750006E014FEAC10EB21A4EEA507E4FF00006DB
:10376000714667EB03039DF8B6704FEA4B25CDE930
:103770001C78002745EADA55AB469DF8B7504FEA6A
:10378000C00CCDE91E56DDE91056BCEB050561EB1A
:103790000606B146CDE90823DDE9022316010296AB
:1037A0009DF8B260A8461D0145EA12753B463246B7
:1037B000CDE91223059B4FEA4A2E9901049B0395FC
:1037C000980141EA9361DDE90423821A61EB030366
:1037D00010461946CDE92001DDE908018200F246D4
:1037E0000892002200278B009DF8AC107601CDE9ED
:1037F0001A12DDE90A1211EB0A0142EB0B02CDE9C4
:103800000E12DDE902AB1C9A43EA9073DDE9120166
:10381000301A67EB01011746CDE90401DDE9060125
:1038200010EB0A0041EB0B014FF0000BB64DB74A0D
:1038300009931E9BCDE90601A7FB0201DDE9146790
:10384000A3FB05239DF8B8A04FEA091ECDE91CABE8
:1038500010EB020A9DF8AD0041EB030B4FEA081193
:10386000CDE902ABDDE920BC4EEA187E16EB0B0673
:103870008846DDE90EABA0FB05015D4647EB0C0772
:10388000CDE91E671A9EAB01374655469F4EAA01E9
:10389000A7FB066716EB000B47EB010CDDE90E56A4
:1038A00043EA9A63551B63EB0606CDE90E56DDE944
:1038B0000467B300049300239DF8BA20BD00CDE94E
:1038C00014BC45EA96759DF8AE009149CDE91A23DE
:1038D000DDE90223DDE908AB1C9E0595A6FB016727
:1038E00092197B4116461F46DDE9162312EB0A02A8
:1038F000A0FB010143EB0B0392469B46DDE91E232F
:1039000092197B41DDE9106716EB080647EB0E07BD
:10391000CDE90267DDE914673618CDE908234F4188
:10392000B046DDE906562901330143EA15730691D5
:10393000DDE90E56DDE90A126D1856412946324678
:10394000CDE90E1259460793B9461A9B714FCE0026
:10395000A3FB0723DDE90801801859415346CDE94F
:103960000A0100219DF8B000DB000893039B46EAA2
:103970005A76CDE91001DDE912ABDDE904011AEB5D
:10398000000A4BEB010B1D01DDE90E2318EB0208C9
:1039900049EB0309DDE902120B0145EA11750293B7
:1039A000DDE90601DDE90A238018594102460B468C
:1039B00010990996A1FB070118EB00084046DDE9C4
:1039C000087849EB0109BF1848EB03083A4643461B
:1039D0004FF0640E4FEACB0603954FEACA0546EA5C
:1039E0005A76AA46DDE902780A253F1848EB09080D
:1039F00038464146B3469DF8BD704FF00009E7FBDD
:103A00000E2301279DF8BE609DF8BF80E6FB0523CD
:103A100010EB0A0041EB0B0112EB080243EB090328
:103A20003D4E9F4208BF964238BF3B464FF00007CD
:103A30009DF8B3809DF8B4C0E8FB0E010FF2C009F9
:103A4000D9E90089ECFB050138BF32469DF8B56025
:103A500094F82F5080197941494508BF40453CBF33
:103A600040464946E060681E012821616261A36109
:103A700040F22A820021236AE26928480091FCF77B
:103A800067FE189B1D7899E0254B1B7A002B00F0F0
:103A90008580244B19781893092900F22F822BABCB
:103AA00018461A460D935B5C0844013BDBB2092BB8
:103AB000535415D9002900F08C820D9B4A1E09250C
:103AC0001A4402E0002900F0848205701378104641
:103AD000013BDBB2092B01F1FF3102F80139F1D8CA
:103AE0000DF1B6031993C8E50F4A0621002004F032
:103AF00031FEFDF74DFA31B0BDE8F08FAFF3008035
:103B000058850C020000000000E1F50500CA9A3B50
:103B100080969800A086010000AC4206400B002071
:103B2000000900205A02002058D90008DC4A06216A
:103B3000002004F00FFEFDF72BFA31B0BDE8F08F46
:103B400028460123D74A062105F0E0F8FFE428467D
:103B5000D54A062105F0DAF8F9E42BAB18461A46E7
:103B60000D935B5C08440133DBB2092B5354B7D986
:103B7000002900F022820D9B4A1E1A4402E000290F
:103B800000F01B820570137810460133DBB2092B5D
:103B900001F1FF3102F80139F1D8A1E7C34B1B7ADB
:103BA000002B00F09C81C24B1D781893002D40F033
:103BB000D9812BAB0D930DF1B6031993E6682769F4
:103BC0003046B3A3D3E900233946FCF7C1FAB0A3CA
:103BD000D3E900238DF8AC0039463046FCF7B8FA3B
:103BE00016461F46ACA3D3E9002330463946FCF7FE
:103BF000AFFAA9A3D3E900238DF8AD0039463046CA
:103C0000FCF7A6FA16461F46AA4A00233046394654
:103C1000FCF79EFA39468DF8AE00A64A30460023DE
:103C2000FCF796FA16461F46A34A0023304639464B
:103C3000FCF78EFA39468DF8AF009F4A30460023D4
:103C4000FCF786FA16461F469C4A00233046394642
:103C5000FCF77EFA39468DF8B000984A30460023CA
:103C6000FCF776FA16461F4642F2107200233046E1
:103C70003946FCF76DFA39468DF8B10042F2107200
:103C800030460023FCF764FA16461F464FF47A725A
:103C9000002330463946FCF75BFA39468DF8B2000E
:103CA0004FF47A7230460023FCF752FA16461F464C
:103CB0006422002330463946FCF74AFA39468DF82B
:103CC000B300642230460023FCF742FA16461F4632
:103CD0000A22002330463946FCF73AFA39468DF875
:103CE000B4000A2230460023FCF732FA6669A46960
:103CF00030468DF8B520214665A3D3E90023FCF7B3
:103D000027FA63A3D3E900238DF8B6002146304695
:103D1000FCF71EFA16461F465FA3D3E90023304680
:103D20003946FCF715FA5CA3D3E900238DF8B700F8
:103D300039463046FCF70CFA16461F465D4A00230A
:103D400030463946FCF704FA39468DF8B800594A2E
:103D500030460023FCF7FCF916461F46564A00235E
:103D600030463946FCF7F4F939468DF8B900524A25
:103D700030460023FCF7ECF916461F464F4A002355
:103D800030463946FCF7E4F939468DF8BA004B4A1B
:103D900030460023FCF7DCF916461F4642F210724B
:103DA000002330463946FCF7D3F939468DF8BB007D
:103DB00042F2107230460023FCF7CAF916461F463D
:103DC0004FF47A72002330463946FCF7C1F9394680
:103DD0008DF8BC004FF47A7230460023FCF7B8F936
:103DE00016461F466422002330463946FCF7B0F9D8
:103DF00039468DF8BD00642230460023FCF7A8F94F
:103E000016461F460A22002330463946FCF7A0F921
:103E100039468DF8BE000A2230460023FCF798F997
:103E2000002630AC8DF8BF2004F834695F232A46A1
:103E30000D982146FDF71EFE3046214A022104F06E
:103E400089FC22460221182004F084FC189B199852
:103E50001A7827A90A3A5F23D2B2FDF70BFE304643
:103E6000184A042104F076FC27AA0421182004F043
:103E700071FCFDF78DF831B0BDE8F08F33680C2B85
:103E80007FF465ABFDF744FEFFF761BBAFF3008045
:103E900000CA9A3B0000000000E1F50500000000A8
:103EA00044D9000894D600086CD6000824090020E4
:103EB0005A0200208096980040420F00A086010020
:103EC0003CD9000840D900080022554B0092D3E9A4
:103ED00000235448FCF73CFC189B1D786EE6524BBF
:103EE0001B7A002B3FF407AE504B1D781893122D10
:103EF0003FF65FAE0135EDB21D705AE6A1F10A0240
:103F0000092A00F289800DF1B60318461D4619935F
:103F10009B5C1544013BDBB28354092B2BA80D900D
:103F20007FF6ABAB002A5BD00346481E0926184437
:103F30006A1C0BE002780746013AD2B2092A00F85F
:103F400001297FF69AAB7246002B4AD0A2F10C03EE
:103F50000B445B1B092B02F8016C02F1FF3EE9DD0B
:103F6000FFF78BBB013DC6E700230225304F2C4AEB
:103F70003B80C2E900012F4900930B700CCA84F802
:103F80002F502848FCF7E4FBFFF70BBB236AE269DC
:103F90002448009584F82F50FCF7DAFB94F82F3072
:103FA000012B2AD021D3022B2ED128460123224ACD
:103FB000062104F0ABFEFFF7F4BA09230DF1B602B7
:103FC00019920370FFF759BB374609233B70FFF77F
:103FD00054BB00230DF1B60219920370FFF74DBBDD
:103FE0002F4600233B70FFF748BB33680C2B7FF450
:103FF000D8AAFDF78DFDFFF7D4BA28460F4A06214F
:1040000004F084FEFFF7CDBA284601230C4A0621AE
:1040100004F07CFEFFF7C5BA2BAB0D9360E500BF43
:1040200068020020400B00200C0900205A020020EA
:10403000600200207002002080D600086CD60008C4
:1040400094D60008000000002DE9F04F82A3D3E9C8
:104050000023854C9BB0A668656831462846FCF76E
:1040600077F87DA3D3E900238DF84C00314628462C
:10407000FCF76EF816461F4679A3D3E900233046B5
:104080003946FCF765F876A3D3E900238DF84D0097
:1040900039463046FCF75CF816461F46734A002343
:1040A00030463946FCF754F839468DF84E006F4AD1
:1040B00030460023FCF74CF816461F466C4A002396
:1040C00030463946FCF744F839468DF84F00684AC7
:1040D00030460023FCF73CF816461F46654A00238D
:1040E00030463946FCF734F839468DF85000614ABD
:1040F00030460023FCF72CF816461F4642F2107299
:10410000002330463946FCF723F839468DF8510034
:1041100042F2107230460023FCF71AF816461F468A
:104120004FF47A72002330463946FCF711F83946CD
:104130008DF852004FF47A7230460023FCF708F8ED
:1041400016461F466422002330463946FCF700F825
:1041500039468DF85300642230460023FBF7F8FF00
:1041600016461F460A22002330463946FBF7F0FF69
:104170000A228DF85400002330463946FBF7E8FF49
:104180000025DFF810818DF85520D8F800308DF823
:104190005650032B25D00326C8F8006003F004FB1B
:1041A000354A2946284604F08DFC344B16A91A7866
:1041B00013A85F23FDF75EFC16AA3146102004F019
:1041C000C9FA94F82F30012B00F05882C0F07F829A
:1041D000022B40F04C8228460123294A062104F094
:1041E00095FD284B1B7A03F0FF06002B40F002825E
:1041F000254B1B7AB3B9254B1B7A002B40F00F825D
:10420000234B1B7A002B00F000821C4B1D78002DE5
:1042100000F05882013DEDB21D706668A7680DF18F
:104220004C093CE1154B0DF14C091D781193092DFA
:1042300029463FDC19F8053009EB05000133DBB2F4
:10424000092B09F8053035D9002D00F069826A1E66
:104250004A4424E0AFF3008000CA9A3B000000000B
:1042600000E1F50500000000C808002080969800D5
:1042700040420F00A086010018D900085B02002010
:1042800080D600081809002030090020000900200D
:104290002409002004000020002900F0418206705B
:1042A000137810460133DBB2092B01F1FF3102F81C
:1042B0000139F1D800239DF851204FF0000BCDE9D2
:1042C0000623DDE9060100234FEA820A9DF84F200C
:1042D0001F4616465B4610EB0A004FEA4212824622
:1042E00041EB0B01901B8B4663EB070102460B462B
:1042F000CDE9086700274FEACB004FEACA0140EA40
:104300005A7056028A46590241EAD25132469DF805
:10431000526083460B46304639460027CDE90A01F4
:10432000DDE90601BAEB00006BEB010182468B462A
:10433000DDE908018018594100237601CDE9040127
:10434000DDE90A12711A67EB0202CDE902129DF84B
:104350004C204FEA0B1E10469DF84D204EEA1A7E67
:10436000CDE90C234FEA0A139A46F346059ACC4B43
:104370009701A0FB03010C9ACA4BCDE90E01A2FBE9
:104380000323049947EA91678E01DDE90E01801845
:104390005941CDE90C01DDE90401301A67EB010157
:1043A000DDE90267B200CDE90E0102929DF84E00F0
:1043B000BD4ABB00A0FB020143EA9673DDE9066734
:1043C00016EB0A0647EB0B070393DDE90C231218E3
:1043D0004B41CDE90423DDE90823DDE90E01801816
:1043E0005941B246BB46DDE90A6702460B46DDE9A4
:1043F0000201CDE9062336184FEA0A134FEA0B1CD7
:104400004F414CEA1A7CDDE90401DDE906AB9DF879
:10441000502010EB0A009A46A44B41EB0B01A2FB83
:10442000032312184B414FEAC70EF1004EEA567EA5
:104430000E46642112EB0A0243EB0C0392194FF073
:104440000A064FF0000B9DF8537043EB0E03E7FB99
:1044500001239DF854009DF855A0E0FB062312EBC4
:104460000A0243EB0B03002B08BFFA2AC0F00C81B1
:104470006069E668A1692769861B61EB07077F0809
:104480004FEA3606BB4208BFB24201D216461F466B
:1044900094F82F30002B40F022816660A7607CA347
:1044A000D3E9002330463946FBF752FE78A3D3E91F
:1044B00000238DF84C0039463046FBF749FE16467E
:1044C0001F4675A3D3E9002330463946FBF740FE6B
:1044D00071A3D3E900238DF84D0039463046FBF730
:1044E00037FE16461F46704A002330463946FBF712
:1044F0002FFE39468DF84E006B4A30460023FBF7FD
:1045000027FE16461F466A4A002330463946FBF707
:104510001FFE39468DF84F00654A30460023FBF7F1
:1045200017FE16461F46614A002330463946FBF700
:104530000FFE39468DF850005C4A30460023FBF7E9
:1045400007FE16461F4642F21072002330463946D7
:10455000FBF7FEFD39468DF8510042F210723046ED
:104560000023FBF7F5FD16461F464FF47A72002331
:1045700030463946FBF7ECFD39468DF852004FF4D2
:104580007A7230460023FBF7E3FD16461F4664228D
:10459000002330463946FBF7DBFD39468DF85300E2
:1045A000642230460023FBF7D3FD16461F460A223D
:1045B000002330463946FBF7CBFD39468DF85400D1
:1045C0000A2230460023FBF7C3FD00245F238DF849
:1045D000552048462A4616A98DF85640FDF74AFA56
:1045E00016AA0321102004F0B5F8FCF7D1FC1BB08B
:1045F000BDE8F08FFDF7A2F9FCF7CAFC4FF0FF33DE
:10460000C8F800301BB0BDE8F08F2A4B1B7A002B96
:10461000F8D0294B1D78082D54D80135FBE5264BE1
:104620000DF14C091D781193092D29463FF742AE33
:1046300019F8053009EB0500013BDBB2092B09F83D
:1046400005307FF637AE002D6DD06A1E09264A442C
:1046500001E0002967D0067013781046013BDBB2F9
:10466000092B01F1FF3102F80139F2D822E6284680
:104670000123124A062104F049FBB2E52846104AFC
:10468000062104F043FBACE5FA26002700E700BF53
:1046900000CA9A3B0000000000E1F50500000000A0
:1046A00000CA9A3B00E1F50580969800A0860100BB
:1046B00040420F000C0900205B02002094D6000845
:1046C0006CD6000866680DF14C09A768E7E6D8F8D3
:1046D00000300C2B7FF485ADFDF71AFA81E500253B
:1046E000236AE2691A48009584F82F50FCF730F8E5
:1046F00094F82F30012B0BD021D3022B16D1284652
:104700000123144A062104F001FB119B1D78C4E625
:104710002846114A062104F0F9FA119B1D78BCE6DF
:1047200009230370C6E500230370C3E5284601236F
:104730000A4A062104F0EAFA119B1D78ADE6D8F882
:1047400000300C2BF8D1FDF7E3F9119B1D78A4E69E
:10475000400B002080D600086CD6000894D60008D4
:104760002DE9F0430027D24D85B0AE8D4FF47A721B
:10477000B6B2002330463946FBF7EAFC3946C4B2EC
:104780004FF47A72304600238DF80040FBF7E0FCCE
:1047900016461F466422002330463946FBF7D8FCF4
:1047A00039465FFA80F96422304600238DF8019083
:1047B000FBF7CEFC1F46164600230A223946304638
:1047C000FBF7C6FC39468DF802000A22002330466A
:1047D000FBF7BEFC4FF00008B64F8DF803203B6896
:1047E0008DF80480042B41D004233B6002F0DCFFF1
:1047F000B14A4146404604F065F9B04B1E78002CA2
:1048000066D030348DF8044009F130099DF802304B
:104810008DF8059003F13002D2B26D20732100248F
:104820009DF803308DF8062030338DF807308DF871
:10483000091001AB8DF808008DF80A40985D1A4602
:10484000803898550321182003F084FF95F82F3005
:10485000012B00F07681C0F06D81022B40F0538176
:1048600020460123964A062104F050FA954B1B7A04
:1048700003F0FF06002B40F0D480934B1B7A002BF3
:1048800033D1924B1B7A002B40F0ED80904B1B7A7A
:10489000002B00F0D080894BB5F82C801C78002CC0
:1048A00040F038814FF000091FFA88F84FF47A720F
:1048B000002340464946FBF74BFC49464FF47A72C9
:1048C0000023C6B24046FBF743FC9046994659E0A8
:1048D0005F228DF80420B9F1000F95D19DF80230C8
:1048E0008DF80520002B98D094E7744B1C78032C8E
:1048F0001DDC1DF804300DEB04000133DBB2092B85
:104900000DF8043013D9002C00F02181611E0DEB4D
:10491000010203E0002900F01A81013906701378C2
:1049200010460133DBB2092B02F80139F2D800211D
:1049300000239DF800009DF801E04201121A63EB8C
:1049400001039E00970046EA92763A1846EB01036F
:10495000D90041EA5271D000024664260B460A276C
:10496000E6FB0E239DF802609DF80300E6FB07239B
:104970008618002E40F0B0804FF001084FF000097B
:104980000127AF8564220023404649468DF8006028
:10499000FBF7DEFB4946C5B26422404600238DF892
:1049A0000150FBF7D5FB904699460A22002340466A
:1049B0004946FBF7CDFB0A228DF802000023404652
:1049C0004946FBF7C5FB8DF80320002E00F0A480BC
:1049D00030368DF8046030359DF802308DF8055082
:1049E00003F13002D2B26D25732000219DF803300F
:1049F0008DF8062030338DF807308DF8090001ABB3
:104A00008DF80A108DF808501D5D1A46803D03216F
:104A100018201D5503F09EFEFCF7BAFA05B0BDE85C
:104A2000F083FCF78BFFFCF7B3FA4FF0FF333B60EA
:104A300005B0BDE8F083274B1B7A002BF8D01F4B45
:104A4000B5F82C801C78022C3FF62CAF01344FF0C7
:104A500000091FFA88F8E4B21C70404649464FF43A
:104A60007A72002327E7154B1C78032C3FF75FAFC2
:104A70001DF804300DEB0400013BDBB2092B0DF8EF
:104A800004307FF654AF002C64D0611E09260DEB74
:104A9000010202E000295DD001390670137810464A
:104AA000013BDBB2092B02F80139F3D83FE700BF25
:104AB000C8080020040000200CD900085C02002077
:104AC00080D60008180900203009002000090020C5
:104AD000240900200C0900204FF000091FFA86F875
:104AE0004FF47A72002340464946FBF731FBB7B2D8
:104AF00049464FF47A720023C6B24046FBF728FBC2
:104B0000904699463DE720460123144A062104F0C9
:104B1000FDF8ABE6013C9AE75F228DF80420002DFA
:104B20007FF459AF9DF802308DF80520002B3FF43B
:104B30005AAF55E73B680C2B7FF498AEFCF7E8FFC3
:104B400094E62046064A062104F0E0F88EE60923A2
:104B50000370ECE600230370E9E600BF94D600087A
:104B60006CD6000870B5624E624D336882B0052B7A
:104B700095F82E401DD00523336002F015FE00216C
:104B80005D4A084603F09EFF042C09D8DFE804F0D4
:104B900090969CA20300594A0321182003F092FF2B
:104BA00095F82F30012B1ED1554A0621002004F024
:104BB000ADF8544B1B7A1BBB534B1B7A63B1032CD0
:104BC00001D80134E4B285F82E40042C2AD8DFE85D
:104BD00004F022675F574F004C4B1B7ABBB1C4B146
:104BE000013CE4B2EFE77BD3022B3AD10123484AE0
:104BF0000621002004F08AF8424B1B7A002BDBD000
:104C0000FCF79CFEFCF7C4F94FF0FF33336002B0B1
:104C100070BD85F82E403F4A0321182003F052FF53
:104C200095F82E4095F82F303B48013B012B80F83A
:104C30002B404FF0000109D9EA692B6A0091FBF77C
:104C400087FD02B0BDE87040FCF7A2B9334BD3E951
:104C500000230091FBF77CFD02B0BDE87040FCF73B
:104C600097B901232E4A0621002004F04FF8A0E74F
:104C7000224A0321182003F025FF95F82E40D1E7A2
:104C8000284A0321182003F01DFF95F82E40C9E79C
:104C9000254A0321182003F015FF95F82E40C1E79F
:104CA000224A0321182003F00DFF95F82E40B9E7A2
:104CB000184A0321182003F005FF71E71B4A03215E
:104CC000182003F0FFFE6BE7174A0321182003F0BA
:104CD000F9FE65E7134A0321182003F0F3FE5FE7AE
:104CE00033680C2B7FF465AFFCF712FF61E700BF60
:104CF00004000020C8080020ECD600081CD70008DB
:104D00006CD6000818090020300900200009002096
:104D100080D60008FCD60008400B00206802002066
:104D200094D6000814D700080CD7000804D7000850
:104D30002DE9F04FE6A3D3E900230026E84DDFF884
:104D4000C8A395F830408BB04FEA440B0BEB04003E
:104D50005AF8208031464046FBF7FAF9DCA3D3E944
:104D600000238DF80C0031464046FBF7F1F99046E0
:104D70009946D9A3D3E9002340464946FBF7E8F911
:104D8000D5A3D3E900238DF80D0049464046FBF733
:104D9000DFF990469946D34A002340464946FBF73F
:104DA000D7F949468DF80E00CE4A40460023FBF75E
:104DB000CFF990469946CC4A002340464946FBF736
:104DC000C7F949468DF80F00C74A40460023FBF754
:104DD000BFF990469946C54A002340464946FBF72D
:104DE000B7F949468DF81000C04A40460023FBF74A
:104DF000AFF99046994642F2107200234046494668
:104E0000FBF7A6F949468DF8110042F210724046B0
:104E10000023FBF79DF9904699464FF47A720023E0
:104E200040464946FBF794F949468DF812004FF485
:104E30007A7240460023FBF78BF99046994664222C
:104E4000002340464946FBF783F949468DF8130095
:104E5000642240460023FBF77BF9904699460A22DC
:104E6000002340464946FBF773F90A228DF81400E7
:104E7000002340464946FBF76BF99D4F8DF81520FE
:104E80003B688DF81660062B5DD006233B6002F070
:104E90008BFC984A3146304603F014FE9DF80C30E6
:104EA000002B00F08E8130338DF818309DF80D30D6
:104EB00030338DF819309DF80E303033DAB22E20B1
:104EC0004FF0200E00269DF80F309DF81010303363
:104ED0008DF81A209DF811208DF81B309DF81230A6
:104EE0003031303230338DF81D108DF81E209DF892
:104EF00013109DF814208DF81F309DF815303031B7
:104F0000303230338DF821108DF822208DF81C00BE
:104F100006AA032110208DF823308DF820E08DF8AB
:104F2000246003F017FC95F82F30012B00F08D81E1
:104F3000C0F09181022B40F06B81304601236E4A14
:104F4000062103F0E3FE6D4B1B7A002B40F04981F4
:104F50006B4B1B7A03F0FF02002B00F02881242CFE
:104F600040F24981A3444FEA8B0B0AEB0B035AF83A
:104F70000B10DF881E791A7A95F82F306148013BB3
:104F8000012B85F830406962816007838676C2769E
:104F900040F253810021EA692B6A0091FBF7D8FBAC
:104FA0004BA3D3E9002300266D6A31462846FBF760
:104FB000CFF847A3D3E900230446314628468DF8AD
:104FC0000C40FBF7C5F89046994643A3D3E900236C
:104FD00040464946FBF7BCF83FA3D3E900238DF8D0
:104FE0000D0049464046FBF7B3F8904699463D4AC6
:104FF000002340464946FBF7ABF849468DF80E00C2
:10500000384A40460023FBF7A3F890469946364AB3
:10501000002340464946FBF79BF849468DF80F00B0
:10502000314A40460023FBF793F8904699462F4AB1
:10503000002340464946FBF78BF849468DF810009F
:105040002A4A40460023FBF783F89046994642F2ED
:105050001072002340464946FBF77AF849468DF81E
:10506000110042F2107240460023FBF771F890469F
:1050700099464FF47A72002340464946FBF768F898
:1050800049468DF812004FF47A7240460023FBF730
:105090005FF8904699466422002340464946FBF754
:1050A00057F849468DF81300642240460023FBF769
:1050B0004FF8904699460A22002340464946FBF79E
:1050C00047F80A228DF8140000231FE0AFF3008098
:1050D00000CA9A3B0000000000E1F5050000000056
:1050E000C80800208096980040420F00A08601006A
:1050F0000400002034D7000880D6000818090020DA
:1051000030090020400B002044D7000840464946A3
:10511000FBF71EF8E4B28DF816608DF81520002C10
:105120007DD004F130009DF80D308DF8180030333B
:105130008DF819309DF80E303033DCB24FF02E0E62
:10514000202700269DF80F309DF8112030339DF860
:1051500012109DF813009DF810508DF81A408DF82C
:105160001B309DF814409DF815303032303130300E
:105170003033303530348DF81E208DF81F1006AADC
:1051800003218DF8210010208DF823308DF81CE0CC
:105190008DF81D508DF822408DF820708DF8246018
:1051A00003F0D8FAFBF7F4FE0BB0BDE8F08F2F4BFD
:1051B0001B7A03F0FF06002BF6D0002C52D0013CE6
:1051C0001AE020229DF80D308DF81820002B7FF476
:1051D0006FAE9DF80E308DF81920002B3FF46FAEA6
:1051E0006BE6FCF7ABFBFBF7D3FE4FF0FF333B6006
:1051F0000BB0BDE8F08F0134E4B204EB44039B0034
:105200000AEB0302D78816795AF80310127AB3E62C
:1052100030460123164A062103F078FD93E6202448
:105220009DF80D308DF81840002B80D19DF80E3080
:105230008DF81940002B81D07EE700210D4BD3E97A
:1052400000230091FBF784FAAAE630460A4A0621B9
:1052500003F05CFD77E63B680C2B7FF474AEFCF743
:1052600057FC70E60127054986E600BF00090020CB
:1052700094D60008680200206CD60008404B4C0011
:105280002DE9F04FD2A3D3E900230025D44C99B0E7
:10529000666A29463046FAF75BFFCDA3D3E90023BF
:1052A0008DF8440029463046FAF752FF16461F464D
:1052B000C9A3D3E9002330463946FAF749FFC6A30C
:1052C000D3E900238DF8450039463046FAF740FF10
:1052D00016461F46C34A002330463946FAF738FFC0
:1052E00039468DF84600BF4A30460023FAF730FFB2
:1052F00016461F46BC4A002330463946FAF728FFB7
:1053000039468DF84700B84A30460023FAF720FFA7
:1053100016461F46B54A002330463946FAF718FFAD
:1053200039468DF84800B14A30460023FAF710FF9D
:1053300016461F4642F21072002330463946FAF7ED
:1053400007FF39468DF8490042F2107230460023BB
:10535000FAF7FEFE16461F464FF47A7200233046D7
:105360003946FAF7F5FE39468DF84A004FF47A725D
:1053700030460023FAF7ECFE16461F46642200234F
:1053800030463946FAF7E4FE39468DF84B00642280
:1053900030460023FAF7DCFE16461F460A22002399
:1053A00030463946FAF7D4FE0A228DF84C00002325
:1053B00030463946FAF7CCFEDFF850828DF84D20A2
:1053C000D8F800308DF84E50072B25D00723C8F8A9
:1053D000003002F0E9F9864A2946284603F072FBBC
:1053E000844B14A91A7811A85F23FCF743FB14AA75
:1053F0000321102003F0AEF994F82F30012B00F0B8
:105400004682C0F05682022B40F047822846012394
:10541000794A062103F07AFC784B1B7A03F0FF06E9
:10542000002B40F0F281764B1B7A002B40F0BC80C1
:10543000744B1B7A002B40F00182734B1B7A002BBC
:1054400000F0EE816B4B1E78002E40F02D8211ADE6
:1054500000275FA3D3E90023646A39462046FAF7A0
:1054600077FE5BA3D3E900238DF84400394620463C
:10547000FAF76EFE9046994657A3D3E900234046BB
:105480004946FAF765FE54A3D3E900238DF8450099
:1054900049464046FAF75CFE90469946514A002339
:1054A00040464946FAF754FE49468DF846004D4AB3
:1054B00040460023FAF74CFE904699464A4A00239C
:1054C00040464946FAF744FE49468DF84700464AA9
:1054D00040460023FAF73CFE90469946434A002393
:1054E00040464946FAF734FE49468DF848003F4A9F
:1054F00040460023FAF72CFE9046994642F210727D
:10550000002340464946FAF723FE49468DF84900F4
:1055100042F2107240460023FAF71AFE904699466E
:105520004FF47A72002340464946FAF711FE494685
:105530008DF84A004FF47A7240460023FAF708FECD
:10554000904699466422002340464946FAF700FEF9
:1055500049468DF84B00642240460023FAF7F8FDD7
:10556000904699460A22002340464946FAF7F0FD44
:105570000A228DF84C00002340464946FAF7E8FD20
:1055800028468DF84D2014A932465F238DF84E70C1
:10559000FCF770FA14AA0321102003F0DBF8FBF7E4
:1055A000F7FC19B0BDE8F08F124B11AD19780F93CD
:1055B00009293ADC6B5C68180133DBB2092B6B54A8
:1055C00033D9002900F0868101396A1824E000BF30
:1055D00000CA9A3B0000000000E1F5050000000051
:1055E000C80800208096980040420F00A086010065
:1055F00024D700085D02002080D60008180900208A
:1056000030090020000900202409002004000020A7
:10561000002900F05F8101390670137810460133CC
:10562000DBB2092B02F80139F2D800239DF849209A
:105630004FF0000BCDE90623DDE9060100234FEA18
:10564000820A9DF84720984617465B4610EB0A00F1
:1056500041EB0B01520182468B46D01B63EB0801E4
:1056600002460B464FEACB004FEACA01CDE9087863
:1056700040EA5A709DF84A808A464FF000098346F6
:105680005902560241EAD251324646460B460021A3
:10569000CDE90C89DDE90678BAEB07076BEB080862
:1056A000CDE90278DDE90C897001DDE90867B618FB
:1056B0005F41BB46B246B0EB080861EB09090399AC
:1056C0009DF844600B010299CDE90AAB0F010297E6
:1056D000834F9DF84520A6FB076743EA1173B24646
:1056E0000A99804ECDE904894FEA8B19BB4649EAF5
:1056F0009169A2FB0667DDE90A12039313461AEBD0
:10570000060A4FEA81184BEB070BB8EB010269EB75
:105710000303DDE904019046820099469DF8466046
:105720000492714A8B00A6FB0267CDE90AABDDE962
:1057300002AB43EA9073DDE906011AEB000A4BEB7A
:10574000010BDDE90A1289197A410E4617460593C5
:10575000DDE9082312EB080243EB0903CDE902233C
:10576000DDE90C01DDE9042312184B41194610460E
:10577000DDE9022392197B4116464FEA0A1E4FEAE1
:105780000B1C4CEA1A7C1F46F2469DF84880574A8B
:105790004FEAC10E4EEA507EA8FB022371464FF03D
:1057A000640E92197B41C60012EB0A0243EB0C0314
:1057B000B0184FF00A029DF84BC05941ECFB0E01A6
:1057C0009DF84C309DF84D60E3FB020194F83030B9
:1057D000474A03EB430352F823208019A2F59C4368
:1057E000203B83424CD994F82F204248013A012AA9
:1057F000636283604FF0000163D9236AE26900911C
:10580000FAF7A6FF0F9B1E7822E6FCF797F8FBF746
:10581000BFFB4FF0FF33C8F8003019B0BDE8F08F80
:10582000354B1B7A002B3FF4BCAE344B1E78082E50
:105830003FF60DAE0136F6B21E7008E62F4B11ADE5
:1058400019780F9309293FF7F0AE6B5C6818013B9C
:10585000DBB2092B6B547FF6E8AE00293DD001394D
:1058600009266A1802E0002937D00139067013783A
:105870001046013BDBB2092B02F80139F3D8D4E61C
:1058800002F59C432033834228BF0346ABE72846FA
:105890001B4A062103F03AFABEE528460123194ABD
:1058A000062103F033FAB7E5013EF6B21E7011ADE2
:1058B000CEE5D8F800300C2B7FF4AEADFCF728F91C
:1058C000AAE5114BD3E900230091FAF741FF0F9BA2
:1058D0001E78BDE509230370A7E600230370A4E644
:1058E00000CA9A3B00E1F50580969800A086010069
:1058F00044D70008400B00200C0900205D02002066
:105900006CD6000894D60008680200200000000051
:105910002DE9F04FD2A3D3E900230025D44C99B050
:10592000A66A29463046FAF713FCCDA3D3E9002333
:105930008DF8440029463046FAF70AFC16461F4601
:10594000C9A3D3E9002330463946FAF701FCC6A3C0
:10595000D3E900238DF8450039463046FAF7F8FBC5
:1059600016461F46C34A002330463946FAF7F0FB75
:1059700039468DF84600BF4A30460023FAF7E8FB67
:1059800016461F46BC4A002330463946FAF7E0FB6C
:1059900039468DF84700B84A30460023FAF7D8FB5D
:1059A00016461F46B54A002330463946FAF7D0FB63
:1059B00039468DF84800B14A30460023FAF7C8FB53
:1059C00016461F4642F21072002330463946FAF757
:1059D000BFFB39468DF8490042F210723046002371
:1059E000FAF7B6FB16461F464FF47A72002330468C
:1059F0003946FAF7ADFB39468DF84A004FF47A7212
:105A000030460023FAF7A4FB16461F466422002303
:105A100030463946FAF79CFB39468DF84B00642234
:105A200030460023FAF794FB16461F460A2200234D
:105A300030463946FAF78CFB0A228DF84C000023D9
:105A400030463946FAF784FBDFF850828DF84D2056
:105A5000D8F800308DF84E50082B25D00823C8F810
:105A6000003001F0A1FE864A2946284603F02AF8B4
:105A7000844B14A91A7811A85F23FBF7FBFF14AA23
:105A80000321102002F066FE94F82F30012B00F065
:105A90005682C0F05F82022B40F04A8228460123E2
:105AA000794A062103F032F9784B1B7A03F0FF069E
:105AB000002B40F0F981764B1B7A002B40F0BC8024
:105AC000744B1B7A002B40F00882734B1B7A002B1F
:105AD00000F0F5816B4B1E78002E40F0368211AD40
